{
  "contractName": "Controller",
  "abi": [
    {
      "inputs": [
        {
          "internalType": "address",
          "name": "_sessionContract",
          "type": "address"
        },
        {
          "internalType": "address",
          "name": "_usersInformation",
          "type": "address"
        },
        {
          "internalType": "address",
          "name": "_crSickness",
          "type": "address"
        },
        {
          "internalType": "address",
          "name": "_crBiologicFunctions",
          "type": "address"
        },
        {
          "internalType": "address",
          "name": "_crPatologicalHistory",
          "type": "address"
        },
        {
          "internalType": "address",
          "name": "_crPhysicalExam",
          "type": "address"
        },
        {
          "internalType": "address",
          "name": "_crSyndromeGeriatricProblems",
          "type": "address"
        },
        {
          "internalType": "address",
          "name": "_crClinicalAssessment",
          "type": "address"
        },
        {
          "internalType": "address",
          "name": "_crCommentary",
          "type": "address"
        }
      ],
      "stateMutability": "nonpayable",
      "type": "constructor"
    },
    {
      "inputs": [],
      "name": "getSessionContractAddress",
      "outputs": [
        {
          "internalType": "address",
          "name": "",
          "type": "address"
        }
      ],
      "stateMutability": "view",
      "type": "function"
    },
    {
      "inputs": [],
      "name": "getUsersInfoAddress",
      "outputs": [
        {
          "internalType": "address",
          "name": "",
          "type": "address"
        }
      ],
      "stateMutability": "view",
      "type": "function"
    }
  ],
  "bytecode": "0x608060405234801561001057600080fd5b5060405161029438038061029483398101604081905261002f916100f5565b6000805433600160a060020a031991821617909155600180548216600160a060020a039b8c16179055600280548216998b1699909917909855600380548916978a1697909717909655600480548816958916959095179094556005805487169388169390931790925560068054861691871691909117905560078054851691861691909117905560088054841691851691909117905560098054909216921691909117905561019d565b8051600160a060020a03811681146100f057600080fd5b919050565b60008060008060008060008060006101208a8c03121561011457600080fd5b61011d8a6100d9565b985061012b60208b016100d9565b975061013960408b016100d9565b965061014760608b016100d9565b955061015560808b016100d9565b945061016360a08b016100d9565b935061017160c08b016100d9565b925061017f60e08b016100d9565b915061018e6101008b016100d9565b90509295985092959850929598565b60e9806101ab6000396000f3fe6080604052348015600f57600080fd5b5060043610604e577c01000000000000000000000000000000000000000000000000000000006000350463282b46ce81146053578063afae03ef146096575b600080fd5b60015473ffffffffffffffffffffffffffffffffffffffff165b60405173ffffffffffffffffffffffffffffffffffffffff909116815260200160405180910390f35b60025473ffffffffffffffffffffffffffffffffffffffff16606d56fea26469706673582212200a45641147cdd2ca25a72d6d5b85b5a427abcd351b4068f761ad4d1580d179b664736f6c63430008070033",
  "immutableReferences": {},
  "source": "// SPDX-License-Identifier: MIT\r\n\r\npragma solidity ^0.8.7;\r\n\r\nimport \"./Ownable.sol\";\r\nimport \"./SessionContract.sol\";\r\nimport \"./ProfileModifier.sol\";\r\nimport \"./UsersInformation.sol\";\r\nimport \"./CRSickness.sol\";\r\nimport \"./CRBiologicFunctions.sol\";\r\nimport \"./CRPatologicalHistory.sol\";\r\nimport \"./CRPhysicalExam.sol\";\r\nimport \"./CRSyndromesGeriatricProblems.sol\";\r\nimport \"./CRClinicalAssessment.sol\";\r\nimport \"./CRCommentary.sol\";\r\n\r\n/**\r\n * @author Blockchain Clinic Records Team\r\n * @dev inherits from Ownable to use modifiers\r\n * @title Controller\r\n * @notice Contract to mantain the deployed contract addresses on the environment\r\n */\r\ncontract Controller is Ownable {\r\n    SessionContract sessionContract;\r\n    UsersInformation usersInformation;\r\n    CRSickness crSickness;\r\n    CRBiologicFunctions crBiologicFunctions;\r\n    CRPatologicalHistory crPatologicalHistory;\r\n    CRPhysicalExam crPhysicalExam;\r\n    CRSyndromesGeriatricProblems crSyndromesGeriatricProblems;\r\n    CRClinicalAssessment crClinicalAssessment;\r\n    CRCommentary crCommentary;\r\n\r\n    // constructor() Ownable(msg.sender) {\r\n    //     sessionContract = new SessionContract();\r\n    //     usersInformation = new UsersInformation();\r\n    // }\r\n\r\n    constructor(\r\n        address _sessionContract,\r\n        address _usersInformation,\r\n        address _crSickness,\r\n        address _crBiologicFunctions,\r\n        address _crPatologicalHistory,\r\n        address _crPhysicalExam,\r\n        address _crSyndromeGeriatricProblems,\r\n        address _crClinicalAssessment,\r\n        address _crCommentary\r\n    ) Ownable(msg.sender) {\r\n        sessionContract = SessionContract(_sessionContract);\r\n        usersInformation = UsersInformation(_usersInformation);\r\n        crSickness = CRSickness(_crSickness);\r\n        crBiologicFunctions = CRBiologicFunctions(_crBiologicFunctions);\r\n        crPatologicalHistory = CRPatologicalHistory(_crPatologicalHistory);\r\n        crPhysicalExam = CRPhysicalExam(_crPhysicalExam);\r\n        crSyndromesGeriatricProblems = CRSyndromesGeriatricProblems(\r\n            _crSyndromeGeriatricProblems\r\n        );\r\n        crClinicalAssessment = CRClinicalAssessment(_crClinicalAssessment);\r\n        crCommentary = CRCommentary(_crCommentary);\r\n    }\r\n\r\n    function getSessionContractAddress() external view returns (address) {\r\n        return address(sessionContract);\r\n    }\r\n\r\n    function getUsersInfoAddress() external view returns (address) {\r\n        return address(usersInformation);\r\n    }\r\n}\r\n",
  "sourcePath": "D:\\Tesis Historia Geriatrica\\Blockchain-ClinicRecords\\contracts\\Controller.sol",
  "compiler": {
    "name": "solc",
    "version": "0.8.7+commit.e28d00a7.Emscripten.clang"
  },
  "schemaVersion": "3.4.10",
  "updatedAt": "2023-03-26T15:45:17.910Z",
  "devdoc": {
    "author": "Blockchain Clinic Records Team",
    "details": "inherits from Ownable to use modifiers",
    "kind": "dev",
    "methods": {},
    "title": "Controller",
    "version": 1
  },
  "userdoc": {
    "kind": "user",
    "methods": {},
    "notice": "Contract to mantain the deployed contract addresses on the environment",
    "version": 1
  }
}