{
  "contractName": "CRCommentary",
  "abi": [
    {
      "inputs": [],
      "stateMutability": "nonpayable",
      "type": "constructor"
    },
    {
      "inputs": [
        {
          "internalType": "address",
          "name": "sessionContractAddress",
          "type": "address"
        },
        {
          "internalType": "uint256",
          "name": "_identification",
          "type": "uint256"
        }
      ],
      "name": "getCommentaryByIdentification",
      "outputs": [
        {
          "components": [
            {
              "internalType": "uint256",
              "name": "date",
              "type": "uint256"
            },
            {
              "internalType": "string",
              "name": "comment",
              "type": "string"
            }
          ],
          "internalType": "struct Commentary[]",
          "name": "",
          "type": "tuple[]"
        }
      ],
      "stateMutability": "view",
      "type": "function",
      "constant": true
    },
    {
      "inputs": [
        {
          "internalType": "address",
          "name": "sessionContractAddress",
          "type": "address"
        },
        {
          "internalType": "uint256",
          "name": "_identification",
          "type": "uint256"
        },
        {
          "components": [
            {
              "internalType": "uint256",
              "name": "date",
              "type": "uint256"
            },
            {
              "internalType": "string",
              "name": "comment",
              "type": "string"
            }
          ],
          "internalType": "struct Commentary",
          "name": "_commentary",
          "type": "tuple"
        }
      ],
      "name": "addCommentary",
      "outputs": [
        {
          "components": [
            {
              "internalType": "uint256",
              "name": "date",
              "type": "uint256"
            },
            {
              "internalType": "string",
              "name": "comment",
              "type": "string"
            }
          ],
          "internalType": "struct Commentary[]",
          "name": "",
          "type": "tuple[]"
        }
      ],
      "stateMutability": "nonpayable",
      "type": "function"
    },
    {
      "inputs": [
        {
          "internalType": "address",
          "name": "sessionContractAddress",
          "type": "address"
        },
        {
          "internalType": "string",
          "name": "_sicknessIdentifier",
          "type": "string"
        }
      ],
      "name": "getCommentaryBySicknessIdentifier",
      "outputs": [
        {
          "components": [
            {
              "internalType": "uint256",
              "name": "date",
              "type": "uint256"
            },
            {
              "internalType": "string",
              "name": "comment",
              "type": "string"
            }
          ],
          "internalType": "struct Commentary[]",
          "name": "",
          "type": "tuple[]"
        }
      ],
      "stateMutability": "view",
      "type": "function",
      "constant": true
    },
    {
      "inputs": [
        {
          "internalType": "address",
          "name": "sessionContractAddress",
          "type": "address"
        },
        {
          "internalType": "string",
          "name": "_sicknessIdentifier",
          "type": "string"
        },
        {
          "components": [
            {
              "internalType": "uint256",
              "name": "date",
              "type": "uint256"
            },
            {
              "internalType": "string",
              "name": "comment",
              "type": "string"
            }
          ],
          "internalType": "struct Commentary",
          "name": "_commentary",
          "type": "tuple"
        }
      ],
      "name": "addCommentarySickness",
      "outputs": [
        {
          "components": [
            {
              "internalType": "uint256",
              "name": "date",
              "type": "uint256"
            },
            {
              "internalType": "string",
              "name": "comment",
              "type": "string"
            }
          ],
          "internalType": "struct Commentary[]",
          "name": "",
          "type": "tuple[]"
        }
      ],
      "stateMutability": "nonpayable",
      "type": "function"
    }
  ],
  "bytecode": "0x608060405234801561001057600080fd5b50610f9c806100206000396000f3fe608060405234801561001057600080fd5b5060043610610068577c010000000000000000000000000000000000000000000000000000000060003504630a9e9528811461006d5780638dd90e4c14610096578063b35fb94d146100a9578063f309cae6146100bc575b600080fd5b61008061007b366004610d1a565b6100cf565b60405161008d9190610dac565b60405180910390f35b6100806100a4366004610c2e565b610364565b6100806100b7366004610cf0565b6105ae565b6100806100ca366004610c7c565b6107d3565b60405160e060020a63c9bae3850281523360048201819052600260248301526060918590600160a060020a0382169063c9bae3859060440160206040518083038186803b15801561011f57600080fd5b505afa158015610133573d6000803e3d6000fd5b505050506040513d601f19601f820116820180604052508101906101579190610d67565b806101e0575060405160e060020a63c9bae385028152600160a060020a0383811660048301526003602483015282169063c9bae3859060440160206040518083038186803b1580156101a857600080fd5b505afa1580156101bc573d6000803e3d6000fd5b505050506040513d601f19601f820116820180604052508101906101e09190610d67565b6102085760405160e560020a62461bcd0281526004016101ff90610e3a565b60405180910390fd5b6000858152602081815260408220805460018181018355918452928290208751600290940201928355868201518051889493610248938501920190610a7d565b5050600180549150600061025b83610ef5565b909155505060008581526020818152604080832080548251818502810185019093528083529193909284015b828210156103555783829060005260206000209060020201604051806040016040529081600082015481526020016001820180546102c490610ea1565b80601f01602080910402602001604051908101604052809291908181526020018280546102f090610ea1565b801561033d5780601f106103125761010080835404028352916020019161033d565b820191906000526020600020905b81548152906001019060200180831161032057829003601f168201915b50505050508152505081526020019060010190610287565b50505050925050509392505050565b60405160e060020a63c9bae3850281523360048201819052600260248301526060918490600160a060020a0382169063c9bae3859060440160206040518083038186803b1580156103b457600080fd5b505afa1580156103c8573d6000803e3d6000fd5b505050506040513d601f19601f820116820180604052508101906103ec9190610d67565b80610475575060405160e060020a63c9bae385028152600160a060020a0383811660048301526003602483015282169063c9bae3859060440160206040518083038186803b15801561043d57600080fd5b505afa158015610451573d6000803e3d6000fd5b505050506040513d601f19601f820116820180604052508101906104759190610d67565b6104945760405160e560020a62461bcd0281526004016101ff90610e3a565b6002846040516104a49190610d90565b9081526020016040518091039020805480602002602001604051908101604052809291908181526020016000905b828210156105a057838290600052602060002090600202016040518060400160405290816000820154815260200160018201805461050f90610ea1565b80601f016020809104026020016040519081016040528092919081815260200182805461053b90610ea1565b80156105885780601f1061055d57610100808354040283529160200191610588565b820191906000526020600020905b81548152906001019060200180831161056b57829003601f168201915b505050505081525050815260200190600101906104d2565b505050509250505092915050565b60405160e060020a63c9bae3850281523360048201819052600260248301526060918490600160a060020a0382169063c9bae3859060440160206040518083038186803b1580156105fe57600080fd5b505afa158015610612573d6000803e3d6000fd5b505050506040513d601f19601f820116820180604052508101906106369190610d67565b806106bf575060405160e060020a63c9bae385028152600160a060020a0383811660048301526003602483015282169063c9bae3859060440160206040518083038186803b15801561068757600080fd5b505afa15801561069b573d6000803e3d6000fd5b505050506040513d601f19601f820116820180604052508101906106bf9190610d67565b6106de5760405160e560020a62461bcd0281526004016101ff90610e3a565b60008481526020818152604080832080548251818502810185019093528083529193909284015b828210156105a057838290600052602060002090600202016040518060400160405290816000820154815260200160018201805461074290610ea1565b80601f016020809104026020016040519081016040528092919081815260200182805461076e90610ea1565b80156107bb5780601f10610790576101008083540402835291602001916107bb565b820191906000526020600020905b81548152906001019060200180831161079e57829003601f168201915b50505050508152505081526020019060010190610705565b60405160e060020a63c9bae3850281523360048201819052600260248301526060918590600160a060020a0382169063c9bae3859060440160206040518083038186803b15801561082357600080fd5b505afa158015610837573d6000803e3d6000fd5b505050506040513d601f19601f8201168201806040525081019061085b9190610d67565b806108e4575060405160e060020a63c9bae385028152600160a060020a0383811660048301526003602483015282169063c9bae3859060440160206040518083038186803b1580156108ac57600080fd5b505afa1580156108c0573d6000803e3d6000fd5b505050506040513d601f19601f820116820180604052508101906108e49190610d67565b6109035760405160e560020a62461bcd0281526004016101ff90610e3a565b6002856040516109139190610d90565b9081526040516020918190038201902080546001808201835560009283529183902087516002909202019081558683015180518894929361095993908501920190610a7d565b5050600380549150600061096c83610ef5565b91905055506002856040516109819190610d90565b9081526020016040518091039020805480602002602001604051908101604052809291908181526020016000905b828210156103555783829060005260206000209060020201604051806040016040529081600082015481526020016001820180546109ec90610ea1565b80601f0160208091040260200160405190810160405280929190818152602001828054610a1890610ea1565b8015610a655780601f10610a3a57610100808354040283529160200191610a65565b820191906000526020600020905b815481529060010190602001808311610a4857829003601f168201915b505050505081525050815260200190600101906109af565b828054610a8990610ea1565b90600052602060002090601f016020900481019282610aab5760008555610af1565b82601f10610ac457805160ff1916838001178555610af1565b82800160010185558215610af1579182015b82811115610af1578251825591602001919060010190610ad6565b50610afd929150610b01565b5090565b5b80821115610afd5760008155600101610b02565b8035600160a060020a0381168114610b2d57600080fd5b919050565b600082601f830112610b4357600080fd5b813567ffffffffffffffff80821115610b5e57610b5e610f37565b604051601f8301601f19908116603f01168101908282118183101715610b8657610b86610f37565b81604052838152866020858801011115610b9f57600080fd5b836020870160208301376000602085830101528094505050505092915050565b600060408284031215610bd157600080fd5b6040516040810167ffffffffffffffff8282108183111715610bf557610bf5610f37565b81604052829350843583526020850135915080821115610c1457600080fd5b50610c2185828601610b32565b6020830152505092915050565b60008060408385031215610c4157600080fd5b610c4a83610b16565b9150602083013567ffffffffffffffff811115610c6657600080fd5b610c7285828601610b32565b9150509250929050565b600080600060608486031215610c9157600080fd5b610c9a84610b16565b9250602084013567ffffffffffffffff80821115610cb757600080fd5b610cc387838801610b32565b93506040860135915080821115610cd957600080fd5b50610ce686828701610bbf565b9150509250925092565b60008060408385031215610d0357600080fd5b610d0c83610b16565b946020939093013593505050565b600080600060608486031215610d2f57600080fd5b610d3884610b16565b925060208401359150604084013567ffffffffffffffff811115610d5b57600080fd5b610ce686828701610bbf565b600060208284031215610d7957600080fd5b81518015158114610d8957600080fd5b9392505050565b60008251610da2818460208701610e71565b9190910192915050565b60208082528251828201819052600091906040908185019080840286018301878501865b83811015610e2c57888303603f1901855281518051845287015187840187905280518785018190526060610e0982828801858d01610e71565b96890196601f91909101601f191694909401909301925090860190600101610dd0565b509098975050505050505050565b60208082526017908201527f73656e646572206973206e6f742061206d65646963616c000000000000000000604082015260600190565b60005b83811015610e8c578181015183820152602001610e74565b83811115610e9b576000848401525b50505050565b600281046001821680610eb557607f821691505b60208210811415610eef577f4e487b7100000000000000000000000000000000000000000000000000000000600052602260045260246000fd5b50919050565b6000600019821415610f30577f4e487b7100000000000000000000000000000000000000000000000000000000600052601160045260246000fd5b5060010190565b7f4e487b7100000000000000000000000000000000000000000000000000000000600052604160045260246000fdfea26469706673582212209b4cb8ccf1c2346bd0d092c9d1a97ba21c9377d3429a558ee3936184131bba0864736f6c63430008070033",
  "immutableReferences": {},
  "source": "// SPDX-License-Identifier: GPL-3.0\r\npragma solidity ^0.8.7;\r\n\r\nimport \"./ProfileModifier.sol\";\r\n\r\nstruct Commentary {\r\n    uint256 date;\r\n    string comment;\r\n}\r\n\r\n/**\r\n * @author Blockchain Clinic Records Team\r\n * @dev inherits from ProfileModifier to use modifiers\r\n * @title CRCommentary\r\n * @notice Contract to mantain and manage a Clinical Record's Commentaires about patients or Sickness\r\n */\r\ncontract CRCommentary is ProfileModifier {\r\n    //maps from user identification to Comentaries\r\n    mapping(uint256 => Commentary[]) crCommentaryMap;\r\n    uint256 crCommentaryMapLength;\r\n\r\n    //maps from sicknessIdentifier to Commentaries\r\n    mapping(string => Commentary[]) crCommentarySicknessMap;\r\n    uint256 crCommentarySicknessMapLength;\r\n\r\n    constructor() {}\r\n\r\n    /**\r\n     * @notice retrieves the Commentary info by a given identification of patient\r\n     * @param sessionContractAddress address of the deployed SessionContract instance\r\n     * @param _identification identification of the patient\r\n     * @return Commentary Commentary array\r\n     */\r\n    function getCommentaryByIdentification(\r\n        address sessionContractAddress,\r\n        uint256 _identification\r\n    )\r\n        external\r\n        view\r\n        isMedical(msg.sender, sessionContractAddress)\r\n        returns (Commentary[] memory)\r\n    {\r\n        return crCommentaryMap[_identification];\r\n    }\r\n\r\n    /**\r\n     * @notice register a new Commentary info by a given identification of patient\r\n     * @param sessionContractAddress address of the deployed SessionContract instance\r\n     * @param _identification identification of the patient\r\n     * @param _commentary information value with Commentary struct\r\n     * @return Commentary Commentary array\r\n     */\r\n    function addCommentary(\r\n        address sessionContractAddress,\r\n        uint256 _identification,\r\n        Commentary memory _commentary\r\n    )\r\n        external\r\n        isMedical(msg.sender, sessionContractAddress)\r\n        returns (Commentary[] memory)\r\n    {\r\n        crCommentaryMap[_identification].push(_commentary);\r\n        crCommentaryMapLength++;\r\n        return crCommentaryMap[_identification];\r\n    }\r\n\r\n    /**\r\n     * @notice retrieves the Commentary info by a given identification of a sickness\r\n     * @param sessionContractAddress address of the deployed SessionContract instance\r\n     * @param _sicknessIdentifier identification of the sickness\r\n     * @return Commentary Commentary array\r\n     */\r\n    function getCommentaryBySicknessIdentifier(\r\n        address sessionContractAddress,\r\n        string memory _sicknessIdentifier\r\n    )\r\n        external\r\n        view\r\n        isMedical(msg.sender, sessionContractAddress)\r\n        returns (Commentary[] memory)\r\n    {\r\n        return crCommentarySicknessMap[_sicknessIdentifier];\r\n    }\r\n\r\n    /**\r\n     * @notice register a new Commentary info by a given identification of a sickness\r\n     * @param sessionContractAddress address of the deployed SessionContract instance\r\n     * @param _sicknessIdentifier identification of the sickness\r\n     * @param _commentary information value with Commentary struct\r\n     * @return Commentary Commentary array\r\n     */\r\n    function addCommentarySickness(\r\n        address sessionContractAddress,\r\n        string memory _sicknessIdentifier,\r\n        Commentary memory _commentary\r\n    )\r\n        external\r\n        isMedical(msg.sender, sessionContractAddress)\r\n        returns (Commentary[] memory)\r\n    {\r\n        crCommentarySicknessMap[_sicknessIdentifier].push(_commentary);\r\n        crCommentarySicknessMapLength++;\r\n        return crCommentarySicknessMap[_sicknessIdentifier];\r\n    }\r\n}\r\n",
  "sourcePath": "D:\\Documents\\React\\Tesis Historias Clinicas\\contracts\\CRCommentary.sol",
  "compiler": {
    "name": "solc",
    "version": "0.8.7+commit.e28d00a7.Emscripten.clang"
  },
  "schemaVersion": "3.4.10",
  "updatedAt": "2023-03-25T17:19:33.803Z",
  "networkType": "ethereum",
  "devdoc": {
    "author": "Blockchain Clinic Records Team",
    "details": "inherits from ProfileModifier to use modifiers",
    "kind": "dev",
    "methods": {
      "addCommentary(address,uint256,(uint256,string))": {
        "params": {
          "_commentary": "information value with Commentary struct",
          "_identification": "identification of the patient",
          "sessionContractAddress": "address of the deployed SessionContract instance"
        },
        "returns": {
          "_0": "Commentary Commentary array"
        }
      },
      "addCommentarySickness(address,string,(uint256,string))": {
        "params": {
          "_commentary": "information value with Commentary struct",
          "_sicknessIdentifier": "identification of the sickness",
          "sessionContractAddress": "address of the deployed SessionContract instance"
        },
        "returns": {
          "_0": "Commentary Commentary array"
        }
      },
      "getCommentaryByIdentification(address,uint256)": {
        "params": {
          "_identification": "identification of the patient",
          "sessionContractAddress": "address of the deployed SessionContract instance"
        },
        "returns": {
          "_0": "Commentary Commentary array"
        }
      },
      "getCommentaryBySicknessIdentifier(address,string)": {
        "params": {
          "_sicknessIdentifier": "identification of the sickness",
          "sessionContractAddress": "address of the deployed SessionContract instance"
        },
        "returns": {
          "_0": "Commentary Commentary array"
        }
      }
    },
    "title": "CRCommentary",
    "version": 1
  },
  "userdoc": {
    "kind": "user",
    "methods": {
      "addCommentary(address,uint256,(uint256,string))": {
        "notice": "register a new Commentary info by a given identification of patient"
      },
      "addCommentarySickness(address,string,(uint256,string))": {
        "notice": "register a new Commentary info by a given identification of a sickness"
      },
      "getCommentaryByIdentification(address,uint256)": {
        "notice": "retrieves the Commentary info by a given identification of patient"
      },
      "getCommentaryBySicknessIdentifier(address,string)": {
        "notice": "retrieves the Commentary info by a given identification of a sickness"
      }
    },
    "notice": "Contract to mantain and manage a Clinical Record's Commentaires about patients or Sickness",
    "version": 1
  }
}