{
  "contractName": "CRSickness",
  "abi": [
    {
      "inputs": [],
      "stateMutability": "nonpayable",
      "type": "constructor"
    },
    {
      "inputs": [
        {
          "internalType": "address",
          "name": "sessionContractAddress",
          "type": "address"
        },
        {
          "internalType": "string",
          "name": "_sicknessIdentifier",
          "type": "string"
        }
      ],
      "name": "getExamBysicknessIdentifier",
      "outputs": [
        {
          "components": [
            {
              "internalType": "uint256",
              "name": "date",
              "type": "uint256"
            },
            {
              "internalType": "string",
              "name": "examName",
              "type": "string"
            },
            {
              "internalType": "string",
              "name": "examDetail",
              "type": "string"
            }
          ],
          "internalType": "struct Exam[]",
          "name": "",
          "type": "tuple[]"
        }
      ],
      "stateMutability": "view",
      "type": "function",
      "constant": true
    },
    {
      "inputs": [
        {
          "internalType": "address",
          "name": "sessionContractAddress",
          "type": "address"
        },
        {
          "internalType": "string",
          "name": "_sicknessIdentifier",
          "type": "string"
        },
        {
          "components": [
            {
              "internalType": "uint256",
              "name": "date",
              "type": "uint256"
            },
            {
              "internalType": "string",
              "name": "examName",
              "type": "string"
            },
            {
              "internalType": "string",
              "name": "examDetail",
              "type": "string"
            }
          ],
          "internalType": "struct Exam",
          "name": "_exam",
          "type": "tuple"
        }
      ],
      "name": "addExam",
      "outputs": [
        {
          "components": [
            {
              "internalType": "uint256",
              "name": "date",
              "type": "uint256"
            },
            {
              "internalType": "string",
              "name": "examName",
              "type": "string"
            },
            {
              "internalType": "string",
              "name": "examDetail",
              "type": "string"
            }
          ],
          "internalType": "struct Exam[]",
          "name": "",
          "type": "tuple[]"
        }
      ],
      "stateMutability": "nonpayable",
      "type": "function"
    },
    {
      "inputs": [
        {
          "internalType": "address",
          "name": "sessionContractAddress",
          "type": "address"
        },
        {
          "internalType": "string",
          "name": "_sicknessIdentifier",
          "type": "string"
        }
      ],
      "name": "getResultBysicknessIdentifier",
      "outputs": [
        {
          "components": [
            {
              "internalType": "uint256",
              "name": "date",
              "type": "uint256"
            },
            {
              "internalType": "string",
              "name": "examName",
              "type": "string"
            },
            {
              "internalType": "string",
              "name": "resultDetail",
              "type": "string"
            }
          ],
          "internalType": "struct Result[]",
          "name": "",
          "type": "tuple[]"
        }
      ],
      "stateMutability": "view",
      "type": "function",
      "constant": true
    },
    {
      "inputs": [
        {
          "internalType": "address",
          "name": "sessionContractAddress",
          "type": "address"
        },
        {
          "internalType": "string",
          "name": "_sicknessIdentifier",
          "type": "string"
        },
        {
          "components": [
            {
              "internalType": "uint256",
              "name": "date",
              "type": "uint256"
            },
            {
              "internalType": "string",
              "name": "examName",
              "type": "string"
            },
            {
              "internalType": "string",
              "name": "resultDetail",
              "type": "string"
            }
          ],
          "internalType": "struct Result",
          "name": "_result",
          "type": "tuple"
        }
      ],
      "name": "addResult",
      "outputs": [
        {
          "components": [
            {
              "internalType": "uint256",
              "name": "date",
              "type": "uint256"
            },
            {
              "internalType": "string",
              "name": "examName",
              "type": "string"
            },
            {
              "internalType": "string",
              "name": "resultDetail",
              "type": "string"
            }
          ],
          "internalType": "struct Result[]",
          "name": "",
          "type": "tuple[]"
        }
      ],
      "stateMutability": "nonpayable",
      "type": "function"
    },
    {
      "inputs": [
        {
          "internalType": "address",
          "name": "sessionContractAddress",
          "type": "address"
        },
        {
          "internalType": "uint256",
          "name": "_identification",
          "type": "uint256"
        }
      ],
      "name": "getSicknessByIdentification",
      "outputs": [
        {
          "components": [
            {
              "internalType": "uint256",
              "name": "registerDate",
              "type": "uint256"
            },
            {
              "internalType": "uint256",
              "name": "initialDate",
              "type": "uint256"
            },
            {
              "internalType": "string",
              "name": "sicknessName",
              "type": "string"
            },
            {
              "internalType": "string",
              "name": "diagnostic",
              "type": "string"
            },
            {
              "internalType": "string",
              "name": "startWay",
              "type": "string"
            },
            {
              "internalType": "string",
              "name": "course",
              "type": "string"
            },
            {
              "internalType": "string",
              "name": "signsSymtoms",
              "type": "string"
            },
            {
              "internalType": "string",
              "name": "treatment",
              "type": "string"
            },
            {
              "internalType": "string",
              "name": "sicknessIdentifier",
              "type": "string"
            }
          ],
          "internalType": "struct Sickness[]",
          "name": "",
          "type": "tuple[]"
        }
      ],
      "stateMutability": "view",
      "type": "function",
      "constant": true
    },
    {
      "inputs": [
        {
          "internalType": "address",
          "name": "sessionContractAddress",
          "type": "address"
        },
        {
          "internalType": "uint256",
          "name": "_identification",
          "type": "uint256"
        },
        {
          "components": [
            {
              "internalType": "uint256",
              "name": "registerDate",
              "type": "uint256"
            },
            {
              "internalType": "uint256",
              "name": "initialDate",
              "type": "uint256"
            },
            {
              "internalType": "string",
              "name": "sicknessName",
              "type": "string"
            },
            {
              "internalType": "string",
              "name": "diagnostic",
              "type": "string"
            },
            {
              "internalType": "string",
              "name": "startWay",
              "type": "string"
            },
            {
              "internalType": "string",
              "name": "course",
              "type": "string"
            },
            {
              "internalType": "string",
              "name": "signsSymtoms",
              "type": "string"
            },
            {
              "internalType": "string",
              "name": "treatment",
              "type": "string"
            },
            {
              "internalType": "string",
              "name": "sicknessIdentifier",
              "type": "string"
            }
          ],
          "internalType": "struct Sickness",
          "name": "_sickness",
          "type": "tuple"
        }
      ],
      "name": "addSickness",
      "outputs": [
        {
          "components": [
            {
              "internalType": "uint256",
              "name": "registerDate",
              "type": "uint256"
            },
            {
              "internalType": "uint256",
              "name": "initialDate",
              "type": "uint256"
            },
            {
              "internalType": "string",
              "name": "sicknessName",
              "type": "string"
            },
            {
              "internalType": "string",
              "name": "diagnostic",
              "type": "string"
            },
            {
              "internalType": "string",
              "name": "startWay",
              "type": "string"
            },
            {
              "internalType": "string",
              "name": "course",
              "type": "string"
            },
            {
              "internalType": "string",
              "name": "signsSymtoms",
              "type": "string"
            },
            {
              "internalType": "string",
              "name": "treatment",
              "type": "string"
            },
            {
              "internalType": "string",
              "name": "sicknessIdentifier",
              "type": "string"
            }
          ],
          "internalType": "struct Sickness[]",
          "name": "",
          "type": "tuple[]"
        }
      ],
      "stateMutability": "nonpayable",
      "type": "function"
    }
  ],
  "bytecode": "0x608060405234801561001057600080fd5b50612218806100206000396000f3fe608060405234801561001057600080fd5b50600436106100655760e060020a60003504634e04a8bf811461006a578063a15d082514610093578063c37fa9c5146100a6578063ce76bc3e146100c6578063d0fd89ae146100e6578063d2672f17146100f9575b600080fd5b61007d610078366004611c72565b61010c565b60405161008a9190611f6a565b60405180910390f35b61007d6100a1366004611c48565b6107c9565b6100b96100b4366004611bd4565b610d70565b60405161008a9190611f16565b6100d96100d4366004611b86565b6110c5565b60405161008a9190611eb5565b6100b96100f4366004611b86565b611390565b6100d9610107366004611bd4565b61165b565b60603384600160a060020a03811663c9bae3858360026040518363ffffffff1660e060020a028152600401610142929190611e9c565b60206040518083038186803b15801561015a57600080fd5b505afa15801561016e573d6000803e3d6000fd5b505050506040513d601f19601f820116820180604052508101906101929190611dea565b8061021a575060405160e060020a63c9bae385028152600160a060020a0382169063c9bae385906101ca908590600390600401611e9c565b60206040518083038186803b1580156101e257600080fd5b505afa1580156101f6573d6000803e3d6000fd5b505050506040513d601f19601f8201168201806040525081019061021a9190611dea565b6102425760405160e560020a62461bcd0281526004016102399061208c565b60405180910390fd5b6000858152602081815260408083208054600181810183559185529383902088516009909502019384558783015190840155860151805187939261028d9260028501929101906119b0565b50606082015180516102a99160038401916020909101906119b0565b50608082015180516102c59160048401916020909101906119b0565b5060a082015180516102e19160058401916020909101906119b0565b5060c082015180516102fd9160068401916020909101906119b0565b5060e082015180516103199160078401916020909101906119b0565b5061010082015180516103369160088401916020909101906119b0565b5050600180549150600061034983612171565b909155505060008581526020818152604080832080548251818502810185019093528083529193909284015b828210156107ba57838290600052602060002090600902016040518061012001604052908160008201548152602001600182015481526020016002820180546103bd9061211d565b80601f01602080910402602001604051908101604052809291908181526020018280546103e99061211d565b80156104365780601f1061040b57610100808354040283529160200191610436565b820191906000526020600020905b81548152906001019060200180831161041957829003601f168201915b5050505050815260200160038201805461044f9061211d565b80601f016020809104026020016040519081016040528092919081815260200182805461047b9061211d565b80156104c85780601f1061049d576101008083540402835291602001916104c8565b820191906000526020600020905b8154815290600101906020018083116104ab57829003601f168201915b505050505081526020016004820180546104e19061211d565b80601f016020809104026020016040519081016040528092919081815260200182805461050d9061211d565b801561055a5780601f1061052f5761010080835404028352916020019161055a565b820191906000526020600020905b81548152906001019060200180831161053d57829003601f168201915b505050505081526020016005820180546105739061211d565b80601f016020809104026020016040519081016040528092919081815260200182805461059f9061211d565b80156105ec5780601f106105c1576101008083540402835291602001916105ec565b820191906000526020600020905b8154815290600101906020018083116105cf57829003601f168201915b505050505081526020016006820180546106059061211d565b80601f01602080910402602001604051908101604052809291908181526020018280546106319061211d565b801561067e5780601f106106535761010080835404028352916020019161067e565b820191906000526020600020905b81548152906001019060200180831161066157829003601f168201915b505050505081526020016007820180546106979061211d565b80601f01602080910402602001604051908101604052809291908181526020018280546106c39061211d565b80156107105780601f106106e557610100808354040283529160200191610710565b820191906000526020600020905b8154815290600101906020018083116106f357829003601f168201915b505050505081526020016008820180546107299061211d565b80601f01602080910402602001604051908101604052809291908181526020018280546107559061211d565b80156107a25780601f10610777576101008083540402835291602001916107a2565b820191906000526020600020905b81548152906001019060200180831161078557829003601f168201915b50505050508152505081526020019060010190610375565b50505050925050509392505050565b60603383600160a060020a03811663c9bae3858360026040518363ffffffff1660e060020a0281526004016107ff929190611e9c565b60206040518083038186803b15801561081757600080fd5b505afa15801561082b573d6000803e3d6000fd5b505050506040513d601f19601f8201168201806040525081019061084f9190611dea565b806108d7575060405160e060020a63c9bae385028152600160a060020a0382169063c9bae38590610887908590600390600401611e9c565b60206040518083038186803b15801561089f57600080fd5b505afa1580156108b3573d6000803e3d6000fd5b505050506040513d601f19601f820116820180604052508101906108d79190611dea565b6108f65760405160e560020a62461bcd0281526004016102399061208c565b60008481526020818152604080832080548251818502810185019093528083529193909284015b82821015610d6257838290600052602060002090600902016040518061012001604052908160008201548152602001600182015481526020016002820180546109659061211d565b80601f01602080910402602001604051908101604052809291908181526020018280546109919061211d565b80156109de5780601f106109b3576101008083540402835291602001916109de565b820191906000526020600020905b8154815290600101906020018083116109c157829003601f168201915b505050505081526020016003820180546109f79061211d565b80601f0160208091040260200160405190810160405280929190818152602001828054610a239061211d565b8015610a705780601f10610a4557610100808354040283529160200191610a70565b820191906000526020600020905b815481529060010190602001808311610a5357829003601f168201915b50505050508152602001600482018054610a899061211d565b80601f0160208091040260200160405190810160405280929190818152602001828054610ab59061211d565b8015610b025780601f10610ad757610100808354040283529160200191610b02565b820191906000526020600020905b815481529060010190602001808311610ae557829003601f168201915b50505050508152602001600582018054610b1b9061211d565b80601f0160208091040260200160405190810160405280929190818152602001828054610b479061211d565b8015610b945780601f10610b6957610100808354040283529160200191610b94565b820191906000526020600020905b815481529060010190602001808311610b7757829003601f168201915b50505050508152602001600682018054610bad9061211d565b80601f0160208091040260200160405190810160405280929190818152602001828054610bd99061211d565b8015610c265780601f10610bfb57610100808354040283529160200191610c26565b820191906000526020600020905b815481529060010190602001808311610c0957829003601f168201915b50505050508152602001600782018054610c3f9061211d565b80601f0160208091040260200160405190810160405280929190818152602001828054610c6b9061211d565b8015610cb85780601f10610c8d57610100808354040283529160200191610cb8565b820191906000526020600020905b815481529060010190602001808311610c9b57829003601f168201915b50505050508152602001600882018054610cd19061211d565b80601f0160208091040260200160405190810160405280929190818152602001828054610cfd9061211d565b8015610d4a5780601f10610d1f57610100808354040283529160200191610d4a565b820191906000526020600020905b815481529060010190602001808311610d2d57829003601f168201915b5050505050815250508152602001906001019061091d565b505050509250505092915050565b60603384600160a060020a03811663c9bae3858360026040518363ffffffff1660e060020a028152600401610da6929190611e9c565b60206040518083038186803b158015610dbe57600080fd5b505afa158015610dd2573d6000803e3d6000fd5b505050506040513d601f19601f82011682018060405250810190610df69190611dea565b80610e7e575060405160e060020a63c9bae385028152600160a060020a0382169063c9bae38590610e2e908590600390600401611e9c565b60206040518083038186803b158015610e4657600080fd5b505afa158015610e5a573d6000803e3d6000fd5b505050506040513d601f19601f82011682018060405250810190610e7e9190611dea565b610e9d5760405160e560020a62461bcd0281526004016102399061208c565b600485604051610ead9190611e80565b90815260405160209181900382019020805460018082018355600092835291839020875160039092020190815586830151805188949293610ef3939085019201906119b0565b5060408201518051610f0f9160028401916020909101906119b0565b50506005805491506000610f2283612171565b9190505550600485604051610f379190611e80565b9081526020016040518091039020805480602002602001604051908101604052809291908181526020016000905b828210156107ba578382906000526020600020906003020160405180606001604052908160008201548152602001600182018054610fa29061211d565b80601f0160208091040260200160405190810160405280929190818152602001828054610fce9061211d565b801561101b5780601f10610ff05761010080835404028352916020019161101b565b820191906000526020600020905b815481529060010190602001808311610ffe57829003601f168201915b505050505081526020016002820180546110349061211d565b80601f01602080910402602001604051908101604052809291908181526020018280546110609061211d565b80156110ad5780601f10611082576101008083540402835291602001916110ad565b820191906000526020600020905b81548152906001019060200180831161109057829003601f168201915b50505050508152505081526020019060010190610f65565b60603383600160a060020a03811663c9bae3858360026040518363ffffffff1660e060020a0281526004016110fb929190611e9c565b60206040518083038186803b15801561111357600080fd5b505afa158015611127573d6000803e3d6000fd5b505050506040513d601f19601f8201168201806040525081019061114b9190611dea565b806111d3575060405160e060020a63c9bae385028152600160a060020a0382169063c9bae38590611183908590600390600401611e9c565b60206040518083038186803b15801561119b57600080fd5b505afa1580156111af573d6000803e3d6000fd5b505050506040513d601f19601f820116820180604052508101906111d39190611dea565b6111f25760405160e560020a62461bcd0281526004016102399061208c565b6002846040516112029190611e80565b9081526020016040518091039020805480602002602001604051908101604052809291908181526020016000905b82821015610d6257838290600052602060002090600302016040518060600160405290816000820154815260200160018201805461126d9061211d565b80601f01602080910402602001604051908101604052809291908181526020018280546112999061211d565b80156112e65780601f106112bb576101008083540402835291602001916112e6565b820191906000526020600020905b8154815290600101906020018083116112c957829003601f168201915b505050505081526020016002820180546112ff9061211d565b80601f016020809104026020016040519081016040528092919081815260200182805461132b9061211d565b80156113785780601f1061134d57610100808354040283529160200191611378565b820191906000526020600020905b81548152906001019060200180831161135b57829003601f168201915b50505050508152505081526020019060010190611230565b60603383600160a060020a03811663c9bae3858360026040518363ffffffff1660e060020a0281526004016113c6929190611e9c565b60206040518083038186803b1580156113de57600080fd5b505afa1580156113f2573d6000803e3d6000fd5b505050506040513d601f19601f820116820180604052508101906114169190611dea565b8061149e575060405160e060020a63c9bae385028152600160a060020a0382169063c9bae3859061144e908590600390600401611e9c565b60206040518083038186803b15801561146657600080fd5b505afa15801561147a573d6000803e3d6000fd5b505050506040513d601f19601f8201168201806040525081019061149e9190611dea565b6114bd5760405160e560020a62461bcd0281526004016102399061208c565b6004846040516114cd9190611e80565b9081526020016040518091039020805480602002602001604051908101604052809291908181526020016000905b82821015610d625783829060005260206000209060030201604051806060016040529081600082015481526020016001820180546115389061211d565b80601f01602080910402602001604051908101604052809291908181526020018280546115649061211d565b80156115b15780601f10611586576101008083540402835291602001916115b1565b820191906000526020600020905b81548152906001019060200180831161159457829003601f168201915b505050505081526020016002820180546115ca9061211d565b80601f01602080910402602001604051908101604052809291908181526020018280546115f69061211d565b80156116435780601f1061161857610100808354040283529160200191611643565b820191906000526020600020905b81548152906001019060200180831161162657829003601f168201915b505050505081525050815260200190600101906114fb565b60603384600160a060020a03811663c9bae3858360026040518363ffffffff1660e060020a028152600401611691929190611e9c565b60206040518083038186803b1580156116a957600080fd5b505afa1580156116bd573d6000803e3d6000fd5b505050506040513d601f19601f820116820180604052508101906116e19190611dea565b80611769575060405160e060020a63c9bae385028152600160a060020a0382169063c9bae38590611719908590600390600401611e9c565b60206040518083038186803b15801561173157600080fd5b505afa158015611745573d6000803e3d6000fd5b505050506040513d601f19601f820116820180604052508101906117699190611dea565b6117885760405160e560020a62461bcd0281526004016102399061208c565b6002856040516117989190611e80565b908152604051602091819003820190208054600180820183556000928352918390208751600390920201908155868301518051889492936117de939085019201906119b0565b50604082015180516117fa9160028401916020909101906119b0565b5050600380549150600061180d83612171565b91905055506002856040516118229190611e80565b9081526020016040518091039020805480602002602001604051908101604052809291908181526020016000905b828210156107ba57838290600052602060002090600302016040518060600160405290816000820154815260200160018201805461188d9061211d565b80601f01602080910402602001604051908101604052809291908181526020018280546118b99061211d565b80156119065780601f106118db57610100808354040283529160200191611906565b820191906000526020600020905b8154815290600101906020018083116118e957829003601f168201915b5050505050815260200160028201805461191f9061211d565b80601f016020809104026020016040519081016040528092919081815260200182805461194b9061211d565b80156119985780601f1061196d57610100808354040283529160200191611998565b820191906000526020600020905b81548152906001019060200180831161197b57829003601f168201915b50505050508152505081526020019060010190611850565b8280546119bc9061211d565b90600052602060002090601f0160209004810192826119de5760008555611a24565b82601f106119f757805160ff1916838001178555611a24565b82800160010185558215611a24579182015b82811115611a24578251825591602001919060010190611a09565b50611a30929150611a34565b5090565b5b80821115611a305760008155600101611a35565b8035600160a060020a0381168114611a6057600080fd5b919050565b600082601f830112611a7657600080fd5b813567ffffffffffffffff80821115611a9157611a916121b3565b604051601f8301601f19908116603f01168101908282118183101715611ab957611ab96121b3565b81604052838152866020858801011115611ad257600080fd5b836020870160208301376000602085830101528094505050505092915050565b600060608284031215611b0457600080fd5b6040516060810167ffffffffffffffff8282108183111715611b2857611b286121b3565b81604052829350843583526020850135915080821115611b4757600080fd5b611b5386838701611a65565b60208401526040850135915080821115611b6c57600080fd5b50611b7985828601611a65565b6040830152505092915050565b60008060408385031215611b9957600080fd5b611ba283611a49565b9150602083013567ffffffffffffffff811115611bbe57600080fd5b611bca85828601611a65565b9150509250929050565b600080600060608486031215611be957600080fd5b611bf284611a49565b9250602084013567ffffffffffffffff80821115611c0f57600080fd5b611c1b87838801611a65565b93506040860135915080821115611c3157600080fd5b50611c3e86828701611af2565b9150509250925092565b60008060408385031215611c5b57600080fd5b611c6483611a49565b946020939093013593505050565b600080600060608486031215611c8757600080fd5b611c9084611a49565b925060208401359150604084013567ffffffffffffffff80821115611cb457600080fd5b908501906101208288031215611cc957600080fd5b611cd16120c3565b8235815260208301356020820152604083013582811115611cf157600080fd5b611cfd89828601611a65565b604083015250606083013582811115611d1557600080fd5b611d2189828601611a65565b606083015250608083013582811115611d3957600080fd5b611d4589828601611a65565b60808301525060a083013582811115611d5d57600080fd5b611d6989828601611a65565b60a08301525060c083013582811115611d8157600080fd5b611d8d89828601611a65565b60c08301525060e083013582811115611da557600080fd5b611db189828601611a65565b60e0830152506101008084013583811115611dcb57600080fd5b611dd78a828701611a65565b8284015250508093505050509250925092565b600060208284031215611dfc57600080fd5b81518015158114611e0c57600080fd5b9392505050565b60008151808452611e2b8160208601602086016120ed565b601f01601f19169290920160200192915050565b805182526000602082015160606020850152611e5e6060850182611e13565b905060408301518482036040860152611e778282611e13565b95945050505050565b60008251611e928184602087016120ed565b9190910192915050565b600160a060020a03929092168252602082015260400190565b600060208083018184528085518083526040860191506040848202870101925083870160005b82811015611f0957603f19888603018452611ef7858351611e3f565b94509285019290850190600101611edb565b5092979650505050505050565b600060208083018184528085518083526040860191506040848202870101925083870160005b82811015611f0957603f19888603018452611f58858351611e3f565b94509285019290850190600101611f3c565b60208082528251828201819052600091906040908185019080840286018301878501865b8381101561207e57603f198984030185528151610120815185528882015189860152878201518189870152611fc582870182611e13565b91505060608083015186830382880152611fdf8382611e13565b9250505060808083015186830382880152611ffa8382611e13565b9250505060a080830151868303828801526120158382611e13565b9250505060c080830151868303828801526120308382611e13565b9250505060e0808301518683038288015261204b8382611e13565b92505050610100808301519250858203818701525061206a8183611e13565b968901969450505090860190600101611f8e565b509098975050505050505050565b60208082526017908201527f73656e646572206973206e6f742061206d65646963616c000000000000000000604082015260600190565b604051610120810167ffffffffffffffff811182821017156120e7576120e76121b3565b60405290565b60005b838110156121085781810151838201526020016120f0565b83811115612117576000848401525b50505050565b60028104600182168061213157607f821691505b6020821081141561216b577f4e487b7100000000000000000000000000000000000000000000000000000000600052602260045260246000fd5b50919050565b60006000198214156121ac577f4e487b7100000000000000000000000000000000000000000000000000000000600052601160045260246000fd5b5060010190565b7f4e487b7100000000000000000000000000000000000000000000000000000000600052604160045260246000fdfea2646970667358221220488b26094f34b28d425a235e4f20434f25b427d2aa7b7a6ed1c08074485df1ae64736f6c63430008070033",
  "immutableReferences": {},
  "source": "// SPDX-License-Identifier: GPL-3.0\r\npragma solidity ^0.8.7;\r\n\r\nimport \"./ProfileModifier.sol\";\r\n\r\nstruct Sickness {\r\n    uint256 registerDate;\r\n    uint256 initialDate;\r\n    string sicknessName;\r\n    string diagnostic;\r\n    string startWay;\r\n    string course;\r\n    string signsSymtoms;\r\n    string treatment;\r\n    string sicknessIdentifier;\r\n}\r\n\r\nstruct Exam {\r\n    uint256 date;\r\n    string examName;\r\n    string examDetail;\r\n}\r\n\r\nstruct Result {\r\n    uint256 date;\r\n    string examName;\r\n    string resultDetail;\r\n}\r\n\r\n/**\r\n * @author Blockchain Clinic Records Team\r\n * @dev inherits from ProfileModifier to use modifiers\r\n * @title CRSickness\r\n * @notice Contract to mantain and manage a Clinical Record's Sickness, Exams and Results\r\n */\r\ncontract CRSickness is ProfileModifier {\r\n    // map patient identifier (cedula) to Sickness\r\n    mapping(uint256 => Sickness[]) crSicknessesMap;\r\n    uint256 crSicknessesMapLength;\r\n\r\n    // map from uint sicknessIdentifier to Exam\r\n    mapping(string => Exam[]) crExamMap;\r\n    uint256 crExamMapLength;\r\n\r\n    // map from uint sicknessIdentifier to Exam\r\n    mapping(string => Result[]) crResultMap;\r\n    uint256 crResultMapLength;\r\n\r\n    constructor() {}\r\n\r\n    /**\r\n     * @notice retrieves Exams info by a given sickness identifier\r\n     * @param sessionContractAddress address of the deployed SessionContract instance\r\n     * @param _sicknessIdentifier identification of a sickness related with the exams\r\n     * @return Exam Exam array\r\n     */\r\n    function getExamBysicknessIdentifier(\r\n        address sessionContractAddress,\r\n        string memory _sicknessIdentifier\r\n    )\r\n        external\r\n        view\r\n        isMedical(msg.sender, sessionContractAddress)\r\n        returns (Exam[] memory)\r\n    {\r\n        return crExamMap[_sicknessIdentifier];\r\n    }\r\n\r\n    /**\r\n     * @notice register a new Exam info by a given sickness identifier\r\n     * @param sessionContractAddress address of the deployed SessionContract instance\r\n     * @param _sicknessIdentifier identification of a sickness related with the exams\r\n     * @param _exam information value with Exam struct\r\n     * @return Exam Exam array\r\n     */\r\n    function addExam(\r\n        address sessionContractAddress,\r\n        string memory _sicknessIdentifier,\r\n        Exam memory _exam\r\n    )\r\n        external\r\n        isMedical(msg.sender, sessionContractAddress)\r\n        returns (Exam[] memory)\r\n    {\r\n        crExamMap[_sicknessIdentifier].push(_exam);\r\n        crExamMapLength++;\r\n        return crExamMap[_sicknessIdentifier];\r\n    }\r\n\r\n    /**\r\n     * @notice retrieves Results info by a given sickness identifier\r\n     * @param sessionContractAddress address of the deployed SessionContract instance\r\n     * @param _sicknessIdentifier identification of a sickness related with the retults\r\n     * @return Result Result array\r\n     */\r\n    function getResultBysicknessIdentifier(\r\n        address sessionContractAddress,\r\n        string memory _sicknessIdentifier\r\n    )\r\n        external\r\n        view\r\n        isMedical(msg.sender, sessionContractAddress)\r\n        returns (Result[] memory)\r\n    {\r\n        return crResultMap[_sicknessIdentifier];\r\n    }\r\n\r\n    /**\r\n     * @notice register a new Result info by a given  sickness identifier\r\n     * @param sessionContractAddress address of the deployed SessionContract instance\r\n     * @param _sicknessIdentifier identification of a sickness related with the retults\r\n     * @param _result information value with Result struct\r\n     * @return Result Result array\r\n     */\r\n    function addResult(\r\n        address sessionContractAddress,\r\n        string memory _sicknessIdentifier,\r\n        Result memory _result\r\n    )\r\n        external\r\n        isMedical(msg.sender, sessionContractAddress)\r\n        returns (Result[] memory)\r\n    {\r\n        crResultMap[_sicknessIdentifier].push(_result);\r\n        crResultMapLength++;\r\n        return crResultMap[_sicknessIdentifier];\r\n    }\r\n\r\n    /**\r\n     * @notice retrieves the Sickness info by a given identification of patient\r\n     * @param sessionContractAddress address of the deployed SessionContract instance\r\n     * @param _identification identification of the patient\r\n     * @return SyndromesGeriatricProblems Sickness array\r\n     */\r\n    function getSicknessByIdentification(\r\n        address sessionContractAddress,\r\n        uint256 _identification\r\n    )\r\n        external\r\n        view\r\n        isMedical(msg.sender, sessionContractAddress)\r\n        returns (Sickness[] memory)\r\n    {\r\n        return crSicknessesMap[_identification];\r\n    }\r\n\r\n    /**\r\n     * @notice register a new Sickness info by a given identification of patient\r\n     * @param sessionContractAddress address of the deployed SessionContract instance\r\n     * @param _identification identification of the patient\r\n     * @param _sickness information value with Sickness struct\r\n     * @return Sickness Sickness array\r\n     */\r\n    function addSickness(\r\n        address sessionContractAddress,\r\n        uint256 _identification,\r\n        Sickness memory _sickness\r\n    )\r\n        external\r\n        isMedical(msg.sender, sessionContractAddress)\r\n        returns (Sickness[] memory)\r\n    {\r\n        crSicknessesMap[_identification].push(_sickness);\r\n        crSicknessesMapLength++;\r\n        return crSicknessesMap[_identification];\r\n    }\r\n}\r\n",
  "sourcePath": "D:\\Documents\\React\\Tesis Historias Clinicas\\contracts\\CRSickness.sol",
  "compiler": {
    "name": "solc",
    "version": "0.8.7+commit.e28d00a7.Emscripten.clang"
  },
  "schemaVersion": "3.4.10",
  "updatedAt": "2023-03-25T17:19:39.395Z",
  "networkType": "ethereum",
  "devdoc": {
    "author": "Blockchain Clinic Records Team",
    "details": "inherits from ProfileModifier to use modifiers",
    "kind": "dev",
    "methods": {
      "addExam(address,string,(uint256,string,string))": {
        "params": {
          "_exam": "information value with Exam struct",
          "_sicknessIdentifier": "identification of a sickness related with the exams",
          "sessionContractAddress": "address of the deployed SessionContract instance"
        },
        "returns": {
          "_0": "Exam Exam array"
        }
      },
      "addResult(address,string,(uint256,string,string))": {
        "params": {
          "_result": "information value with Result struct",
          "_sicknessIdentifier": "identification of a sickness related with the retults",
          "sessionContractAddress": "address of the deployed SessionContract instance"
        },
        "returns": {
          "_0": "Result Result array"
        }
      },
      "addSickness(address,uint256,(uint256,uint256,string,string,string,string,string,string,string))": {
        "params": {
          "_identification": "identification of the patient",
          "_sickness": "information value with Sickness struct",
          "sessionContractAddress": "address of the deployed SessionContract instance"
        },
        "returns": {
          "_0": "Sickness Sickness array"
        }
      },
      "getExamBysicknessIdentifier(address,string)": {
        "params": {
          "_sicknessIdentifier": "identification of a sickness related with the exams",
          "sessionContractAddress": "address of the deployed SessionContract instance"
        },
        "returns": {
          "_0": "Exam Exam array"
        }
      },
      "getResultBysicknessIdentifier(address,string)": {
        "params": {
          "_sicknessIdentifier": "identification of a sickness related with the retults",
          "sessionContractAddress": "address of the deployed SessionContract instance"
        },
        "returns": {
          "_0": "Result Result array"
        }
      },
      "getSicknessByIdentification(address,uint256)": {
        "params": {
          "_identification": "identification of the patient",
          "sessionContractAddress": "address of the deployed SessionContract instance"
        },
        "returns": {
          "_0": "SyndromesGeriatricProblems Sickness array"
        }
      }
    },
    "title": "CRSickness",
    "version": 1
  },
  "userdoc": {
    "kind": "user",
    "methods": {
      "addExam(address,string,(uint256,string,string))": {
        "notice": "register a new Exam info by a given sickness identifier"
      },
      "addResult(address,string,(uint256,string,string))": {
        "notice": "register a new Result info by a given  sickness identifier"
      },
      "addSickness(address,uint256,(uint256,uint256,string,string,string,string,string,string,string))": {
        "notice": "register a new Sickness info by a given identification of patient"
      },
      "getExamBysicknessIdentifier(address,string)": {
        "notice": "retrieves Exams info by a given sickness identifier"
      },
      "getResultBysicknessIdentifier(address,string)": {
        "notice": "retrieves Results info by a given sickness identifier"
      },
      "getSicknessByIdentification(address,uint256)": {
        "notice": "retrieves the Sickness info by a given identification of patient"
      }
    },
    "notice": "Contract to mantain and manage a Clinical Record's Sickness, Exams and Results",
    "version": 1
  }
}