{
  "contractName": "CRSickness",
  "abi": [
    {
      "inputs": [],
      "stateMutability": "nonpayable",
      "type": "constructor"
    },
    {
      "inputs": [
        {
          "internalType": "address",
          "name": "sessionContractAddress",
          "type": "address"
        },
        {
          "internalType": "string",
          "name": "_sicknessIdentifier",
          "type": "string"
        }
      ],
      "name": "getExamBysicknessIdentifier",
      "outputs": [
        {
          "components": [
            {
              "internalType": "uint256",
              "name": "date",
              "type": "uint256"
            },
            {
              "internalType": "string",
              "name": "examName",
              "type": "string"
            },
            {
              "internalType": "string",
              "name": "examDetail",
              "type": "string"
            }
          ],
          "internalType": "struct Exam[]",
          "name": "",
          "type": "tuple[]"
        }
      ],
      "stateMutability": "view",
      "type": "function",
      "constant": true
    },
    {
      "inputs": [
        {
          "internalType": "address",
          "name": "sessionContractAddress",
          "type": "address"
        },
        {
          "internalType": "string",
          "name": "_sicknessIdentifier",
          "type": "string"
        },
        {
          "components": [
            {
              "internalType": "uint256",
              "name": "date",
              "type": "uint256"
            },
            {
              "internalType": "string",
              "name": "examName",
              "type": "string"
            },
            {
              "internalType": "string",
              "name": "examDetail",
              "type": "string"
            }
          ],
          "internalType": "struct Exam",
          "name": "_exam",
          "type": "tuple"
        }
      ],
      "name": "addExam",
      "outputs": [
        {
          "components": [
            {
              "internalType": "uint256",
              "name": "date",
              "type": "uint256"
            },
            {
              "internalType": "string",
              "name": "examName",
              "type": "string"
            },
            {
              "internalType": "string",
              "name": "examDetail",
              "type": "string"
            }
          ],
          "internalType": "struct Exam[]",
          "name": "",
          "type": "tuple[]"
        }
      ],
      "stateMutability": "nonpayable",
      "type": "function"
    },
    {
      "inputs": [
        {
          "internalType": "address",
          "name": "sessionContractAddress",
          "type": "address"
        },
        {
          "internalType": "string",
          "name": "_sicknessIdentifier",
          "type": "string"
        }
      ],
      "name": "getResultBysicknessIdentifier",
      "outputs": [
        {
          "components": [
            {
              "internalType": "uint256",
              "name": "date",
              "type": "uint256"
            },
            {
              "internalType": "string",
              "name": "examName",
              "type": "string"
            },
            {
              "internalType": "string",
              "name": "resultDetail",
              "type": "string"
            }
          ],
          "internalType": "struct Result[]",
          "name": "",
          "type": "tuple[]"
        }
      ],
      "stateMutability": "view",
      "type": "function",
      "constant": true
    },
    {
      "inputs": [
        {
          "internalType": "address",
          "name": "sessionContractAddress",
          "type": "address"
        },
        {
          "internalType": "string",
          "name": "_sicknessIdentifier",
          "type": "string"
        },
        {
          "components": [
            {
              "internalType": "uint256",
              "name": "date",
              "type": "uint256"
            },
            {
              "internalType": "string",
              "name": "examName",
              "type": "string"
            },
            {
              "internalType": "string",
              "name": "resultDetail",
              "type": "string"
            }
          ],
          "internalType": "struct Result",
          "name": "_result",
          "type": "tuple"
        }
      ],
      "name": "addResult",
      "outputs": [
        {
          "components": [
            {
              "internalType": "uint256",
              "name": "date",
              "type": "uint256"
            },
            {
              "internalType": "string",
              "name": "examName",
              "type": "string"
            },
            {
              "internalType": "string",
              "name": "resultDetail",
              "type": "string"
            }
          ],
          "internalType": "struct Result[]",
          "name": "",
          "type": "tuple[]"
        }
      ],
      "stateMutability": "nonpayable",
      "type": "function"
    },
    {
      "inputs": [
        {
          "internalType": "address",
          "name": "sessionContractAddress",
          "type": "address"
        },
        {
          "internalType": "uint256",
          "name": "_identification",
          "type": "uint256"
        }
      ],
      "name": "getSicknessByIdentification",
      "outputs": [
        {
          "components": [
            {
              "internalType": "uint256",
              "name": "initialDate",
              "type": "uint256"
            },
            {
              "internalType": "string",
              "name": "sicknessName",
              "type": "string"
            },
            {
              "internalType": "string",
              "name": "diagnostic",
              "type": "string"
            },
            {
              "internalType": "string",
              "name": "startWay",
              "type": "string"
            },
            {
              "internalType": "string",
              "name": "course",
              "type": "string"
            },
            {
              "internalType": "string",
              "name": "signsSymtoms",
              "type": "string"
            },
            {
              "internalType": "string",
              "name": "treatment",
              "type": "string"
            },
            {
              "internalType": "string",
              "name": "sicknessIdentifier",
              "type": "string"
            }
          ],
          "internalType": "struct Sickness[]",
          "name": "",
          "type": "tuple[]"
        }
      ],
      "stateMutability": "view",
      "type": "function",
      "constant": true
    },
    {
      "inputs": [
        {
          "internalType": "address",
          "name": "sessionContractAddress",
          "type": "address"
        },
        {
          "internalType": "uint256",
          "name": "_identification",
          "type": "uint256"
        },
        {
          "components": [
            {
              "internalType": "uint256",
              "name": "initialDate",
              "type": "uint256"
            },
            {
              "internalType": "string",
              "name": "sicknessName",
              "type": "string"
            },
            {
              "internalType": "string",
              "name": "diagnostic",
              "type": "string"
            },
            {
              "internalType": "string",
              "name": "startWay",
              "type": "string"
            },
            {
              "internalType": "string",
              "name": "course",
              "type": "string"
            },
            {
              "internalType": "string",
              "name": "signsSymtoms",
              "type": "string"
            },
            {
              "internalType": "string",
              "name": "treatment",
              "type": "string"
            },
            {
              "internalType": "string",
              "name": "sicknessIdentifier",
              "type": "string"
            }
          ],
          "internalType": "struct Sickness",
          "name": "_sickness",
          "type": "tuple"
        }
      ],
      "name": "addSickness",
      "outputs": [
        {
          "components": [
            {
              "internalType": "uint256",
              "name": "initialDate",
              "type": "uint256"
            },
            {
              "internalType": "string",
              "name": "sicknessName",
              "type": "string"
            },
            {
              "internalType": "string",
              "name": "diagnostic",
              "type": "string"
            },
            {
              "internalType": "string",
              "name": "startWay",
              "type": "string"
            },
            {
              "internalType": "string",
              "name": "course",
              "type": "string"
            },
            {
              "internalType": "string",
              "name": "signsSymtoms",
              "type": "string"
            },
            {
              "internalType": "string",
              "name": "treatment",
              "type": "string"
            },
            {
              "internalType": "string",
              "name": "sicknessIdentifier",
              "type": "string"
            }
          ],
          "internalType": "struct Sickness[]",
          "name": "",
          "type": "tuple[]"
        }
      ],
      "stateMutability": "nonpayable",
      "type": "function"
    }
  ],
  "bytecode": "0x608060405234801561001057600080fd5b506121e0806100206000396000f3fe608060405234801561001057600080fd5b50600436106100655760e060020a60003504632b24b9b6811461006a578063a15d082514610093578063c37fa9c5146100a6578063ce76bc3e146100c6578063d0fd89ae146100e6578063d2672f17146100f9575b600080fd5b61007d610078366004611c52565b61010c565b60405161008a9190611f3e565b60405180910390f35b61007d6100a1366004611c28565b6107b3565b6100b96100b4366004611bb4565b610d50565b60405161008a9190611eea565b6100d96100d4366004611b66565b6110a5565b60405161008a9190611e89565b6100b96100f4366004611b66565b611370565b6100d9610107366004611bb4565b61163b565b60603384600160a060020a03811663c9bae3858360026040518363ffffffff1660e060020a028152600401610142929190611e70565b60206040518083038186803b15801561015a57600080fd5b505afa15801561016e573d6000803e3d6000fd5b505050506040513d601f19601f820116820180604052508101906101929190611dbe565b8061021a575060405160e060020a63c9bae385028152600160a060020a0382169063c9bae385906101ca908590600390600401611e70565b60206040518083038186803b1580156101e257600080fd5b505afa1580156101f6573d6000803e3d6000fd5b505050506040513d601f19601f8201168201806040525081019061021a9190611dbe565b6102425760405160e560020a62461bcd02815260040161023990612054565b60405180910390fd5b6000858152602081815260408220805460018181018355918452928290208751600890940201928355868201518051889493610282938501920190611990565b506040820151805161029e916002840191602090910190611990565b50606082015180516102ba916003840191602090910190611990565b50608082015180516102d6916004840191602090910190611990565b5060a082015180516102f2916005840191602090910190611990565b5060c0820151805161030e916006840191602090910190611990565b5060e0820151805161032a916007840191602090910190611990565b5050600180549150600061033d83612139565b909155505060008581526020818152604080832080548251818502810185019093528083529193909284015b828210156107a4578382906000526020600020906008020160405180610100016040529081600082015481526020016001820180546103a7906120e5565b80601f01602080910402602001604051908101604052809291908181526020018280546103d3906120e5565b80156104205780601f106103f557610100808354040283529160200191610420565b820191906000526020600020905b81548152906001019060200180831161040357829003601f168201915b50505050508152602001600282018054610439906120e5565b80601f0160208091040260200160405190810160405280929190818152602001828054610465906120e5565b80156104b25780601f10610487576101008083540402835291602001916104b2565b820191906000526020600020905b81548152906001019060200180831161049557829003601f168201915b505050505081526020016003820180546104cb906120e5565b80601f01602080910402602001604051908101604052809291908181526020018280546104f7906120e5565b80156105445780601f1061051957610100808354040283529160200191610544565b820191906000526020600020905b81548152906001019060200180831161052757829003601f168201915b5050505050815260200160048201805461055d906120e5565b80601f0160208091040260200160405190810160405280929190818152602001828054610589906120e5565b80156105d65780601f106105ab576101008083540402835291602001916105d6565b820191906000526020600020905b8154815290600101906020018083116105b957829003601f168201915b505050505081526020016005820180546105ef906120e5565b80601f016020809104026020016040519081016040528092919081815260200182805461061b906120e5565b80156106685780601f1061063d57610100808354040283529160200191610668565b820191906000526020600020905b81548152906001019060200180831161064b57829003601f168201915b50505050508152602001600682018054610681906120e5565b80601f01602080910402602001604051908101604052809291908181526020018280546106ad906120e5565b80156106fa5780601f106106cf576101008083540402835291602001916106fa565b820191906000526020600020905b8154815290600101906020018083116106dd57829003601f168201915b50505050508152602001600782018054610713906120e5565b80601f016020809104026020016040519081016040528092919081815260200182805461073f906120e5565b801561078c5780601f106107615761010080835404028352916020019161078c565b820191906000526020600020905b81548152906001019060200180831161076f57829003601f168201915b50505050508152505081526020019060010190610369565b50505050925050509392505050565b60603383600160a060020a03811663c9bae3858360026040518363ffffffff1660e060020a0281526004016107e9929190611e70565b60206040518083038186803b15801561080157600080fd5b505afa158015610815573d6000803e3d6000fd5b505050506040513d601f19601f820116820180604052508101906108399190611dbe565b806108c1575060405160e060020a63c9bae385028152600160a060020a0382169063c9bae38590610871908590600390600401611e70565b60206040518083038186803b15801561088957600080fd5b505afa15801561089d573d6000803e3d6000fd5b505050506040513d601f19601f820116820180604052508101906108c19190611dbe565b6108e05760405160e560020a62461bcd02815260040161023990612054565b60008481526020818152604080832080548251818502810185019093528083529193909284015b82821015610d4257838290600052602060002090600802016040518061010001604052908160008201548152602001600182018054610945906120e5565b80601f0160208091040260200160405190810160405280929190818152602001828054610971906120e5565b80156109be5780601f10610993576101008083540402835291602001916109be565b820191906000526020600020905b8154815290600101906020018083116109a157829003601f168201915b505050505081526020016002820180546109d7906120e5565b80601f0160208091040260200160405190810160405280929190818152602001828054610a03906120e5565b8015610a505780601f10610a2557610100808354040283529160200191610a50565b820191906000526020600020905b815481529060010190602001808311610a3357829003601f168201915b50505050508152602001600382018054610a69906120e5565b80601f0160208091040260200160405190810160405280929190818152602001828054610a95906120e5565b8015610ae25780601f10610ab757610100808354040283529160200191610ae2565b820191906000526020600020905b815481529060010190602001808311610ac557829003601f168201915b50505050508152602001600482018054610afb906120e5565b80601f0160208091040260200160405190810160405280929190818152602001828054610b27906120e5565b8015610b745780601f10610b4957610100808354040283529160200191610b74565b820191906000526020600020905b815481529060010190602001808311610b5757829003601f168201915b50505050508152602001600582018054610b8d906120e5565b80601f0160208091040260200160405190810160405280929190818152602001828054610bb9906120e5565b8015610c065780601f10610bdb57610100808354040283529160200191610c06565b820191906000526020600020905b815481529060010190602001808311610be957829003601f168201915b50505050508152602001600682018054610c1f906120e5565b80601f0160208091040260200160405190810160405280929190818152602001828054610c4b906120e5565b8015610c985780601f10610c6d57610100808354040283529160200191610c98565b820191906000526020600020905b815481529060010190602001808311610c7b57829003601f168201915b50505050508152602001600782018054610cb1906120e5565b80601f0160208091040260200160405190810160405280929190818152602001828054610cdd906120e5565b8015610d2a5780601f10610cff57610100808354040283529160200191610d2a565b820191906000526020600020905b815481529060010190602001808311610d0d57829003601f168201915b50505050508152505081526020019060010190610907565b505050509250505092915050565b60603384600160a060020a03811663c9bae3858360026040518363ffffffff1660e060020a028152600401610d86929190611e70565b60206040518083038186803b158015610d9e57600080fd5b505afa158015610db2573d6000803e3d6000fd5b505050506040513d601f19601f82011682018060405250810190610dd69190611dbe565b80610e5e575060405160e060020a63c9bae385028152600160a060020a0382169063c9bae38590610e0e908590600390600401611e70565b60206040518083038186803b158015610e2657600080fd5b505afa158015610e3a573d6000803e3d6000fd5b505050506040513d601f19601f82011682018060405250810190610e5e9190611dbe565b610e7d5760405160e560020a62461bcd02815260040161023990612054565b600485604051610e8d9190611e54565b90815260405160209181900382019020805460018082018355600092835291839020875160039092020190815586830151805188949293610ed393908501920190611990565b5060408201518051610eef916002840191602090910190611990565b50506005805491506000610f0283612139565b9190505550600485604051610f179190611e54565b9081526020016040518091039020805480602002602001604051908101604052809291908181526020016000905b828210156107a4578382906000526020600020906003020160405180606001604052908160008201548152602001600182018054610f82906120e5565b80601f0160208091040260200160405190810160405280929190818152602001828054610fae906120e5565b8015610ffb5780601f10610fd057610100808354040283529160200191610ffb565b820191906000526020600020905b815481529060010190602001808311610fde57829003601f168201915b50505050508152602001600282018054611014906120e5565b80601f0160208091040260200160405190810160405280929190818152602001828054611040906120e5565b801561108d5780601f106110625761010080835404028352916020019161108d565b820191906000526020600020905b81548152906001019060200180831161107057829003601f168201915b50505050508152505081526020019060010190610f45565b60603383600160a060020a03811663c9bae3858360026040518363ffffffff1660e060020a0281526004016110db929190611e70565b60206040518083038186803b1580156110f357600080fd5b505afa158015611107573d6000803e3d6000fd5b505050506040513d601f19601f8201168201806040525081019061112b9190611dbe565b806111b3575060405160e060020a63c9bae385028152600160a060020a0382169063c9bae38590611163908590600390600401611e70565b60206040518083038186803b15801561117b57600080fd5b505afa15801561118f573d6000803e3d6000fd5b505050506040513d601f19601f820116820180604052508101906111b39190611dbe565b6111d25760405160e560020a62461bcd02815260040161023990612054565b6002846040516111e29190611e54565b9081526020016040518091039020805480602002602001604051908101604052809291908181526020016000905b82821015610d4257838290600052602060002090600302016040518060600160405290816000820154815260200160018201805461124d906120e5565b80601f0160208091040260200160405190810160405280929190818152602001828054611279906120e5565b80156112c65780601f1061129b576101008083540402835291602001916112c6565b820191906000526020600020905b8154815290600101906020018083116112a957829003601f168201915b505050505081526020016002820180546112df906120e5565b80601f016020809104026020016040519081016040528092919081815260200182805461130b906120e5565b80156113585780601f1061132d57610100808354040283529160200191611358565b820191906000526020600020905b81548152906001019060200180831161133b57829003601f168201915b50505050508152505081526020019060010190611210565b60603383600160a060020a03811663c9bae3858360026040518363ffffffff1660e060020a0281526004016113a6929190611e70565b60206040518083038186803b1580156113be57600080fd5b505afa1580156113d2573d6000803e3d6000fd5b505050506040513d601f19601f820116820180604052508101906113f69190611dbe565b8061147e575060405160e060020a63c9bae385028152600160a060020a0382169063c9bae3859061142e908590600390600401611e70565b60206040518083038186803b15801561144657600080fd5b505afa15801561145a573d6000803e3d6000fd5b505050506040513d601f19601f8201168201806040525081019061147e9190611dbe565b61149d5760405160e560020a62461bcd02815260040161023990612054565b6004846040516114ad9190611e54565b9081526020016040518091039020805480602002602001604051908101604052809291908181526020016000905b82821015610d42578382906000526020600020906003020160405180606001604052908160008201548152602001600182018054611518906120e5565b80601f0160208091040260200160405190810160405280929190818152602001828054611544906120e5565b80156115915780601f1061156657610100808354040283529160200191611591565b820191906000526020600020905b81548152906001019060200180831161157457829003601f168201915b505050505081526020016002820180546115aa906120e5565b80601f01602080910402602001604051908101604052809291908181526020018280546115d6906120e5565b80156116235780601f106115f857610100808354040283529160200191611623565b820191906000526020600020905b81548152906001019060200180831161160657829003601f168201915b505050505081525050815260200190600101906114db565b60603384600160a060020a03811663c9bae3858360026040518363ffffffff1660e060020a028152600401611671929190611e70565b60206040518083038186803b15801561168957600080fd5b505afa15801561169d573d6000803e3d6000fd5b505050506040513d601f19601f820116820180604052508101906116c19190611dbe565b80611749575060405160e060020a63c9bae385028152600160a060020a0382169063c9bae385906116f9908590600390600401611e70565b60206040518083038186803b15801561171157600080fd5b505afa158015611725573d6000803e3d6000fd5b505050506040513d601f19601f820116820180604052508101906117499190611dbe565b6117685760405160e560020a62461bcd02815260040161023990612054565b6002856040516117789190611e54565b908152604051602091819003820190208054600180820183556000928352918390208751600390920201908155868301518051889492936117be93908501920190611990565b50604082015180516117da916002840191602090910190611990565b505060038054915060006117ed83612139565b91905055506002856040516118029190611e54565b9081526020016040518091039020805480602002602001604051908101604052809291908181526020016000905b828210156107a457838290600052602060002090600302016040518060600160405290816000820154815260200160018201805461186d906120e5565b80601f0160208091040260200160405190810160405280929190818152602001828054611899906120e5565b80156118e65780601f106118bb576101008083540402835291602001916118e6565b820191906000526020600020905b8154815290600101906020018083116118c957829003601f168201915b505050505081526020016002820180546118ff906120e5565b80601f016020809104026020016040519081016040528092919081815260200182805461192b906120e5565b80156119785780601f1061194d57610100808354040283529160200191611978565b820191906000526020600020905b81548152906001019060200180831161195b57829003601f168201915b50505050508152505081526020019060010190611830565b82805461199c906120e5565b90600052602060002090601f0160209004810192826119be5760008555611a04565b82601f106119d757805160ff1916838001178555611a04565b82800160010185558215611a04579182015b82811115611a045782518255916020019190600101906119e9565b50611a10929150611a14565b5090565b5b80821115611a105760008155600101611a15565b8035600160a060020a0381168114611a4057600080fd5b919050565b600082601f830112611a5657600080fd5b813567ffffffffffffffff80821115611a7157611a7161217b565b604051601f8301601f19908116603f01168101908282118183101715611a9957611a9961217b565b81604052838152866020858801011115611ab257600080fd5b836020870160208301376000602085830101528094505050505092915050565b600060608284031215611ae457600080fd5b6040516060810167ffffffffffffffff8282108183111715611b0857611b0861217b565b81604052829350843583526020850135915080821115611b2757600080fd5b611b3386838701611a45565b60208401526040850135915080821115611b4c57600080fd5b50611b5985828601611a45565b6040830152505092915050565b60008060408385031215611b7957600080fd5b611b8283611a29565b9150602083013567ffffffffffffffff811115611b9e57600080fd5b611baa85828601611a45565b9150509250929050565b600080600060608486031215611bc957600080fd5b611bd284611a29565b9250602084013567ffffffffffffffff80821115611bef57600080fd5b611bfb87838801611a45565b93506040860135915080821115611c1157600080fd5b50611c1e86828701611ad2565b9150509250925092565b60008060408385031215611c3b57600080fd5b611c4483611a29565b946020939093013593505050565b600080600060608486031215611c6757600080fd5b611c7084611a29565b925060208401359150604084013567ffffffffffffffff80821115611c9457600080fd5b908501906101008288031215611ca957600080fd5b611cb161208b565b82358152602083013582811115611cc757600080fd5b611cd389828601611a45565b602083015250604083013582811115611ceb57600080fd5b611cf789828601611a45565b604083015250606083013582811115611d0f57600080fd5b611d1b89828601611a45565b606083015250608083013582811115611d3357600080fd5b611d3f89828601611a45565b60808301525060a083013582811115611d5757600080fd5b611d6389828601611a45565b60a08301525060c083013582811115611d7b57600080fd5b611d8789828601611a45565b60c08301525060e083013582811115611d9f57600080fd5b611dab89828601611a45565b60e0830152508093505050509250925092565b600060208284031215611dd057600080fd5b81518015158114611de057600080fd5b9392505050565b60008151808452611dff8160208601602086016120b5565b601f01601f19169290920160200192915050565b805182526000602082015160606020850152611e326060850182611de7565b905060408301518482036040860152611e4b8282611de7565b95945050505050565b60008251611e668184602087016120b5565b9190910192915050565b600160a060020a03929092168252602082015260400190565b600060208083018184528085518083526040860191506040848202870101925083870160005b82811015611edd57603f19888603018452611ecb858351611e13565b94509285019290850190600101611eaf565b5092979650505050505050565b600060208083018184528085518083526040860191506040848202870101925083870160005b82811015611edd57603f19888603018452611f2c858351611e13565b94509285019290850190600101611f10565b60208082528251828201819052600091906040908185019080840286018301878501865b8381101561204657603f1989840301855281516101008151855288820151818a870152611f9182870182611de7565b9150508782015185820389870152611fa98282611de7565b91505060608083015186830382880152611fc38382611de7565b9250505060808083015186830382880152611fde8382611de7565b9250505060a08083015186830382880152611ff98382611de7565b9250505060c080830151868303828801526120148382611de7565b9250505060e080830151925085820381870152506120328183611de7565b968901969450505090860190600101611f62565b509098975050505050505050565b60208082526017908201527f73656e646572206973206e6f742061206d65646963616c000000000000000000604082015260600190565b604051610100810167ffffffffffffffff811182821017156120af576120af61217b565b60405290565b60005b838110156120d05781810151838201526020016120b8565b838111156120df576000848401525b50505050565b6002810460018216806120f957607f821691505b60208210811415612133577f4e487b7100000000000000000000000000000000000000000000000000000000600052602260045260246000fd5b50919050565b6000600019821415612174577f4e487b7100000000000000000000000000000000000000000000000000000000600052601160045260246000fd5b5060010190565b7f4e487b7100000000000000000000000000000000000000000000000000000000600052604160045260246000fdfea2646970667358221220215cbffa30cb988e00fed8ff99d2d9e147f99ac552c328115d95dd3f4edeff2464736f6c63430008070033",
  "immutableReferences": {},
  "source": "// SPDX-License-Identifier: GPL-3.0\r\npragma solidity ^0.8.7;\r\n\r\nimport \"./ProfileModifier.sol\";\r\n\r\nstruct Sickness {\r\n    uint256 initialDate;\r\n    string sicknessName;\r\n    string diagnostic;\r\n    string startWay;\r\n    string course;\r\n    string signsSymtoms;\r\n    string treatment;\r\n    string sicknessIdentifier;\r\n}\r\n\r\nstruct Exam {\r\n    uint256 date;\r\n    string examName;\r\n    string examDetail;\r\n}\r\n\r\nstruct Result {\r\n    uint256 date;\r\n    string examName;\r\n    string resultDetail;\r\n}\r\n\r\n/**\r\n * @author Blockchain Clinic Records Team\r\n * @dev inherits from ProfileModifier to use modifiers\r\n * @title CRSickness\r\n * @notice Contract to mantain and manage a Clinical Record's Sickness, Exams and Results\r\n */\r\ncontract CRSickness is ProfileModifier {\r\n    // map patient identifier (cedula) to Sickness\r\n    mapping(uint256 => Sickness[]) crSicknessesMap;\r\n    uint256 crSicknessesMapLength;\r\n\r\n    // map from uint sicknessIdentifier to Exam\r\n    mapping(string => Exam[]) crExamMap;\r\n    uint256 crExamMapLength;\r\n\r\n    // map from uint sicknessIdentifier to Exam\r\n    mapping(string => Result[]) crResultMap;\r\n    uint256 crResultMapLength;\r\n\r\n    constructor() {}\r\n\r\n    /**\r\n     * @notice retrieves Exams info by a given sickness identifier\r\n     * @param sessionContractAddress address of the deployed SessionContract instance\r\n     * @param _sicknessIdentifier identification of a sickness related with the exams\r\n     * @return Exam Exam array\r\n     */\r\n    function getExamBysicknessIdentifier(\r\n        address sessionContractAddress,\r\n        string memory _sicknessIdentifier\r\n    )\r\n        external\r\n        view\r\n        isMedical(msg.sender, sessionContractAddress)\r\n        returns (Exam[] memory)\r\n    {\r\n        return crExamMap[_sicknessIdentifier];\r\n    }\r\n\r\n    /**\r\n     * @notice register a new Exam info by a given sickness identifier\r\n     * @param sessionContractAddress address of the deployed SessionContract instance\r\n     * @param _sicknessIdentifier identification of a sickness related with the exams\r\n     * @param _exam information value with Exam struct\r\n     * @return Exam Exam array\r\n     */\r\n    function addExam(\r\n        address sessionContractAddress,\r\n        string memory _sicknessIdentifier,\r\n        Exam memory _exam\r\n    )\r\n        external\r\n        isMedical(msg.sender, sessionContractAddress)\r\n        returns (Exam[] memory)\r\n    {\r\n        crExamMap[_sicknessIdentifier].push(_exam);\r\n        crExamMapLength++;\r\n        return crExamMap[_sicknessIdentifier];\r\n    }\r\n\r\n    /**\r\n     * @notice retrieves Results info by a given sickness identifier\r\n     * @param sessionContractAddress address of the deployed SessionContract instance\r\n     * @param _sicknessIdentifier identification of a sickness related with the retults\r\n     * @return Result Result array\r\n     */\r\n    function getResultBysicknessIdentifier(\r\n        address sessionContractAddress,\r\n        string memory _sicknessIdentifier\r\n    )\r\n        external\r\n        view\r\n        isMedical(msg.sender, sessionContractAddress)\r\n        returns (Result[] memory)\r\n    {\r\n        return crResultMap[_sicknessIdentifier];\r\n    }\r\n\r\n    /**\r\n     * @notice register a new Result info by a given  sickness identifier\r\n     * @param sessionContractAddress address of the deployed SessionContract instance\r\n     * @param _sicknessIdentifier identification of a sickness related with the retults\r\n     * @param _result information value with Result struct\r\n     * @return Result Result array\r\n     */\r\n    function addResult(\r\n        address sessionContractAddress,\r\n        string memory _sicknessIdentifier,\r\n        Result memory _result\r\n    )\r\n        external\r\n        isMedical(msg.sender, sessionContractAddress)\r\n        returns (Result[] memory)\r\n    {\r\n        crResultMap[_sicknessIdentifier].push(_result);\r\n        crResultMapLength++;\r\n        return crResultMap[_sicknessIdentifier];\r\n    }\r\n\r\n    /**\r\n     * @notice retrieves the Sickness info by a given identification of patient\r\n     * @param sessionContractAddress address of the deployed SessionContract instance\r\n     * @param _identification identification of the patient\r\n     * @return SyndromesGeriatricProblems Sickness array\r\n     */\r\n    function getSicknessByIdentification(\r\n        address sessionContractAddress,\r\n        uint256 _identification\r\n    )\r\n        external\r\n        view\r\n        isMedical(msg.sender, sessionContractAddress)\r\n        returns (Sickness[] memory)\r\n    {\r\n        return crSicknessesMap[_identification];\r\n    }\r\n\r\n    /**\r\n     * @notice register a new Sickness info by a given identification of patient\r\n     * @param sessionContractAddress address of the deployed SessionContract instance\r\n     * @param _identification identification of the patient\r\n     * @param _sickness information value with Sickness struct\r\n     * @return Sickness Sickness array\r\n     */\r\n    function addSickness(\r\n        address sessionContractAddress,\r\n        uint256 _identification,\r\n        Sickness memory _sickness\r\n    )\r\n        external\r\n        isMedical(msg.sender, sessionContractAddress)\r\n        returns (Sickness[] memory)\r\n    {\r\n        crSicknessesMap[_identification].push(_sickness);\r\n        crSicknessesMapLength++;\r\n        return crSicknessesMap[_identification];\r\n    }\r\n}\r\n",
  "sourcePath": "D:\\Documents\\React\\Tesis Historias Clinicas\\contracts\\CRSickness.sol",
  "compiler": {
    "name": "solc",
    "version": "0.8.7+commit.e28d00a7.Emscripten.clang"
  },
  "schemaVersion": "3.4.10",
  "updatedAt": "2022-10-26T04:06:21.560Z",
  "networkType": "ethereum",
  "devdoc": {
    "author": "Blockchain Clinic Records Team",
    "details": "inherits from ProfileModifier to use modifiers",
    "kind": "dev",
    "methods": {
      "addExam(address,string,(uint256,string,string))": {
        "params": {
          "_exam": "information value with Exam struct",
          "_sicknessIdentifier": "identification of a sickness related with the exams",
          "sessionContractAddress": "address of the deployed SessionContract instance"
        },
        "returns": {
          "_0": "Exam Exam array"
        }
      },
      "addResult(address,string,(uint256,string,string))": {
        "params": {
          "_result": "information value with Result struct",
          "_sicknessIdentifier": "identification of a sickness related with the retults",
          "sessionContractAddress": "address of the deployed SessionContract instance"
        },
        "returns": {
          "_0": "Result Result array"
        }
      },
      "addSickness(address,uint256,(uint256,string,string,string,string,string,string,string))": {
        "params": {
          "_identification": "identification of the patient",
          "_sickness": "information value with Sickness struct",
          "sessionContractAddress": "address of the deployed SessionContract instance"
        },
        "returns": {
          "_0": "Sickness Sickness array"
        }
      },
      "getExamBysicknessIdentifier(address,string)": {
        "params": {
          "_sicknessIdentifier": "identification of a sickness related with the exams",
          "sessionContractAddress": "address of the deployed SessionContract instance"
        },
        "returns": {
          "_0": "Exam Exam array"
        }
      },
      "getResultBysicknessIdentifier(address,string)": {
        "params": {
          "_sicknessIdentifier": "identification of a sickness related with the retults",
          "sessionContractAddress": "address of the deployed SessionContract instance"
        },
        "returns": {
          "_0": "Result Result array"
        }
      },
      "getSicknessByIdentification(address,uint256)": {
        "params": {
          "_identification": "identification of the patient",
          "sessionContractAddress": "address of the deployed SessionContract instance"
        },
        "returns": {
          "_0": "SyndromesGeriatricProblems Sickness array"
        }
      }
    },
    "title": "CRSickness",
    "version": 1
  },
  "userdoc": {
    "kind": "user",
    "methods": {
      "addExam(address,string,(uint256,string,string))": {
        "notice": "register a new Exam info by a given sickness identifier"
      },
      "addResult(address,string,(uint256,string,string))": {
        "notice": "register a new Result info by a given  sickness identifier"
      },
      "addSickness(address,uint256,(uint256,string,string,string,string,string,string,string))": {
        "notice": "register a new Sickness info by a given identification of patient"
      },
      "getExamBysicknessIdentifier(address,string)": {
        "notice": "retrieves Exams info by a given sickness identifier"
      },
      "getResultBysicknessIdentifier(address,string)": {
        "notice": "retrieves Results info by a given sickness identifier"
      },
      "getSicknessByIdentification(address,uint256)": {
        "notice": "retrieves the Sickness info by a given identification of patient"
      }
    },
    "notice": "Contract to mantain and manage a Clinical Record's Sickness, Exams and Results",
    "version": 1
  }
}