{
  "contractName": "CRSyndromesGeriatricProblems",
  "abi": [
    {
      "inputs": [],
      "stateMutability": "nonpayable",
      "type": "constructor"
    },
    {
      "inputs": [
        {
          "internalType": "address",
          "name": "sessionContractAddress",
          "type": "address"
        },
        {
          "internalType": "uint256",
          "name": "_identification",
          "type": "uint256"
        }
      ],
      "name": "getSyndromesGeriatricProblemsByIdentification",
      "outputs": [
        {
          "components": [
            {
              "internalType": "int256",
              "name": "date",
              "type": "int256"
            },
            {
              "internalType": "string",
              "name": "delirium",
              "type": "string"
            },
            {
              "internalType": "string",
              "name": "vertigo",
              "type": "string"
            },
            {
              "internalType": "string",
              "name": "syncope",
              "type": "string"
            },
            {
              "internalType": "string",
              "name": "incontinence",
              "type": "string"
            },
            {
              "internalType": "string",
              "name": "hearingDeprivation",
              "type": "string"
            },
            {
              "internalType": "string",
              "name": "chronicProtraction",
              "type": "string"
            },
            {
              "internalType": "string",
              "name": "insomnia",
              "type": "string"
            },
            {
              "internalType": "string",
              "name": "constipation",
              "type": "string"
            },
            {
              "internalType": "string",
              "name": "falls",
              "type": "string"
            },
            {
              "internalType": "string",
              "name": "prostatism",
              "type": "string"
            },
            {
              "internalType": "string",
              "name": "chronicPain",
              "type": "string"
            }
          ],
          "internalType": "struct SyndromesGeriatricProblems[]",
          "name": "",
          "type": "tuple[]"
        }
      ],
      "stateMutability": "view",
      "type": "function",
      "constant": true
    },
    {
      "inputs": [
        {
          "internalType": "address",
          "name": "sessionContractAddress",
          "type": "address"
        },
        {
          "internalType": "uint256",
          "name": "_identification",
          "type": "uint256"
        },
        {
          "components": [
            {
              "internalType": "int256",
              "name": "date",
              "type": "int256"
            },
            {
              "internalType": "string",
              "name": "delirium",
              "type": "string"
            },
            {
              "internalType": "string",
              "name": "vertigo",
              "type": "string"
            },
            {
              "internalType": "string",
              "name": "syncope",
              "type": "string"
            },
            {
              "internalType": "string",
              "name": "incontinence",
              "type": "string"
            },
            {
              "internalType": "string",
              "name": "hearingDeprivation",
              "type": "string"
            },
            {
              "internalType": "string",
              "name": "chronicProtraction",
              "type": "string"
            },
            {
              "internalType": "string",
              "name": "insomnia",
              "type": "string"
            },
            {
              "internalType": "string",
              "name": "constipation",
              "type": "string"
            },
            {
              "internalType": "string",
              "name": "falls",
              "type": "string"
            },
            {
              "internalType": "string",
              "name": "prostatism",
              "type": "string"
            },
            {
              "internalType": "string",
              "name": "chronicPain",
              "type": "string"
            }
          ],
          "internalType": "struct SyndromesGeriatricProblems",
          "name": "_syndromesGeriatricProblems",
          "type": "tuple"
        }
      ],
      "name": "addSyndromesGeriatricProblems",
      "outputs": [
        {
          "components": [
            {
              "internalType": "int256",
              "name": "date",
              "type": "int256"
            },
            {
              "internalType": "string",
              "name": "delirium",
              "type": "string"
            },
            {
              "internalType": "string",
              "name": "vertigo",
              "type": "string"
            },
            {
              "internalType": "string",
              "name": "syncope",
              "type": "string"
            },
            {
              "internalType": "string",
              "name": "incontinence",
              "type": "string"
            },
            {
              "internalType": "string",
              "name": "hearingDeprivation",
              "type": "string"
            },
            {
              "internalType": "string",
              "name": "chronicProtraction",
              "type": "string"
            },
            {
              "internalType": "string",
              "name": "insomnia",
              "type": "string"
            },
            {
              "internalType": "string",
              "name": "constipation",
              "type": "string"
            },
            {
              "internalType": "string",
              "name": "falls",
              "type": "string"
            },
            {
              "internalType": "string",
              "name": "prostatism",
              "type": "string"
            },
            {
              "internalType": "string",
              "name": "chronicPain",
              "type": "string"
            }
          ],
          "internalType": "struct SyndromesGeriatricProblems[]",
          "name": "",
          "type": "tuple[]"
        }
      ],
      "stateMutability": "nonpayable",
      "type": "function"
    }
  ],
  "bytecode": "0x608060405234801561001057600080fd5b506118e6806100206000396000f3fe608060405234801561001057600080fd5b5060043610610052577c01000000000000000000000000000000000000000000000000000000006000350463334d273c8114610057578063df6a850c14610080575b600080fd5b61006a610065366004611403565b610093565b604051610077919061167d565b60405180910390f35b61006a61008e3660046113d9565b610a41565b60405160e060020a63c9bae385028152336004820181905260026024830152606091859073ffffffffffffffffffffffffffffffffffffffff82169063c9bae3859060440160206040518083038186803b1580156100f057600080fd5b505afa158015610104573d6000803e3d6000fd5b505050506040513d601f19601f820116820180604052508101906101289190611607565b806101be575060405160e060020a63c9bae38502815273ffffffffffffffffffffffffffffffffffffffff83811660048301526003602483015282169063c9bae3859060440160206040518083038186803b15801561018657600080fd5b505afa15801561019a573d6000803e3d6000fd5b505050506040513d601f19601f820116820180604052508101906101be9190611607565b610229576040517f08c379a000000000000000000000000000000000000000000000000000000000815260206004820152601760248201527f73656e646572206973206e6f742061206d65646963616c00000000000000000060448201526064015b60405180910390fd5b6000858152602081815260408220805460018181018355918452928290208751600c9094020192835586820151805188949361026993850192019061128a565b506040820151805161028591600284019160209091019061128a565b50606082015180516102a191600384019160209091019061128a565b50608082015180516102bd91600484019160209091019061128a565b5060a082015180516102d991600584019160209091019061128a565b5060c082015180516102f591600684019160209091019061128a565b5060e0820151805161031191600784019160209091019061128a565b50610100820151805161032e91600884019160209091019061128a565b50610120820151805161034b91600984019160209091019061128a565b50610140820151805161036891600a84019160209091019061128a565b50610160820151805161038591600b84019160209091019061128a565b50505060008581526020818152604080832080548251818502810185019093528083529193909284015b82821015610a3257838290600052602060002090600c020160405180610180016040529081600082015481526020016001820180546103ed9061182d565b80601f01602080910402602001604051908101604052809291908181526020018280546104199061182d565b80156104665780601f1061043b57610100808354040283529160200191610466565b820191906000526020600020905b81548152906001019060200180831161044957829003601f168201915b5050505050815260200160028201805461047f9061182d565b80601f01602080910402602001604051908101604052809291908181526020018280546104ab9061182d565b80156104f85780601f106104cd576101008083540402835291602001916104f8565b820191906000526020600020905b8154815290600101906020018083116104db57829003601f168201915b505050505081526020016003820180546105119061182d565b80601f016020809104026020016040519081016040528092919081815260200182805461053d9061182d565b801561058a5780601f1061055f5761010080835404028352916020019161058a565b820191906000526020600020905b81548152906001019060200180831161056d57829003601f168201915b505050505081526020016004820180546105a39061182d565b80601f01602080910402602001604051908101604052809291908181526020018280546105cf9061182d565b801561061c5780601f106105f15761010080835404028352916020019161061c565b820191906000526020600020905b8154815290600101906020018083116105ff57829003601f168201915b505050505081526020016005820180546106359061182d565b80601f01602080910402602001604051908101604052809291908181526020018280546106619061182d565b80156106ae5780601f10610683576101008083540402835291602001916106ae565b820191906000526020600020905b81548152906001019060200180831161069157829003601f168201915b505050505081526020016006820180546106c79061182d565b80601f01602080910402602001604051908101604052809291908181526020018280546106f39061182d565b80156107405780601f1061071557610100808354040283529160200191610740565b820191906000526020600020905b81548152906001019060200180831161072357829003601f168201915b505050505081526020016007820180546107599061182d565b80601f01602080910402602001604051908101604052809291908181526020018280546107859061182d565b80156107d25780601f106107a7576101008083540402835291602001916107d2565b820191906000526020600020905b8154815290600101906020018083116107b557829003601f168201915b505050505081526020016008820180546107eb9061182d565b80601f01602080910402602001604051908101604052809291908181526020018280546108179061182d565b80156108645780601f1061083957610100808354040283529160200191610864565b820191906000526020600020905b81548152906001019060200180831161084757829003601f168201915b5050505050815260200160098201805461087d9061182d565b80601f01602080910402602001604051908101604052809291908181526020018280546108a99061182d565b80156108f65780601f106108cb576101008083540402835291602001916108f6565b820191906000526020600020905b8154815290600101906020018083116108d957829003601f168201915b50505050508152602001600a8201805461090f9061182d565b80601f016020809104026020016040519081016040528092919081815260200182805461093b9061182d565b80156109885780601f1061095d57610100808354040283529160200191610988565b820191906000526020600020905b81548152906001019060200180831161096b57829003601f168201915b50505050508152602001600b820180546109a19061182d565b80601f01602080910402602001604051908101604052809291908181526020018280546109cd9061182d565b8015610a1a5780601f106109ef57610100808354040283529160200191610a1a565b820191906000526020600020905b8154815290600101906020018083116109fd57829003601f168201915b505050505081525050815260200190600101906103af565b50505050925050509392505050565b60405160e060020a63c9bae385028152336004820181905260026024830152606091849073ffffffffffffffffffffffffffffffffffffffff82169063c9bae3859060440160206040518083038186803b158015610a9e57600080fd5b505afa158015610ab2573d6000803e3d6000fd5b505050506040513d601f19601f82011682018060405250810190610ad69190611607565b80610b6c575060405160e060020a63c9bae38502815273ffffffffffffffffffffffffffffffffffffffff83811660048301526003602483015282169063c9bae3859060440160206040518083038186803b158015610b3457600080fd5b505afa158015610b48573d6000803e3d6000fd5b505050506040513d601f19601f82011682018060405250810190610b6c9190611607565b610bd2576040517f08c379a000000000000000000000000000000000000000000000000000000000815260206004820152601760248201527f73656e646572206973206e6f742061206d65646963616c0000000000000000006044820152606401610220565b60008481526020818152604080832080548251818502810185019093528083529193909284015b8282101561127c57838290600052602060002090600c02016040518061018001604052908160008201548152602001600182018054610c379061182d565b80601f0160208091040260200160405190810160405280929190818152602001828054610c639061182d565b8015610cb05780601f10610c8557610100808354040283529160200191610cb0565b820191906000526020600020905b815481529060010190602001808311610c9357829003601f168201915b50505050508152602001600282018054610cc99061182d565b80601f0160208091040260200160405190810160405280929190818152602001828054610cf59061182d565b8015610d425780601f10610d1757610100808354040283529160200191610d42565b820191906000526020600020905b815481529060010190602001808311610d2557829003601f168201915b50505050508152602001600382018054610d5b9061182d565b80601f0160208091040260200160405190810160405280929190818152602001828054610d879061182d565b8015610dd45780601f10610da957610100808354040283529160200191610dd4565b820191906000526020600020905b815481529060010190602001808311610db757829003601f168201915b50505050508152602001600482018054610ded9061182d565b80601f0160208091040260200160405190810160405280929190818152602001828054610e199061182d565b8015610e665780601f10610e3b57610100808354040283529160200191610e66565b820191906000526020600020905b815481529060010190602001808311610e4957829003601f168201915b50505050508152602001600582018054610e7f9061182d565b80601f0160208091040260200160405190810160405280929190818152602001828054610eab9061182d565b8015610ef85780601f10610ecd57610100808354040283529160200191610ef8565b820191906000526020600020905b815481529060010190602001808311610edb57829003601f168201915b50505050508152602001600682018054610f119061182d565b80601f0160208091040260200160405190810160405280929190818152602001828054610f3d9061182d565b8015610f8a5780601f10610f5f57610100808354040283529160200191610f8a565b820191906000526020600020905b815481529060010190602001808311610f6d57829003601f168201915b50505050508152602001600782018054610fa39061182d565b80601f0160208091040260200160405190810160405280929190818152602001828054610fcf9061182d565b801561101c5780601f10610ff15761010080835404028352916020019161101c565b820191906000526020600020905b815481529060010190602001808311610fff57829003601f168201915b505050505081526020016008820180546110359061182d565b80601f01602080910402602001604051908101604052809291908181526020018280546110619061182d565b80156110ae5780601f10611083576101008083540402835291602001916110ae565b820191906000526020600020905b81548152906001019060200180831161109157829003601f168201915b505050505081526020016009820180546110c79061182d565b80601f01602080910402602001604051908101604052809291908181526020018280546110f39061182d565b80156111405780601f1061111557610100808354040283529160200191611140565b820191906000526020600020905b81548152906001019060200180831161112357829003601f168201915b50505050508152602001600a820180546111599061182d565b80601f01602080910402602001604051908101604052809291908181526020018280546111859061182d565b80156111d25780601f106111a7576101008083540402835291602001916111d2565b820191906000526020600020905b8154815290600101906020018083116111b557829003601f168201915b50505050508152602001600b820180546111eb9061182d565b80601f01602080910402602001604051908101604052809291908181526020018280546112179061182d565b80156112645780601f1061123957610100808354040283529160200191611264565b820191906000526020600020905b81548152906001019060200180831161124757829003601f168201915b50505050508152505081526020019060010190610bf9565b505050509250505092915050565b8280546112969061182d565b90600052602060002090601f0160209004810192826112b857600085556112fe565b82601f106112d157805160ff19168380011785556112fe565b828001600101855582156112fe579182015b828111156112fe5782518255916020019190600101906112e3565b5061130a92915061130e565b5090565b5b8082111561130a576000815560010161130f565b803573ffffffffffffffffffffffffffffffffffffffff8116811461134757600080fd5b919050565b600082601f83011261135d57600080fd5b813567ffffffffffffffff8082111561137857611378611881565b604051601f8301601f19908116603f011681019082821181831017156113a0576113a0611881565b816040528381528660208588010111156113b957600080fd5b836020870160208301376000602085830101528094505050505092915050565b600080604083850312156113ec57600080fd5b6113f583611323565b946020939093013593505050565b60008060006060848603121561141857600080fd5b61142184611323565b925060208401359150604084013567ffffffffffffffff8082111561144557600080fd5b90850190610180828803121561145a57600080fd5b611462611803565b8235815260208301358281111561147857600080fd5b6114848982860161134c565b60208301525060408301358281111561149c57600080fd5b6114a88982860161134c565b6040830152506060830135828111156114c057600080fd5b6114cc8982860161134c565b6060830152506080830135828111156114e457600080fd5b6114f08982860161134c565b60808301525060a08301358281111561150857600080fd5b6115148982860161134c565b60a08301525060c08301358281111561152c57600080fd5b6115388982860161134c565b60c08301525060e08301358281111561155057600080fd5b61155c8982860161134c565b60e083015250610100808401358381111561157657600080fd5b6115828a82870161134c565b828401525050610120808401358381111561159c57600080fd5b6115a88a82870161134c565b82840152505061014080840135838111156115c257600080fd5b6115ce8a82870161134c565b82840152505061016080840135838111156115e857600080fd5b6115f48a82870161134c565b8284015250508093505050509250925092565b60006020828403121561161957600080fd5b8151801515811461162957600080fd5b9392505050565b6000815180845260005b818110156116565760208185018101518683018201520161163a565b81811115611668576000602083870101525b50601f01601f19169290920160200192915050565b60208082528251828201819052600091906040908185019080840286018301878501865b838110156117f557603f1989840301855281516101808151855288820151818a8701526116d082870182611630565b91505087820151858203898701526116e88282611630565b915050606080830151868303828801526117028382611630565b925050506080808301518683038288015261171d8382611630565b9250505060a080830151868303828801526117388382611630565b9250505060c080830151868303828801526117538382611630565b9250505060e0808301518683038288015261176e8382611630565b92505050610100808301518683038288015261178a8382611630565b9250505061012080830151868303828801526117a68382611630565b9250505061014080830151868303828801526117c28382611630565b9250505061016080830151925085820381870152506117e18183611630565b9689019694505050908601906001016116a1565b509098975050505050505050565b604051610180810167ffffffffffffffff8111828210171561182757611827611881565b60405290565b60028104600182168061184157607f821691505b6020821081141561187b577f4e487b7100000000000000000000000000000000000000000000000000000000600052602260045260246000fd5b50919050565b7f4e487b7100000000000000000000000000000000000000000000000000000000600052604160045260246000fdfea26469706673582212207553537604c9861be0addad00f9d775cef0e399236e333a76d4fce2195908f1a64736f6c63430008070033",
  "immutableReferences": {},
  "source": "// SPDX-License-Identifier: GPL-3.0\r\npragma solidity ^0.8.7;\r\n\r\nimport \"./ProfileModifier.sol\";\r\n\r\nstruct SyndromesGeriatricProblems {\r\n    int256 date;\r\n    string delirium;\r\n    string vertigo;\r\n    string syncope;\r\n    string incontinence;\r\n    string hearingDeprivation;\r\n    string chronicProtraction;\r\n    string insomnia;\r\n    string constipation;\r\n    string falls;\r\n    string prostatism;\r\n    string chronicPain;\r\n}\r\n\r\n/**\r\n * @author Blockchain Clinic Records Team\r\n * @dev inherits from ProfileModifier to use modifiers\r\n * @title CRSyndromesGeriatricProblems\r\n * @notice Contract to mantain and manage a Clinical Record's Syndromes ang Geriatric Problems of patients\r\n */\r\ncontract CRSyndromesGeriatricProblems is ProfileModifier {\r\n    //maps from patient identifier to SyndromesGeriatricProblems\r\n    mapping(uint256 => SyndromesGeriatricProblems[]) crSyndromesGeriatricProblemsMap;\r\n    uint256 crSyndromesGeriatricProblemsMapLength;\r\n\r\n    constructor() {}\r\n\r\n    /**\r\n     * @notice retrieves the SyndromesGeriatricProblems info by a given identification of patient\r\n     * @param sessionContractAddress address of the deployed SessionContract instance\r\n     * @param _identification identification of the patient\r\n     * @return SyndromesGeriatricProblems SyndromesGeriatricProblems array\r\n     */\r\n    function getSyndromesGeriatricProblemsByIdentification(\r\n        address sessionContractAddress,\r\n        uint256 _identification\r\n    )\r\n        external\r\n        view\r\n        isMedical(msg.sender, sessionContractAddress)\r\n        returns (SyndromesGeriatricProblems[] memory)\r\n    {\r\n        return crSyndromesGeriatricProblemsMap[_identification];\r\n    }\r\n\r\n    /**\r\n     * @notice register a new SyndromesGeriatricProblems info by a given identification of patient\r\n     * @param sessionContractAddress address of the deployed SessionContract instance\r\n     * @param _identification identification of the patient\r\n     * @param _syndromesGeriatricProblems information value with SyndromesGeriatricProblems struct\r\n     * @return SyndromesGeriatricProblems SyndromesGeriatricProblems array\r\n     */\r\n    function addSyndromesGeriatricProblems(\r\n        address sessionContractAddress,\r\n        uint256 _identification,\r\n        SyndromesGeriatricProblems memory _syndromesGeriatricProblems\r\n    )\r\n        external\r\n        isMedical(msg.sender, sessionContractAddress)\r\n        returns (SyndromesGeriatricProblems[] memory)\r\n    {\r\n        crSyndromesGeriatricProblemsMap[_identification].push(\r\n            _syndromesGeriatricProblems\r\n        );\r\n        crSyndromesGeriatricProblemsMapLength;\r\n        return crSyndromesGeriatricProblemsMap[_identification];\r\n    }\r\n}\r\n",
  "sourcePath": "D:\\Tesis Historia Geriatrica\\Blockchain-ClinicRecords\\contracts\\CRSyndromesGeriatricProblems.sol",
  "compiler": {
    "name": "solc",
    "version": "0.8.7+commit.e28d00a7.Emscripten.clang"
  },
  "schemaVersion": "3.4.10",
  "updatedAt": "2023-03-26T15:45:59.564Z",
  "networkType": "ethereum",
  "devdoc": {
    "author": "Blockchain Clinic Records Team",
    "details": "inherits from ProfileModifier to use modifiers",
    "kind": "dev",
    "methods": {
      "addSyndromesGeriatricProblems(address,uint256,(int256,string,string,string,string,string,string,string,string,string,string,string))": {
        "params": {
          "_identification": "identification of the patient",
          "_syndromesGeriatricProblems": "information value with SyndromesGeriatricProblems struct",
          "sessionContractAddress": "address of the deployed SessionContract instance"
        },
        "returns": {
          "_0": "SyndromesGeriatricProblems SyndromesGeriatricProblems array"
        }
      },
      "getSyndromesGeriatricProblemsByIdentification(address,uint256)": {
        "params": {
          "_identification": "identification of the patient",
          "sessionContractAddress": "address of the deployed SessionContract instance"
        },
        "returns": {
          "_0": "SyndromesGeriatricProblems SyndromesGeriatricProblems array"
        }
      }
    },
    "title": "CRSyndromesGeriatricProblems",
    "version": 1
  },
  "userdoc": {
    "kind": "user",
    "methods": {
      "addSyndromesGeriatricProblems(address,uint256,(int256,string,string,string,string,string,string,string,string,string,string,string))": {
        "notice": "register a new SyndromesGeriatricProblems info by a given identification of patient"
      },
      "getSyndromesGeriatricProblemsByIdentification(address,uint256)": {
        "notice": "retrieves the SyndromesGeriatricProblems info by a given identification of patient"
      }
    },
    "notice": "Contract to mantain and manage a Clinical Record's Syndromes ang Geriatric Problems of patients",
    "version": 1
  }
}