{
  "contractName": "SessionContract",
  "abi": [
    {
      "inputs": [],
      "stateMutability": "nonpayable",
      "type": "constructor"
    },
    {
      "inputs": [
        {
          "internalType": "address",
          "name": "_sender",
          "type": "address"
        },
        {
          "internalType": "uint256",
          "name": "_roleType",
          "type": "uint256"
        }
      ],
      "name": "validateUser",
      "outputs": [
        {
          "internalType": "bool",
          "name": "",
          "type": "bool"
        }
      ],
      "stateMutability": "view",
      "type": "function",
      "constant": true
    },
    {
      "inputs": [
        {
          "internalType": "address",
          "name": "_userAddress",
          "type": "address"
        },
        {
          "internalType": "uint256",
          "name": "_id",
          "type": "uint256"
        },
        {
          "internalType": "string",
          "name": "_username",
          "type": "string"
        },
        {
          "internalType": "string",
          "name": "_password",
          "type": "string"
        },
        {
          "internalType": "uint256",
          "name": "_roleType",
          "type": "uint256"
        }
      ],
      "name": "addUser",
      "outputs": [],
      "stateMutability": "nonpayable",
      "type": "function"
    },
    {
      "inputs": [
        {
          "internalType": "address",
          "name": "_userAddress",
          "type": "address"
        }
      ],
      "name": "disableUser",
      "outputs": [],
      "stateMutability": "nonpayable",
      "type": "function"
    },
    {
      "inputs": [
        {
          "internalType": "address",
          "name": "_userAddress",
          "type": "address"
        }
      ],
      "name": "enableUser",
      "outputs": [],
      "stateMutability": "nonpayable",
      "type": "function"
    },
    {
      "inputs": [],
      "name": "getUsers",
      "outputs": [
        {
          "components": [
            {
              "internalType": "address",
              "name": "userAddress",
              "type": "address"
            },
            {
              "internalType": "uint256",
              "name": "id",
              "type": "uint256"
            },
            {
              "internalType": "string",
              "name": "username",
              "type": "string"
            },
            {
              "internalType": "bytes32",
              "name": "password",
              "type": "bytes32"
            },
            {
              "internalType": "bool",
              "name": "state",
              "type": "bool"
            }
          ],
          "internalType": "struct User[]",
          "name": "",
          "type": "tuple[]"
        }
      ],
      "stateMutability": "view",
      "type": "function",
      "constant": true
    },
    {
      "inputs": [],
      "name": "getModules",
      "outputs": [
        {
          "components": [
            {
              "internalType": "uint256",
              "name": "id",
              "type": "uint256"
            },
            {
              "internalType": "string",
              "name": "name",
              "type": "string"
            }
          ],
          "internalType": "struct Module[]",
          "name": "",
          "type": "tuple[]"
        }
      ],
      "stateMutability": "view",
      "type": "function",
      "constant": true
    },
    {
      "inputs": [],
      "name": "getRoles",
      "outputs": [
        {
          "components": [
            {
              "internalType": "uint256",
              "name": "id",
              "type": "uint256"
            },
            {
              "internalType": "string",
              "name": "name",
              "type": "string"
            },
            {
              "internalType": "string",
              "name": "description",
              "type": "string"
            }
          ],
          "internalType": "struct Role[]",
          "name": "",
          "type": "tuple[]"
        }
      ],
      "stateMutability": "view",
      "type": "function",
      "constant": true
    },
    {
      "inputs": [],
      "name": "getUserRoles",
      "outputs": [
        {
          "components": [
            {
              "internalType": "uint256",
              "name": "userId",
              "type": "uint256"
            },
            {
              "internalType": "uint256",
              "name": "roleId",
              "type": "uint256"
            }
          ],
          "internalType": "struct UserRole[]",
          "name": "",
          "type": "tuple[]"
        }
      ],
      "stateMutability": "view",
      "type": "function",
      "constant": true
    },
    {
      "inputs": [],
      "name": "getRoleModules",
      "outputs": [
        {
          "components": [
            {
              "internalType": "uint256",
              "name": "roleId",
              "type": "uint256"
            },
            {
              "components": [
                {
                  "internalType": "uint256",
                  "name": "moduleId",
                  "type": "uint256"
                },
                {
                  "components": [
                    {
                      "internalType": "bool",
                      "name": "create",
                      "type": "bool"
                    },
                    {
                      "internalType": "bool",
                      "name": "modify",
                      "type": "bool"
                    },
                    {
                      "internalType": "bool",
                      "name": "visualize",
                      "type": "bool"
                    }
                  ],
                  "internalType": "struct Permisions",
                  "name": "permisions",
                  "type": "tuple"
                }
              ],
              "internalType": "struct ModulePermissions[]",
              "name": "modulePermissions",
              "type": "tuple[]"
            }
          ],
          "internalType": "struct RoleModules[]",
          "name": "",
          "type": "tuple[]"
        }
      ],
      "stateMutability": "view",
      "type": "function",
      "constant": true
    },
    {
      "inputs": [
        {
          "internalType": "string",
          "name": "_username",
          "type": "string"
        },
        {
          "internalType": "string",
          "name": "_password",
          "type": "string"
        }
      ],
      "name": "login",
      "outputs": [
        {
          "components": [
            {
              "internalType": "uint256",
              "name": "userId",
              "type": "uint256"
            },
            {
              "internalType": "string",
              "name": "username",
              "type": "string"
            },
            {
              "internalType": "bool",
              "name": "state",
              "type": "bool"
            },
            {
              "internalType": "uint256",
              "name": "roleId",
              "type": "uint256"
            }
          ],
          "internalType": "struct Session",
          "name": "",
          "type": "tuple"
        }
      ],
      "stateMutability": "view",
      "type": "function",
      "constant": true
    }
  ],
  "bytecode": "0x60806040523480156200001157600080fd5b50604080518082018252600181528151808301835260088082527f5573756172696f73000000000000000000000000000000000000000000000000602080840191909152808401929092528351808501855260028152845180860186528281527f446f63746f7265730000000000000000000000000000000000000000000000008185015281840152845180860186526003815285518087018752600a8082527f456e6665726d6572617300000000000000000000000000000000000000000000828701528286019190915286518088018852600481528751808901895260098082527f50616369656e746573000000000000000000000000000000000000000000000082890152828801919091528851808a018a52600581528951808b018b52601681527f496e666f726d6163696f6e206465204d656469636f7300000000000000000000818a0152818901528951808b018b52600681528a51808c018c52601581527f4578616d656e6573202d20526573756c7461646f730000000000000000000000818b0152818a01528a51808c018c52600781528b51808d018d52600c81527f456e6665726d6564616465730000000000000000000000000000000000000000818c0152818b01528b51808d018d529889528b51808d018d5260148082527f46756e63696f6e65732042696f6c6f6769636173000000000000000000000000828d01528a8c01919091528c51808e018e529485528c51808e018e529081527f486973746f7269616c205061746f6c6f6769636f000000000000000000000000818c0152848b01528b51808d018d529586528b51808d018d52600d81527f4578616d656e2046697369636f00000000000000000000000000000000000000818c0152998601999099528a51808c01909b52989995989497929690959293909260009080600b815260200160405180606001604052806021815260200162003475602191399052604080518082018252600c815281518083018352601081527f526567697374726f20436c696e69636f00000000000000000000000000000000602082810191909152820152815180830190925291925060009080600d81526020016040518060400160405280600b81526020017f436f6d656e746172696f73000000000000000000000000000000000000000000815250815250905060008d9080600181540180825580915050600190039060005260206000209060020201600090919091909150600082015181600001556020820151816001019080519060200190620003c492919062001ad0565b50505060008c90806001815401808255809150506001900390600052602060002090600202016000909190919091506000820151816000015560208201518160010190805190602001906200041b92919062001ad0565b50505060008b90806001815401808255809150506001900390600052602060002090600202016000909190919091506000820151816000015560208201518160010190805190602001906200047292919062001ad0565b5050600080546001810182559080528b5160029091026000805160206200340e83398151915281019182556020808e015180518f9550620004ca936000805160206200342e8339815191520192919091019062001ad0565b5050600080546001810182559080528a5160029091026000805160206200340e83398151915281019182556020808d015180518e955062000522936000805160206200342e8339815191520192919091019062001ad0565b505060008054600181018255908052895160029091026000805160206200340e83398151915281019182556020808c015180518d95506200057a936000805160206200342e8339815191520192919091019062001ad0565b505060008054600181018255908052885160029091026000805160206200340e83398151915281019182556020808b015180518c9550620005d2936000805160206200342e8339815191520192919091019062001ad0565b505060008054600181018255908052875160029091026000805160206200340e83398151915281019182556020808a015180518b95506200062a936000805160206200342e8339815191520192919091019062001ad0565b505060008054600181018255908052865160029091026000805160206200340e833981519152810191825560208089015180518a955062000682936000805160206200342e8339815191520192919091019062001ad0565b505060008054600181018255908052855160029091026000805160206200340e83398151915281019182556020808801518051899550620006da936000805160206200342e8339815191520192919091019062001ad0565b505060008054600181018255908052845160029091026000805160206200340e8339815191528101918255602080870151805188955062000732936000805160206200342e8339815191520192919091019062001ad0565b505060008054600181018255908052835160029091026000805160206200340e833981519152810191825560208086015180518795506200078a936000805160206200342e8339815191520192919091019062001ad0565b505060008054600181018255908052825160029091026000805160206200340e83398151915281019182556020808501518051869550620007e2936000805160206200342e8339815191520192919091019062001ad0565b505060408051606080820183526001825282518084018452600d81527f41646d696e6973747261646f720000000000000000000000000000000000000060208083019190915280840191909152835180850185528181527f5065726d69736f7320706172612067657374696f6e6172207573756172696f738183015283850152835180830185526002815284518086018652600681527f446f63746f7200000000000000000000000000000000000000000000000000008184015281830152845192830185526027808452939550600094909390840192916200344e90830139905260408051606081018252600380825282518084018452600981527f456e6665726d657261000000000000000000000000000000000000000000000060208083019190915280840191909152835180850185528181527f5573756172696f20617369676e61646f207061726120656e6665726d657261738183015293830193909352600180548082018255600091909152865191026000805160206200349683398151915281019182558684015180519596509294879492936200099d93600080516020620034b683398151915290930192019062001ad0565b5060408201518051620009bb91600284019160209091019062001ad0565b505060018054808201825560009190915283516003909102600080516020620034968339815191528101918255602080860151805187955062000a1593600080516020620034b68339815191520192919091019062001ad0565b506040820151805162000a3391600284019160209091019062001ad0565b505060018054808201825560009190915282516003909102600080516020620034968339815191528101918255602080850151805186955062000a8d93600080516020620034b68339815191520192919091019062001ad0565b506040820151805162000aab91600284019160209091019062001ad0565b50508351600090815260036020526040908190208151808301909252915080600181526040805160608101825260018082526020828101829052828401829052938401919091528454808201865560009586528386208551600292830290910190815594840151805195909201805483860151938501511515620100000262ff0000199415156101000261ff00199815159890981661ffff19909216919091179690961792909216949094179055865184526003909152918290208251808401909352919081908152604080516060810182526001808252602082810182905282840182905293840191909152845480820186556000958652838620855160029092020190815593830151805194909101805482850151928401511515620100000262ff0000199315156101000261ff00199715159790971661ffff1990921691909117959095179190911693909317909255855183526003908190529181902081518083019092529181908152604080516060810182526001808252602082810182905282840182905293840191909152845480820186556000958652838620855160029092020190815593830151805194909101805482850151928401511515620100000262ff0000199315156101000261ff00199715159790971661ffff19909216919091179590951791909116939093179092558551835260039052908190208151808301909252908060058152604080516060810182526001808252602082810182905282840182905293840191909152845480820186556000958652838620855160029092020190815593830151805194909101805482850151928401511515620100000262ff0000199315156101000261ff00199715159790971661ffff19909216919091179590951791909116939093179092558451835260039052908190208151808301909252908060048152604080516060810182526001808252602082810182905282840182905293840191909152845480820186556000958652838620855160029092020190815593830151805194909101805482850151928401511515620100000262ff0000199315156101000261ff00199715159790971661ffff19909216919091179590951791909116939093179092558351835260039052908190208151808301909252908060048152604080516060810182526001808252602082810182905282840182905293840191909152845480820186556000958652838620855160029092020190815593830151805194909101805482850151928401511515620100000262ff0000199315156101000261ff00199715159790971661ffff19909216919091179590951791909116939093179092558451835260039052908190208151808301909252908060068152604080516060810182526001808252602082810182905282840182905293840191909152845480820186556000958652838620855160029092020190815593830151805194909101805482850151928401511515620100000262ff0000199315156101000261ff00199715159790971661ffff19909216919091179590951791909116939093179092558351835260039052908190208151808301909252908060068152604080516060810182526000808252602082810182905260018385018190529481019290925285548085018755958152818120855160029097020195865593810151805195909301805484830151948401511515620100000262ff0000199515156101000261ff00199815159890981661ffff19909216919091179690961793909316949094179091558451825260039092528190208151808301909252908060078152604080516060810182526001808252602082810182905282840182905293840191909152845480820186556000958652838620855160029092020190815593830151805194909101805482850151928401511515620100000262ff0000199315156101000261ff00199715159790971661ffff19909216919091179590951791909116939093179092558351835260039052908190208151808301909252908060078152604080516060810182526000808252602082810182905260018385018190529481019290925285548085018755958152818120855160029097020195865593810151805195909301805484830151948401511515620100000262ff0000199515156101000261ff00199815159890981661ffff19909216919091179690961793909316949094179091558451825260039092528190208151808301909252908060088152604080516060810182526001808252602082810182905282840182905293840191909152845480820186556000958652838620855160029092020190815593830151805194909101805482850151928401511515620100000262ff0000199315156101000261ff00199715159790971661ffff19909216919091179590951791909116939093179092558351835260039052908190208151808301909252908060088152604080516060810182526001808252602082810182905282840182905293840191909152845480820186556000958652838620855160029092020190815593830151805194909101805482850151928401511515620100000262ff0000199315156101000261ff00199715159790971661ffff19909216919091179590951791909116939093179092558451835260039052908190208151808301909252908060098152604080516060810182526001808252602082810182905282840182905293840191909152845480820186556000958652838620855160029092020190815593830151805194909101805482850151928401511515620100000262ff0000199315156101000261ff00199715159790971661ffff19909216919091179590951791909116939093179092558351835260039052908190208151808301909252908060098152604080516060810182526000808252602082810182905260018385018190529481019290925285548085018755958152818120855160029097020195865593810151805195909301805484830151948401511515620100000262ff0000199515156101000261ff00199815159890981661ffff199092169190911796909617939093169490941790915584518252600390925281902081518083019092529080600a8152604080516060810182526001808252602082810182905282840182905293840191909152845480820186556000958652838620855160029092020190815593830151805194909101805482850151928401511515620100000262ff0000199315156101000261ff00199715159790971661ffff199092169190911795909517919091169390931790925583518352600390529081902081518083019092529080600a8152604080516060810182526001808252602082810182905282840182905293840191909152845480820186556000958652838620855160029092020190815593830151805194909101805482850151928401511515620100000262ff0000199315156101000261ff00199715159790971661ffff199092169190911795909517919091169390931790925584518352600390529081902081518083019092529080600b8152604080516060810182526001808252602082810182905282840182905293840191909152845480820186556000958652838620855160029092020190815593830151805194909101805482850151928401511515620100000262ff0000199315156101000261ff00199715159790971661ffff199092169190911795909517919091169390931790925583518352600390529081902081518083019092529080600b8152604080516060810182526000808252602082810182905260018385018190529481019290925285548085018755958152818120855160029097020195865593810151805195909301805484830151948401511515620100000262ff0000199515156101000261ff00199815159890981661ffff199092169190911796909617939093169490941790915584518252600390925281902081518083019092529080600c8152604080516060810182526001808252602082810182905282840182905293840191909152845480820186556000958652838620855160029092020190815593830151805194909101805482850151928401511515620100000262ff0000199315156101000261ff00199715159790971661ffff199092169190911795909517919091169390931790925583518352600390529081902081518083019092529080600c8152604080516060810182526001808252602082810182905282840182905293840191909152845480820186556000958652838620855160029092020190815593830151805194909101805482850151928401511515620100000262ff0000199315156101000261ff00199715159790971661ffff199092169190911795909517919091169390931790925584518352600390529081902081518083019092529080600d8152604080516060810182526001808252602082810182905282840182905293840191909152845480820186556000958652838620855160029092020190815593830151805194909101805482850151928401511515620100000262ff0000199315156101000261ff00199715159790971661ffff199092169190911795909517919091169390931790925583518352600390529081902081518083019092529080600d815260408051606080820183526001808352602080840182905283850182905294850192909252855480830187556000968752848720865160029283029091019081559585015180519684018054828801519287015161ffff1990911698151561ff00191698909817610100921515929092029190911762ff00001916620100009715159790970296909617909555825160a081018452734ecbd9540f79a38f58d79336d16ec59a0da247e881528085018381528451808601865260058082527f61646d696e000000000000000000000000000000000000000000000000000000828901529583019081527ff23ec0bb4210edd5cba85afd05127efcd2fc6a781bfed49188da1081670b22d89383019390935260808201849052865493840187559590965285517f405787fa12a823e0f2b7631cc41b3ba8828b3321ca811111fa75cd3aa3bb5ace929093029182018054600160a060020a031916600160a060020a0390941693909317835593517f405787fa12a823e0f2b7631cc41b3ba8828b3321ca811111fa75cd3aa3bb5acf82015592518051919362001a0e937f405787fa12a823e0f2b7631cc41b3ba8828b3321ca811111fa75cd3aa3bb5ad09091019291019062001ad0565b50606082015160038201556080909101516004918201805460ff1916911515919091179055734ecbd9540f79a38f58d79336d16ec59a0da247e8600090815260209190915260017fac6c476cf3a9286121cff1791a0219177d0c946300602faa23412088f4f7970e819055600280549192600592909190829062001a965762001a9662001bcc565b9060005260206000209060050201600101548152602001908152602001600020819055505050505050505050505050505050505062001bfb565b82805462001ade9062001b76565b90600052602060002090601f01602090048101928262001b02576000855562001b4d565b82601f1062001b1d57805160ff191683800117855562001b4d565b8280016001018555821562001b4d579182015b8281111562001b4d57825182559160200191906001019062001b30565b5062001b5b92915062001b5f565b5090565b5b8082111562001b5b576000815560010162001b60565b60028104600182168062001b8b57607f821691505b6020821081141562001bc6577f4e487b7100000000000000000000000000000000000000000000000000000000600052602260045260246000fd5b50919050565b7f4e487b7100000000000000000000000000000000000000000000000000000000600052603260045260246000fd5b6118038062001c0b6000396000f3fe608060405234801561001057600080fd5b50600436106100ba576000357c010000000000000000000000000000000000000000000000000000000090048063b2494df311610083578063b2494df31461013c578063c9bae38514610151578063e588e6bc14610174578063ee6649a114610187578063fb494de31461019a57600080fd5b8062ce8e3e146100bf57806358467dbc146100dd5780636ac0be52146100fd57806371061398146101125780639caea44214610127575b600080fd5b6100c76101af565b6040516100d491906115da565b60405180910390f35b6100f06100eb366004611292565b61030f565b6040516100d491906116a0565b610105610763565b6040516100d4919061158b565b61011a6108bc565b6040516100d4919061150b565b61013a61013536600461120c565b610a40565b005b610144610bbb565b6040516100d491906113dd565b61016461015f3660046111e2565b610cad565b60405190151581526020016100d4565b61013a6101823660046111c0565b610d73565b61013a6101953660046111c0565b610df7565b6101a2610e45565b6040516100d4919061144e565b60606101b9610fc4565b6101e15760405160e560020a62461bcd0281526004016101d890611669565b60405180910390fd5b6002805480602002602001604051908101604052809291908181526020016000905b828210156103065760008481526020908190206040805160a081018252600586029092018054600160a060020a03168352600181015493830193909352600283018054929392918401916102569061172f565b80601f01602080910402602001604051908101604052809291908181526020018280546102829061172f565b80156102cf5780601f106102a4576101008083540402835291602001916102cf565b820191906000526020600020905b8154815290600101906020018083116102b257829003601f168201915b5050509183525050600382015460208083019190915260049092015460ff1615156040909101529082526001929092019101610203565b50505050905090565b61033c60405180608001604052806000815260200160608152602001600015158152602001600081525090565b6000805b6002548110156106dd576002818154811061035d5761035d61179b565b906000526020600020906005020160020160405160200161037e919061133e565b60405160208183030381529060405280519060200120856040516020016103a59190611322565b604051602081830303815290604052805190602001201480156104115750600281815481106103d6576103d661179b565b906000526020600020906005020160030154846040516020016103f99190611322565b60405160208183030381529060405280519060200120145b156106cb576001915060006002828154811061042f5761042f61179b565b90600052602060002090600502016040518060a00160405290816000820160009054906101000a9004600160a060020a0316600160a060020a0316600160a060020a03168152602001600182015481526020016002820180546104919061172f565b80601f01602080910402602001604051908101604052809291908181526020018280546104bd9061172f565b801561050a5780601f106104df5761010080835404028352916020019161050a565b820191906000526020600020905b8154815290600101906020018083116104ed57829003601f168201915b50505091835250506003820154602082015260049091015460ff16151560409091015260808101519091506105845760405160e560020a62461bcd02815260206004820152600d60248201527f44697361626c656420757365720000000000000000000000000000000000000060448201526064016101d8565b6000816020015190506040518060800160405280828152602001600285815481106105b1576105b161179b565b906000526020600020906005020160020180546105cd9061172f565b80601f01602080910402602001604051908101604052809291908181526020018280546105f99061172f565b80156106465780601f1061061b57610100808354040283529160200191610646565b820191906000526020600020905b81548152906001019060200180831161062957829003601f168201915b50505050508152602001600285815481106106635761066361179b565b600091825260208083206005928302016004015460ff161515845285835290815260409091205491019060019061069b9082906116e8565b815481106106ab576106ab61179b565b90600052602060002090600302016000015481525094505050505061075d565b806106d581611767565b915050610340565b508061072e5760405160e560020a62461bcd02815260206004820152601c60248201527f496e76616c696420757365726e616d65206f722070617373776f72640000000060448201526064016101d8565b505060408051608081018252600080825282516020818101855282825283015291810182905260608101919091525b92915050565b606061076d610fc4565b61078c5760405160e560020a62461bcd0281526004016101d890611669565b60025460009067ffffffffffffffff8111156107aa576107aa6117b4565b6040519080825280602002602001820160405280156107ef57816020015b60408051808201909152600080825260208201528152602001906001900390816107c85790505b50905060005b6002548110156108b6576000600282815481106108145761081461179b565b906000526020600020906005020160010154905060006040518060400160405280838152602001600180600560008781526020019081526020016000205461085c91906116e8565b8154811061086c5761086c61179b565b9060005260206000209060030201600001548152509050808484815181106108965761089661179b565b6020026020010181905250505080806108ae90611767565b9150506107f5565b50919050565b60606001805480602002602001604051908101604052809291908181526020016000905b8282101561030657838290600052602060002090600302016040518060600160405290816000820154815260200160018201805461091d9061172f565b80601f01602080910402602001604051908101604052809291908181526020018280546109499061172f565b80156109965780601f1061096b57610100808354040283529160200191610996565b820191906000526020600020905b81548152906001019060200180831161097957829003601f168201915b505050505081526020016002820180546109af9061172f565b80601f01602080910402602001604051908101604052809291908181526020018280546109db9061172f565b8015610a285780601f106109fd57610100808354040283529160200191610a28565b820191906000526020600020905b815481529060010190602001808311610a0b57829003601f168201915b505050505081525050815260200190600101906108e0565b610a48610fc4565b610a675760405160e560020a62461bcd0281526004016101d890611669565b60026040518060a0016040528087600160a060020a0316815260200186815260200185815260200184604051602001610aa09190611322565b60408051808303601f19018152918152815160209283012083526001928201839052845480840186556000958652948290208451600590960201805473ffffffffffffffffffffffffffffffffffffffff1916600160a060020a039096169590951785558382015192850192909255908201518051929392610b28926002850192019061107e565b50606082015160038201556080909101516004918201805460ff191691151591909117905560028054600160a060020a03881660009081526020939093526040832081905583926005929091610b80906001906116e8565b81548110610b9057610b9061179b565b9060005260206000209060050201600101548152602001908152602001600020819055505050505050565b60606000805480602002602001604051908101604052809291908181526020016000905b82821015610306578382906000526020600020906002020160405180604001604052908160008201548152602001600182018054610c1c9061172f565b80601f0160208091040260200160405190810160405280929190818152602001828054610c489061172f565b8015610c955780601f10610c6a57610100808354040283529160200191610c95565b820191906000526020600020905b815481529060010190602001808311610c7857829003601f168201915b50505050508152505081526020019060010190610bdf565b600160a060020a0382166000908152600460205260408120548015610d695760006002610cdb6001846116e8565b81548110610ceb57610ceb61179b565b906000526020600020906005020160010154905060006001806005600085815260200190815260200160002054610d2291906116e8565b81548110610d3257610d3261179b565b9060005260206000209060030201600001549050600081118015610d5557508481145b15610d66576001935050505061075d565b50505b5060009392505050565b610d7b610fc4565b610d9a5760405160e560020a62461bcd0281526004016101d890611669565b600160a060020a03811660009081526004602052604090205460016002610dc182846116e8565b81548110610dd157610dd161179b565b60009182526020909120600590910201600401805460ff19169115159190911790555050565b610dff610fc4565b610e1e5760405160e560020a62461bcd0281526004016101d890611669565b600160a060020a038116600090815260046020526040812054906002610dc16001846116e8565b60015460609060009067ffffffffffffffff811115610e6657610e666117b4565b604051908082528060200260200182016040528015610eac57816020015b604080518082019091526000815260606020820152815260200190600190039081610e845790505b50905060005b6001548110156108b657600060018281548110610ed157610ed161179b565b600091825260208083206003928302015460408051808201825282815282865293835280852080548251818602810186019093528083529296508484019391929091869084015b82821015610f885760008481526020908190206040805180820182526002860290920180548352815160608101835260019182015460ff80821615158352610100820481161515838801526201000090910416151592810192909252828401919091529083529092019101610f18565b50505050815250905080848481518110610fa457610fa461179b565b602002602001018190525050508080610fbc90611767565b915050610eb2565b3360009081526004602052604081205480156110765760006002610fe96001846116e8565b81548110610ff957610ff961179b565b90600052602060002090600502016001015490506000600180600560008581526020019081526020016000205461103091906116e8565b815481106110405761104061179b565b90600052602060002090600302016000015490506000811180156110645750600181145b15611073576001935050505090565b50505b600091505090565b82805461108a9061172f565b90600052602060002090601f0160209004810192826110ac57600085556110f2565b82601f106110c557805160ff19168380011785556110f2565b828001600101855582156110f2579182015b828111156110f25782518255916020019190600101906110d7565b506110fe929150611102565b5090565b5b808211156110fe5760008155600101611103565b8035600160a060020a038116811461112e57600080fd5b919050565b600082601f83011261114457600080fd5b813567ffffffffffffffff8082111561115f5761115f6117b4565b604051601f8301601f19908116603f01168101908282118183101715611187576111876117b4565b816040528381528660208588010111156111a057600080fd5b836020870160208301376000602085830101528094505050505092915050565b6000602082840312156111d257600080fd5b6111db82611117565b9392505050565b600080604083850312156111f557600080fd5b6111fe83611117565b946020939093013593505050565b600080600080600060a0868803121561122457600080fd5b61122d86611117565b945060208601359350604086013567ffffffffffffffff8082111561125157600080fd5b61125d89838a01611133565b9450606088013591508082111561127357600080fd5b5061128088828901611133565b95989497509295608001359392505050565b600080604083850312156112a557600080fd5b823567ffffffffffffffff808211156112bd57600080fd5b6112c986838701611133565b935060208501359150808211156112df57600080fd5b506112ec85828601611133565b9150509250929050565b6000815180845261130e8160208601602086016116ff565b601f01601f19169290920160200192915050565b600082516113348184602087016116ff565b9190910192915050565b815460009081906002810460018083168061135a57607f831692505b602080841082141561137d5760e060020a634e487b710286526022600452602486fd5b81801561139157600181146113a2576113cf565b60ff198616895284890196506113cf565b60008a81526020902060005b868110156113c75781548b8201529085019083016113ae565b505084890196505b509498975050505050505050565b60208082528251828201819052600091906040908185019080840286018301878501865b8381101561144057888303603f1901855281518051845287015187840187905261142d878501826112f6565b9588019593505090860190600101611401565b509098975050505050505050565b6020808252825182820181905260009190604090818501908084028601830187850186805b848110156114fc57898403603f1901865282518051855288015188850188905280518886018190529089019060609081870190855b818110156114e6578451805184528d0151805115158e850152808e015115158d8501528c0151151584840152938c01936080909201916001016114a8565b5050978a01979550505091870191600101611473565b50919998505050505050505050565b60208082528251828201819052600091906040908185019080840286018301878501865b8381101561144057603f19898403018552815160608151855288820151818a87015261155d828701826112f6565b9150508782015191508481038886015261157781836112f6565b96890196945050509086019060010161152f565b602080825282518282018190526000919060409081850190868401855b828110156115cd578151805185528601518685015292840192908501906001016115a8565b5091979650505050505050565b60208082528251828201819052600091906040908185019080840286018301878501865b8381101561144057603f19898403018552815160a0600160a060020a038251168552888201518986015287820151818987015261163d828701826112f6565b6060848101519088015260809384015115159390960192909252505093860193908601906001016115fe565b60208082526016908201527f73656e646572206973206e6f7420616e2061646d696e00000000000000000000604082015260600190565b602081528151602082015260006020830151608060408401526116c660a08401826112f6565b9050604084015115156060840152606084015160808401528091505092915050565b6000828210156116fa576116fa611782565b500390565b60005b8381101561171a578181015183820152602001611702565b83811115611729576000848401525b50505050565b60028104600182168061174357607f821691505b602082108114156108b65760e060020a634e487b7102600052602260045260246000fd5b600060001982141561177b5761177b611782565b5060010190565b60e060020a634e487b7102600052601160045260246000fd5b60e060020a634e487b7102600052603260045260246000fd5b60e060020a634e487b7102600052604160045260246000fdfea26469706673582212203e0635b7933403c887e481755873198424c5a8a7d39ab349d21345bac807632c64736f6c63430008070033290decd9548b62a8d60345a988386fc84ba6bc95484008f6362f93160ef3e563290decd9548b62a8d60345a988386fc84ba6bc95484008f6362f93160ef3e5645573756172696f2070617261206167726567617220686973746f7269617320636c696e6963617353696e64726f6d657320792070726f626c656d6173206765726961747269636f73b10e2d527612073b26eecdfd717e6a320cf44b4afac2b0732d9fcbe2b7fa0cf6b10e2d527612073b26eecdfd717e6a320cf44b4afac2b0732d9fcbe2b7fa0cf7",
  "immutableReferences": {},
  "source": "// SPDX-License-Identifier: GPL-3.0\r\npragma solidity ^0.8.7;\r\n\r\nimport \"./RoleTypes.sol\";\r\n\r\nstruct Permisions {\r\n    bool create;\r\n    bool modify;\r\n    bool visualize;\r\n}\r\nstruct Module {\r\n    uint256 id;\r\n    string name;\r\n}\r\nstruct Role {\r\n    uint256 id;\r\n    string name;\r\n    string description;\r\n}\r\nstruct User {\r\n    address userAddress;\r\n    uint256 id;\r\n    string username;\r\n    bytes32 password;\r\n    bool state;\r\n}\r\n\r\nstruct UserRole {\r\n    uint256 userId;\r\n    uint256 roleId;\r\n}\r\n\r\nstruct ModulePermissions {\r\n    uint256 moduleId;\r\n    Permisions permisions;\r\n}\r\n\r\nstruct RoleModules {\r\n    uint256 roleId;\r\n    ModulePermissions[] modulePermissions;\r\n}\r\n\r\n//interface for returning a session value\r\nstruct Session {\r\n    uint256 userId;\r\n    string username;\r\n    bool state;\r\n    uint256 roleId;\r\n}\r\n\r\n// Describe identificators for all modules as uint values\r\nenum ModuleIdentificator {\r\n    NONE,\r\n    USERS_MANAGE,\r\n    DOCTORS_MANAGE,\r\n    NURSE_MANAGE,\r\n    PATIENTS_INFO,\r\n    MEDICALS_INFO,\r\n    CR_EXAM_RESULT,\r\n    CR_SICKNESS,\r\n    CR_BIOLOGIC_FUNCTIONS,\r\n    CR_PATOLOGICAL_HISTORY,\r\n    CR_PHYSYCAL_EXAM,\r\n    CR_SYNDROMES_GERIATRIC,\r\n    CR_CLINICAL_ASSESSMENT,\r\n    CR_COMMENTARY\r\n}\r\n\r\n/**\r\n * @author Blockchain Clinic Records Team\r\n * @title SessionContract\r\n * @notice Contract to mantain and manage Users, Roles and Sessions\r\n */\r\ncontract SessionContract {\r\n    Module[] modules;\r\n    Role[] roles;\r\n    User[] users;\r\n\r\n    //mapping Role id to module id list\r\n    mapping(uint256 => ModulePermissions[]) roleModulesMap;\r\n\r\n    //map user address to User index\r\n    //index saves the next value to avoid point to zero\r\n    mapping(address => uint256) usersMap;\r\n\r\n    //map user id to RoleIndex\r\n    //index saves the next value to avoid point to zero\r\n    mapping(uint256 => uint256) userRoleMap;\r\n\r\n    //initialUser first user address\r\n    address constant initialUser =\r\n        address(0x4ECbd9540F79A38f58d79336D16eC59a0dA247E8);\r\n\r\n    /**\r\n     * @dev initialize the Modules, Roles and a first Administrator User\r\n     * @dev first user initializes with the param address and uses admin as a encrypted password, to change it please modify @initialUser values\r\n     */\r\n    constructor() {\r\n        //modulos\r\n        Module memory usersModule = Module(\r\n            uint256(ModuleIdentificator.USERS_MANAGE),\r\n            \"Usuarios\"\r\n        );\r\n        Module memory doctorsModule = Module(\r\n            uint256(ModuleIdentificator.DOCTORS_MANAGE),\r\n            \"Doctores\"\r\n        );\r\n        Module memory nurseModule = Module(\r\n            uint256(ModuleIdentificator.NURSE_MANAGE),\r\n            \"Enfermeras\"\r\n        );\r\n        Module memory patientsModule = Module(\r\n            uint256(ModuleIdentificator.PATIENTS_INFO),\r\n            \"Pacientes\"\r\n        );\r\n        Module memory medicalsModule = Module(\r\n            uint256(ModuleIdentificator.MEDICALS_INFO),\r\n            \"Informacion de Medicos\"\r\n        );\r\n        Module memory examResultModule = Module(\r\n            uint256(ModuleIdentificator.CR_EXAM_RESULT),\r\n            \"Examenes - Resultados\"\r\n        );\r\n        Module memory sicknessResultModule = Module(\r\n            uint256(ModuleIdentificator.CR_SICKNESS),\r\n            \"Enfermedades\"\r\n        );\r\n        Module memory biologicResultModule = Module(\r\n            uint256(ModuleIdentificator.CR_BIOLOGIC_FUNCTIONS),\r\n            \"Funciones Biologicas\"\r\n        );\r\n        Module memory patologicResultModule = Module(\r\n            uint256(ModuleIdentificator.CR_PATOLOGICAL_HISTORY),\r\n            \"Historial Patologico\"\r\n        );\r\n        Module memory physicalResultModule = Module(\r\n            uint256(ModuleIdentificator.CR_PHYSYCAL_EXAM),\r\n            \"Examen Fisico\"\r\n        );\r\n        Module memory syndromeResultModule = Module(\r\n            uint256(ModuleIdentificator.CR_SYNDROMES_GERIATRIC),\r\n            \"Sindromes y problemas geriatricos\"\r\n        );\r\n        Module memory clinicalResultModule = Module(\r\n            uint256(ModuleIdentificator.CR_CLINICAL_ASSESSMENT),\r\n            \"Registro Clinico\"\r\n        );\r\n        Module memory commentaryResultModule = Module(\r\n            uint256(ModuleIdentificator.CR_COMMENTARY),\r\n            \"Comentarios\"\r\n        );\r\n\r\n        modules.push(usersModule);\r\n        modules.push(doctorsModule);\r\n        modules.push(nurseModule);\r\n        modules.push(patientsModule);\r\n        modules.push(medicalsModule);\r\n        modules.push(examResultModule);\r\n        modules.push(sicknessResultModule);\r\n        modules.push(biologicResultModule);\r\n        modules.push(patologicResultModule);\r\n        modules.push(physicalResultModule);\r\n        modules.push(syndromeResultModule);\r\n        modules.push(clinicalResultModule);\r\n        modules.push(commentaryResultModule);\r\n\r\n        //roles (mantener ese orden)\r\n        Role memory adminRole = Role(\r\n            uint256(RoleTypes.ADMIN),\r\n            \"Administrador\",\r\n            \"Permisos para gestionar usuarios\"\r\n        );\r\n        Role memory doctorRole = Role(\r\n            uint256(RoleTypes.DOCTOR),\r\n            \"Doctor\",\r\n            \"Usuario para agregar historias clinicas\"\r\n        );\r\n        Role memory nurseRole = Role(\r\n            uint256(RoleTypes.NURSE),\r\n            \"Enfermera\",\r\n            \"Usuario asignado para enfermeras\"\r\n        );\r\n\r\n        roles.push(adminRole);\r\n        roles.push(doctorRole);\r\n        roles.push(nurseRole);\r\n        roleModulesMap[adminRole.id].push(\r\n            ModulePermissions(\r\n                uint256(ModuleIdentificator.USERS_MANAGE),\r\n                Permisions(true, true, true)\r\n            )\r\n        );\r\n        roleModulesMap[adminRole.id].push(\r\n            ModulePermissions(\r\n                uint256(ModuleIdentificator.DOCTORS_MANAGE),\r\n                Permisions(true, true, true)\r\n            )\r\n        );\r\n        roleModulesMap[adminRole.id].push(\r\n            ModulePermissions(\r\n                uint256(ModuleIdentificator.NURSE_MANAGE),\r\n                Permisions(true, true, true)\r\n            )\r\n        );\r\n        roleModulesMap[adminRole.id].push(\r\n            ModulePermissions(\r\n                uint256(ModuleIdentificator.MEDICALS_INFO),\r\n                Permisions(true, true, true)\r\n            )\r\n        );\r\n\r\n        roleModulesMap[doctorRole.id].push(\r\n            ModulePermissions(\r\n                uint256(ModuleIdentificator.PATIENTS_INFO),\r\n                Permisions(true, true, true)\r\n            )\r\n        );\r\n        roleModulesMap[nurseRole.id].push(\r\n            ModulePermissions(\r\n                uint256(ModuleIdentificator.PATIENTS_INFO),\r\n                Permisions(true, true, true)\r\n            )\r\n        );\r\n\r\n        roleModulesMap[doctorRole.id].push(\r\n            ModulePermissions(\r\n                uint256(ModuleIdentificator.CR_EXAM_RESULT),\r\n                Permisions(true, true, true)\r\n            )\r\n        );\r\n        roleModulesMap[nurseRole.id].push(\r\n            ModulePermissions(\r\n                uint256(ModuleIdentificator.CR_EXAM_RESULT),\r\n                Permisions(false, false, true)\r\n            )\r\n        );\r\n\r\n        roleModulesMap[doctorRole.id].push(\r\n            ModulePermissions(\r\n                uint256(ModuleIdentificator.CR_SICKNESS),\r\n                Permisions(true, true, true)\r\n            )\r\n        );\r\n        roleModulesMap[nurseRole.id].push(\r\n            ModulePermissions(\r\n                uint256(ModuleIdentificator.CR_SICKNESS),\r\n                Permisions(false, false, true)\r\n            )\r\n        );\r\n\r\n        roleModulesMap[doctorRole.id].push(\r\n            ModulePermissions(\r\n                uint256(ModuleIdentificator.CR_BIOLOGIC_FUNCTIONS),\r\n                Permisions(true, true, true)\r\n            )\r\n        );\r\n\r\n        roleModulesMap[nurseRole.id].push(\r\n            ModulePermissions(\r\n                uint256(ModuleIdentificator.CR_BIOLOGIC_FUNCTIONS),\r\n                Permisions(true, true, true)\r\n            )\r\n        );\r\n\r\n        roleModulesMap[doctorRole.id].push(\r\n            ModulePermissions(\r\n                uint256(ModuleIdentificator.CR_PATOLOGICAL_HISTORY),\r\n                Permisions(true, true, true)\r\n            )\r\n        );\r\n\r\n        roleModulesMap[nurseRole.id].push(\r\n            ModulePermissions(\r\n                uint256(ModuleIdentificator.CR_PATOLOGICAL_HISTORY),\r\n                Permisions(false, false, true)\r\n            )\r\n        );\r\n\r\n        roleModulesMap[doctorRole.id].push(\r\n            ModulePermissions(\r\n                uint256(ModuleIdentificator.CR_PHYSYCAL_EXAM),\r\n                Permisions(true, true, true)\r\n            )\r\n        );\r\n\r\n        roleModulesMap[nurseRole.id].push(\r\n            ModulePermissions(\r\n                uint256(ModuleIdentificator.CR_PHYSYCAL_EXAM),\r\n                Permisions(true, true, true)\r\n            )\r\n        );\r\n\r\n        roleModulesMap[doctorRole.id].push(\r\n            ModulePermissions(\r\n                uint256(ModuleIdentificator.CR_SYNDROMES_GERIATRIC),\r\n                Permisions(true, true, true)\r\n            )\r\n        );\r\n        \r\n        roleModulesMap[nurseRole.id].push(\r\n            ModulePermissions(\r\n                uint256(ModuleIdentificator.CR_SYNDROMES_GERIATRIC),\r\n                Permisions(false, false, true)\r\n            )\r\n        );\r\n\r\n        roleModulesMap[doctorRole.id].push(\r\n            ModulePermissions(\r\n                uint256(ModuleIdentificator.CR_CLINICAL_ASSESSMENT),\r\n                Permisions(true, true, true)\r\n            )\r\n        );\r\n        roleModulesMap[nurseRole.id].push(\r\n            ModulePermissions(\r\n                uint256(ModuleIdentificator.CR_CLINICAL_ASSESSMENT),\r\n                Permisions(true, true, true)\r\n            )\r\n        );\r\n\r\n        roleModulesMap[doctorRole.id].push(\r\n            ModulePermissions(\r\n                uint256(ModuleIdentificator.CR_COMMENTARY),\r\n                Permisions(true, true, true)\r\n            )\r\n        );\r\n        roleModulesMap[nurseRole.id].push(\r\n            ModulePermissions(\r\n                uint256(ModuleIdentificator.CR_COMMENTARY),\r\n                Permisions(true, true, true)\r\n            )\r\n        );\r\n\r\n        //@initialUser\r\n        users.push(\r\n            User(\r\n                initialUser,\r\n                1,\r\n                \"admin\",\r\n                0xf23ec0bb4210edd5cba85afd05127efcd2fc6a781bfed49188da1081670b22d8, //password admin\r\n                true\r\n            )\r\n        );\r\n        usersMap[initialUser] = 1;\r\n        userRoleMap[users[0].id] = 1;\r\n    }\r\n\r\n    /**\r\n     * @notice validates if a user has a determined role\r\n     * @param _sender user address\r\n     * @param _roleType role given by RoleTypes enum order\r\n     * @return bool true if user has the role\r\n     */\r\n    function validateUser(address _sender, uint256 _roleType)\r\n        external\r\n        view\r\n        returns (bool)\r\n    {\r\n        uint256 userIndex = usersMap[_sender];\r\n        if (userIndex > 0) {\r\n            uint256 userId = users[userIndex - 1].id;\r\n            uint256 roleId = roles[userRoleMap[userId] - 1].id;\r\n            if (roleId > 0 && roleId == uint256(_roleType)) {\r\n                return true;\r\n            }\r\n        }\r\n\r\n        return false;\r\n    }\r\n\r\n    /**\r\n     * @notice validates if a user has a determined administrator role\r\n     * @dev the msg.sender address determines the user to validate\r\n     * @return bool true if user has the role\r\n     */\r\n    function isAdmin() internal view returns (bool) {\r\n        uint256 userIndex = usersMap[msg.sender];\r\n        if (userIndex > 0) {\r\n            uint256 userId = users[userIndex - 1].id;\r\n            uint256 roleId = roles[userRoleMap[userId] - 1].id;\r\n            if (roleId > 0 && roleId == uint256(RoleTypes.ADMIN)) {\r\n                return true;\r\n            }\r\n        }\r\n\r\n        return false;\r\n    }\r\n\r\n    /**\r\n     * @notice add a new user with an specific role\r\n     * @param _userAddress user eoa\r\n     * @param _id identificator for the user\r\n     * @param _username username\r\n     * @param _password password\r\n     * @param _roleType role given by RoleTypes enum order\r\n     * @dev the msg.sender address should be an administrator user\r\n     */\r\n    function addUser(\r\n        address _userAddress,\r\n        uint256 _id,\r\n        string memory _username,\r\n        string memory _password,\r\n        uint256 _roleType\r\n    ) external {\r\n        require(isAdmin(), \"sender is not an admin\");\r\n        users.push(\r\n            User(\r\n                _userAddress,\r\n                _id,\r\n                _username,\r\n                keccak256(abi.encodePacked(_password)),\r\n                true\r\n            )\r\n        );\r\n        usersMap[_userAddress] = users.length;\r\n        userRoleMap[users[users.length - 1].id] = _roleType;\r\n    }\r\n\r\n    /**\r\n     * @notice disables user changing the state\r\n     * @param _userAddress user eoa\r\n     * @dev the msg.sender address should be an administrator user\r\n     */\r\n    function disableUser(address _userAddress) external {\r\n        require(isAdmin(), \"sender is not an admin\");\r\n        uint256 userIndex = usersMap[_userAddress];\r\n        users[userIndex - 1].state = false;\r\n    }\r\n\r\n    /**\r\n     * @notice enables user changing the state\r\n     * @param _userAddress user eoa\r\n     * @dev the msg.sender address should be an administrator user\r\n     */\r\n    function enableUser(address _userAddress) external {\r\n        require(isAdmin(), \"sender is not an admin\");\r\n        uint256 userIndex = usersMap[_userAddress];\r\n        users[userIndex - 1].state = true;\r\n    }\r\n\r\n    /**\r\n     * @notice retrieves all the users\r\n     * @dev the msg.sender address should be an administrator user\r\n     * @return User user array\r\n     */\r\n    function getUsers() external view returns (User[] memory) {\r\n        require(isAdmin(), \"sender is not an admin\");\r\n        return users;\r\n    }\r\n\r\n    /**\r\n     * @notice retrieves all the modules\r\n     * @return Module module array\r\n     */\r\n    function getModules() external view returns (Module[] memory) {\r\n        return modules;\r\n    }\r\n\r\n    /**\r\n     * @notice retrieves all the roles\r\n     * @return Role role array\r\n     */\r\n    function getRoles() external view returns (Role[] memory) {\r\n        return roles;\r\n    }\r\n\r\n    /**\r\n     * @notice retrieves all the users roles\r\n     * @dev the msg.sender address should be an administrator user\r\n     * @return UserRole array given by the UserRole struct\r\n     */\r\n    function getUserRoles() external view returns (UserRole[] memory) {\r\n        require(isAdmin(), \"sender is not an admin\");\r\n        UserRole[] memory _userRoleList = new UserRole[](users.length);\r\n        for (uint256 i = 0; i < users.length; i++) {\r\n            uint256 _userId = users[i].id;\r\n            UserRole memory _userRole = UserRole(\r\n                _userId,\r\n                roles[userRoleMap[_userId] - 1].id\r\n            );\r\n            _userRoleList[i] = _userRole;\r\n        }\r\n        return _userRoleList;\r\n    }\r\n\r\n    /**\r\n     * @notice retrieves all the role modules\r\n     * @dev the msg.sender address should be an administrator user\r\n     * @return RoleModules array given by the RoleModules struct\r\n     */\r\n    function getRoleModules() external view returns (RoleModules[] memory) {\r\n        RoleModules[] memory _roleModulesList = new RoleModules[](roles.length);\r\n        for (uint256 i = 0; i < roles.length; i++) {\r\n            uint256 _roleId = roles[i].id;\r\n            RoleModules memory _roleModules = RoleModules(\r\n                _roleId,\r\n                roleModulesMap[_roleId]\r\n            );\r\n            _roleModulesList[i] = _roleModules;\r\n        }\r\n        return _roleModulesList;\r\n    }\r\n\r\n    /**\r\n     * @notice retrieves a session data if credentials exists\r\n     * @dev the sent user should be valid and enabled\r\n     * @return Session the session value given by the Session struct\r\n     */\r\n    function login(string memory _username, string memory _password)\r\n        external\r\n        view\r\n        returns (Session memory)\r\n    {\r\n        bool usernamePasswordValid = false;\r\n        for (uint256 i = 0; i < users.length; i++) {\r\n            if (\r\n                keccak256(abi.encodePacked(_username)) ==\r\n                keccak256(abi.encodePacked(users[i].username)) &&\r\n                keccak256(abi.encodePacked(_password)) == users[i].password\r\n            ) {\r\n                usernamePasswordValid = true;\r\n                User memory userSession = users[i];\r\n                require(userSession.state, \"Disabled user\");\r\n                uint256 userId = userSession.id;\r\n                return\r\n                    Session(\r\n                        userId,\r\n                        users[i].username,\r\n                        users[i].state,\r\n                        roles[userRoleMap[userId] - 1].id\r\n                    );\r\n            }\r\n        }\r\n        require(usernamePasswordValid, \"Invalid username or password\");\r\n        return Session(0, \"\", false, 0);\r\n    }\r\n}\r\n",
  "sourcePath": "D:\\Tesis Historia Geriatrica\\Blockchain-ClinicRecords\\contracts\\SessionContract.sol",
  "compiler": {
    "name": "solc",
    "version": "0.8.7+commit.e28d00a7.Emscripten.clang"
  },
  "schemaVersion": "3.4.10",
  "updatedAt": "2023-03-26T15:45:42.889Z",
  "networkType": "ethereum",
  "devdoc": {
    "author": "Blockchain Clinic Records Team",
    "kind": "dev",
    "methods": {
      "addUser(address,uint256,string,string,uint256)": {
        "details": "the msg.sender address should be an administrator user",
        "params": {
          "_id": "identificator for the user",
          "_password": "password",
          "_roleType": "role given by RoleTypes enum order",
          "_userAddress": "user eoa",
          "_username": "username"
        }
      },
      "constructor": {
        "details": "initialize the Modules, Roles and a first Administrator Userfirst user initializes with the param address and uses admin as a encrypted password, to change it please modify @initialUser values"
      },
      "disableUser(address)": {
        "details": "the msg.sender address should be an administrator user",
        "params": {
          "_userAddress": "user eoa"
        }
      },
      "enableUser(address)": {
        "details": "the msg.sender address should be an administrator user",
        "params": {
          "_userAddress": "user eoa"
        }
      },
      "getModules()": {
        "returns": {
          "_0": "Module module array"
        }
      },
      "getRoleModules()": {
        "details": "the msg.sender address should be an administrator user",
        "returns": {
          "_0": "RoleModules array given by the RoleModules struct"
        }
      },
      "getRoles()": {
        "returns": {
          "_0": "Role role array"
        }
      },
      "getUserRoles()": {
        "details": "the msg.sender address should be an administrator user",
        "returns": {
          "_0": "UserRole array given by the UserRole struct"
        }
      },
      "getUsers()": {
        "details": "the msg.sender address should be an administrator user",
        "returns": {
          "_0": "User user array"
        }
      },
      "login(string,string)": {
        "details": "the sent user should be valid and enabled",
        "returns": {
          "_0": "Session the session value given by the Session struct"
        }
      },
      "validateUser(address,uint256)": {
        "params": {
          "_roleType": "role given by RoleTypes enum order",
          "_sender": "user address"
        },
        "returns": {
          "_0": "bool true if user has the role"
        }
      }
    },
    "title": "SessionContract",
    "version": 1
  },
  "userdoc": {
    "kind": "user",
    "methods": {
      "addUser(address,uint256,string,string,uint256)": {
        "notice": "add a new user with an specific role"
      },
      "disableUser(address)": {
        "notice": "disables user changing the state"
      },
      "enableUser(address)": {
        "notice": "enables user changing the state"
      },
      "getModules()": {
        "notice": "retrieves all the modules"
      },
      "getRoleModules()": {
        "notice": "retrieves all the role modules"
      },
      "getRoles()": {
        "notice": "retrieves all the roles"
      },
      "getUserRoles()": {
        "notice": "retrieves all the users roles"
      },
      "getUsers()": {
        "notice": "retrieves all the users"
      },
      "login(string,string)": {
        "notice": "retrieves a session data if credentials exists"
      },
      "validateUser(address,uint256)": {
        "notice": "validates if a user has a determined role"
      }
    },
    "notice": "Contract to mantain and manage Users, Roles and Sessions",
    "version": 1
  }
}