{
  "contractName": "UsersInformation",
  "abi": [
    {
      "inputs": [],
      "stateMutability": "nonpayable",
      "type": "constructor"
    },
    {
      "inputs": [
        {
          "internalType": "address",
          "name": "sessionContractAddress",
          "type": "address"
        },
        {
          "internalType": "uint256",
          "name": "_identificationNumber",
          "type": "uint256"
        },
        {
          "internalType": "string",
          "name": "_name",
          "type": "string"
        },
        {
          "internalType": "uint256",
          "name": "_birthDate",
          "type": "uint256"
        },
        {
          "internalType": "string",
          "name": "_gender",
          "type": "string"
        },
        {
          "internalType": "string",
          "name": "_maritalStatus",
          "type": "string"
        },
        {
          "internalType": "string",
          "name": "_occupation",
          "type": "string"
        },
        {
          "internalType": "string",
          "name": "_direction",
          "type": "string"
        },
        {
          "internalType": "string",
          "name": "_contactPerson",
          "type": "string"
        },
        {
          "internalType": "string",
          "name": "_phone",
          "type": "string"
        }
      ],
      "name": "addPatient",
      "outputs": [],
      "stateMutability": "nonpayable",
      "type": "function"
    },
    {
      "inputs": [
        {
          "internalType": "address",
          "name": "sessionContractAddress",
          "type": "address"
        }
      ],
      "name": "getPatients",
      "outputs": [
        {
          "components": [
            {
              "components": [
                {
                  "internalType": "string",
                  "name": "name",
                  "type": "string"
                },
                {
                  "internalType": "uint256",
                  "name": "identificationNumber",
                  "type": "uint256"
                },
                {
                  "internalType": "uint256",
                  "name": "birthDate",
                  "type": "uint256"
                },
                {
                  "internalType": "string",
                  "name": "gender",
                  "type": "string"
                }
              ],
              "internalType": "struct PersonalInformation",
              "name": "personalInformation",
              "type": "tuple"
            },
            {
              "internalType": "string",
              "name": "maritalStatus",
              "type": "string"
            },
            {
              "internalType": "string",
              "name": "occupation",
              "type": "string"
            },
            {
              "internalType": "string",
              "name": "direction",
              "type": "string"
            },
            {
              "internalType": "string",
              "name": "contactPerson",
              "type": "string"
            },
            {
              "internalType": "string",
              "name": "phone",
              "type": "string"
            }
          ],
          "internalType": "struct Patient[]",
          "name": "",
          "type": "tuple[]"
        }
      ],
      "stateMutability": "view",
      "type": "function",
      "constant": true
    },
    {
      "inputs": [
        {
          "internalType": "address",
          "name": "sessionContractAddress",
          "type": "address"
        },
        {
          "internalType": "uint256",
          "name": "userIdentification",
          "type": "uint256"
        }
      ],
      "name": "getPatient",
      "outputs": [
        {
          "components": [
            {
              "components": [
                {
                  "internalType": "string",
                  "name": "name",
                  "type": "string"
                },
                {
                  "internalType": "uint256",
                  "name": "identificationNumber",
                  "type": "uint256"
                },
                {
                  "internalType": "uint256",
                  "name": "birthDate",
                  "type": "uint256"
                },
                {
                  "internalType": "string",
                  "name": "gender",
                  "type": "string"
                }
              ],
              "internalType": "struct PersonalInformation",
              "name": "personalInformation",
              "type": "tuple"
            },
            {
              "internalType": "string",
              "name": "maritalStatus",
              "type": "string"
            },
            {
              "internalType": "string",
              "name": "occupation",
              "type": "string"
            },
            {
              "internalType": "string",
              "name": "direction",
              "type": "string"
            },
            {
              "internalType": "string",
              "name": "contactPerson",
              "type": "string"
            },
            {
              "internalType": "string",
              "name": "phone",
              "type": "string"
            }
          ],
          "internalType": "struct Patient",
          "name": "",
          "type": "tuple"
        }
      ],
      "stateMutability": "view",
      "type": "function",
      "constant": true
    },
    {
      "inputs": [
        {
          "internalType": "address",
          "name": "sessionContractAddress",
          "type": "address"
        },
        {
          "internalType": "uint256",
          "name": "userId",
          "type": "uint256"
        },
        {
          "internalType": "string",
          "name": "_name",
          "type": "string"
        },
        {
          "internalType": "uint256",
          "name": "_identificationNumber",
          "type": "uint256"
        },
        {
          "internalType": "uint256",
          "name": "_birthDate",
          "type": "uint256"
        },
        {
          "internalType": "string",
          "name": "_gender",
          "type": "string"
        },
        {
          "internalType": "string",
          "name": "_speciality",
          "type": "string"
        }
      ],
      "name": "addMedical",
      "outputs": [],
      "stateMutability": "nonpayable",
      "type": "function"
    },
    {
      "inputs": [
        {
          "internalType": "address",
          "name": "sessionContractAddress",
          "type": "address"
        }
      ],
      "name": "getMedicals",
      "outputs": [
        {
          "components": [
            {
              "internalType": "uint256",
              "name": "userId",
              "type": "uint256"
            },
            {
              "components": [
                {
                  "internalType": "string",
                  "name": "name",
                  "type": "string"
                },
                {
                  "internalType": "uint256",
                  "name": "identificationNumber",
                  "type": "uint256"
                },
                {
                  "internalType": "uint256",
                  "name": "birthDate",
                  "type": "uint256"
                },
                {
                  "internalType": "string",
                  "name": "gender",
                  "type": "string"
                }
              ],
              "internalType": "struct PersonalInformation",
              "name": "personalInformation",
              "type": "tuple"
            },
            {
              "internalType": "string",
              "name": "speciality",
              "type": "string"
            }
          ],
          "internalType": "struct Medical[]",
          "name": "",
          "type": "tuple[]"
        }
      ],
      "stateMutability": "view",
      "type": "function",
      "constant": true
    },
    {
      "inputs": [
        {
          "internalType": "address",
          "name": "sessionContractAddress",
          "type": "address"
        },
        {
          "internalType": "uint256",
          "name": "userId",
          "type": "uint256"
        }
      ],
      "name": "getMedical",
      "outputs": [
        {
          "components": [
            {
              "internalType": "uint256",
              "name": "userId",
              "type": "uint256"
            },
            {
              "components": [
                {
                  "internalType": "string",
                  "name": "name",
                  "type": "string"
                },
                {
                  "internalType": "uint256",
                  "name": "identificationNumber",
                  "type": "uint256"
                },
                {
                  "internalType": "uint256",
                  "name": "birthDate",
                  "type": "uint256"
                },
                {
                  "internalType": "string",
                  "name": "gender",
                  "type": "string"
                }
              ],
              "internalType": "struct PersonalInformation",
              "name": "personalInformation",
              "type": "tuple"
            },
            {
              "internalType": "string",
              "name": "speciality",
              "type": "string"
            }
          ],
          "internalType": "struct Medical",
          "name": "",
          "type": "tuple"
        }
      ],
      "stateMutability": "view",
      "type": "function",
      "constant": true
    }
  ],
  "bytecode": "0x608060405234801561001057600080fd5b50611e56806100206000396000f3fe608060405234801561001057600080fd5b506004361061007e577c0100000000000000000000000000000000000000000000000000000000600035046317f2e6b7811461008357806350e9d87f146100985780635e43b7f4146100c15780636274f731146100e15780638e07c1a2146100f4578063d0ea5f6214610114575b600080fd5b6100966100913660046118c0565b610134565b005b6100ab6100a6366004611896565b6103d1565b6040516100b89190611d62565b60405180910390f35b6100d46100cf366004611874565b6106b6565b6040516100b89190611ca0565b6100966100ef366004611a01565b610c66565b610107610102366004611874565b610e19565b6040516100b89190611c3f565b610127610122366004611896565b6110fc565b6040516100b89190611d75565b60405160e060020a63c9bae385028152336004820181905260026024830152908b90600160a060020a0382169063c9bae3859060440160206040518083038186803b15801561018257600080fd5b505afa158015610196573d6000803e3d6000fd5b505050506040513d601f19601f820116820180604052508101906101ba9190611ab7565b80610243575060405160e060020a63c9bae385028152600160a060020a0383811660048301526003602483015282169063c9bae3859060440160206040518083038186803b15801561020b57600080fd5b505afa15801561021f573d6000803e3d6000fd5b505050506040513d601f19601f820116820180604052508101906102439190611ab7565b61026b5760405160e560020a62461bcd02815260040161026290611d2b565b60405180910390fd5b610273611689565b61027f8b8d8c8c61161a565b8152602080820189905260408201889052606082018790526080820186905260a0820185905260008054600181018255908052825180518051859460099094027f290decd9548b62a8d60345a988386fc84ba6bc95484008f6362f93160ef3e563019384926102f492849291909101906116e8565b506020828101516001830155604083015160028301556060830151805161032192600385019201906116e8565b505050602082810151805161033c92600485019201906116e8565b50604082015180516103589160058401916020909101906116e8565b50606082015180516103749160068401916020909101906116e8565b50608082015180516103909160078401916020909101906116e8565b5060a082015180516103ac9160088401916020909101906116e8565b5050600080549d81526002602052604090209c909c5550505050505050505050505050565b6103d961176c565b60405160e060020a63c9bae385028152336004820181905260016024830152908490600160a060020a0382169063c9bae3859060440160206040518083038186803b15801561042757600080fd5b505afa15801561043b573d6000803e3d6000fd5b505050506040513d601f19601f8201168201806040525081019061045f9190611ab7565b61047e5760405160e560020a62461bcd02815260040161026290611cf4565b60008481526003602052604090205460019061049b908290611d88565b815481106104ab576104ab611dee565b906000526020600020906006020160405180606001604052908160008201548152602001600182016040518060800160405290816000820180546104ee90611db0565b80601f016020809104026020016040519081016040528092919081815260200182805461051a90611db0565b80156105675780601f1061053c57610100808354040283529160200191610567565b820191906000526020600020905b81548152906001019060200180831161054a57829003601f168201915b50505050508152602001600182015481526020016002820154815260200160038201805461059490611db0565b80601f01602080910402602001604051908101604052809291908181526020018280546105c090611db0565b801561060d5780601f106105e25761010080835404028352916020019161060d565b820191906000526020600020905b8154815290600101906020018083116105f057829003601f168201915b505050505081525050815260200160058201805461062a90611db0565b80601f016020809104026020016040519081016040528092919081815260200182805461065690611db0565b80156106a35780601f10610678576101008083540402835291602001916106a3565b820191906000526020600020905b81548152906001019060200180831161068657829003601f168201915b5050505050815250509250505092915050565b60405160e060020a63c9bae3850281523360048201819052600260248301526060918390600160a060020a0382169063c9bae3859060440160206040518083038186803b15801561070657600080fd5b505afa15801561071a573d6000803e3d6000fd5b505050506040513d601f19601f8201168201806040525081019061073e9190611ab7565b806107c7575060405160e060020a63c9bae385028152600160a060020a0383811660048301526003602483015282169063c9bae3859060440160206040518083038186803b15801561078f57600080fd5b505afa1580156107a3573d6000803e3d6000fd5b505050506040513d601f19601f820116820180604052508101906107c79190611ab7565b6107e65760405160e560020a62461bcd02815260040161026290611d2b565b6000805480602002602001604051908101604052809291908181526020016000905b82821015610c5957600084815260209020604080516101408101909152600984029091018054829060c082019083908290829061084490611db0565b80601f016020809104026020016040519081016040528092919081815260200182805461087090611db0565b80156108bd5780601f10610892576101008083540402835291602001916108bd565b820191906000526020600020905b8154815290600101906020018083116108a057829003601f168201915b5050505050815260200160018201548152602001600282015481526020016003820180546108ea90611db0565b80601f016020809104026020016040519081016040528092919081815260200182805461091690611db0565b80156109635780601f1061093857610100808354040283529160200191610963565b820191906000526020600020905b81548152906001019060200180831161094657829003601f168201915b505050505081525050815260200160048201805461098090611db0565b80601f01602080910402602001604051908101604052809291908181526020018280546109ac90611db0565b80156109f95780601f106109ce576101008083540402835291602001916109f9565b820191906000526020600020905b8154815290600101906020018083116109dc57829003601f168201915b50505050508152602001600582018054610a1290611db0565b80601f0160208091040260200160405190810160405280929190818152602001828054610a3e90611db0565b8015610a8b5780601f10610a6057610100808354040283529160200191610a8b565b820191906000526020600020905b815481529060010190602001808311610a6e57829003601f168201915b50505050508152602001600682018054610aa490611db0565b80601f0160208091040260200160405190810160405280929190818152602001828054610ad090611db0565b8015610b1d5780601f10610af257610100808354040283529160200191610b1d565b820191906000526020600020905b815481529060010190602001808311610b0057829003601f168201915b50505050508152602001600782018054610b3690611db0565b80601f0160208091040260200160405190810160405280929190818152602001828054610b6290611db0565b8015610baf5780601f10610b8457610100808354040283529160200191610baf565b820191906000526020600020905b815481529060010190602001808311610b9257829003601f168201915b50505050508152602001600882018054610bc890611db0565b80601f0160208091040260200160405190810160405280929190818152602001828054610bf490611db0565b8015610c415780601f10610c1657610100808354040283529160200191610c41565b820191906000526020600020905b815481529060010190602001808311610c2457829003601f168201915b50505050508152505081526020019060010190610808565b5050505092505050919050565b60405160e060020a63c9bae385028152336004820181905260016024830152908890600160a060020a0382169063c9bae3859060440160206040518083038186803b158015610cb457600080fd5b505afa158015610cc8573d6000803e3d6000fd5b505050506040513d601f19601f82011682018060405250810190610cec9190611ab7565b610d0b5760405160e560020a62461bcd02815260040161026290611cf4565b610d1361176c565b888152610d228888888861161a565b602080830191825260408301869052600180548082018255600091909152835160069091027fb10e2d527612073b26eecdfd717e6a320cf44b4afac2b0732d9fcbe2b7fa0cf681019182559251805180518695939492937fb10e2d527612073b26eecdfd717e6a320cf44b4afac2b0732d9fcbe2b7fa0cf70192610daa9284929101906116e8565b5060208281015160018301556040830151600283015560608301518051610dd792600385019201906116e8565b50505060408201518051610df59160058401916020909101906116e8565b505060015460009a8b5260036020526040909a209990995550505050505050505050565b60405160e060020a63c9bae3850281523360048201819052600160248301526060918390600160a060020a0382169063c9bae3859060440160206040518083038186803b158015610e6957600080fd5b505afa158015610e7d573d6000803e3d6000fd5b505050506040513d601f19601f82011682018060405250810190610ea19190611ab7565b610ec05760405160e560020a62461bcd02815260040161026290611cf4565b6001805480602002602001604051908101604052809291908181526020016000905b82821015610c5957838290600052602060002090600602016040518060600160405290816000820154815260200160018201604051806080016040529081600082018054610f2f90611db0565b80601f0160208091040260200160405190810160405280929190818152602001828054610f5b90611db0565b8015610fa85780601f10610f7d57610100808354040283529160200191610fa8565b820191906000526020600020905b815481529060010190602001808311610f8b57829003601f168201915b505050505081526020016001820154815260200160028201548152602001600382018054610fd590611db0565b80601f016020809104026020016040519081016040528092919081815260200182805461100190611db0565b801561104e5780601f106110235761010080835404028352916020019161104e565b820191906000526020600020905b81548152906001019060200180831161103157829003601f168201915b505050505081525050815260200160058201805461106b90611db0565b80601f016020809104026020016040519081016040528092919081815260200182805461109790611db0565b80156110e45780601f106110b9576101008083540402835291602001916110e4565b820191906000526020600020905b8154815290600101906020018083116110c757829003601f168201915b50505050508152505081526020019060010190610ee2565b611104611689565b60405160e060020a63c9bae385028152336004820181905260026024830152908490600160a060020a0382169063c9bae3859060440160206040518083038186803b15801561115257600080fd5b505afa158015611166573d6000803e3d6000fd5b505050506040513d601f19601f8201168201806040525081019061118a9190611ab7565b80611213575060405160e060020a63c9bae385028152600160a060020a0383811660048301526003602483015282169063c9bae3859060440160206040518083038186803b1580156111db57600080fd5b505afa1580156111ef573d6000803e3d6000fd5b505050506040513d601f19601f820116820180604052508101906112139190611ab7565b6112325760405160e560020a62461bcd02815260040161026290611d2b565b60008481526002602052604081205461124d90600190611d88565b8154811061125d5761125d611dee565b90600052602060002090600902016040518060c00160405290816000820160405180608001604052908160008201805461129690611db0565b80601f01602080910402602001604051908101604052809291908181526020018280546112c290611db0565b801561130f5780601f106112e45761010080835404028352916020019161130f565b820191906000526020600020905b8154815290600101906020018083116112f257829003601f168201915b50505050508152602001600182015481526020016002820154815260200160038201805461133c90611db0565b80601f016020809104026020016040519081016040528092919081815260200182805461136890611db0565b80156113b55780601f1061138a576101008083540402835291602001916113b5565b820191906000526020600020905b81548152906001019060200180831161139857829003601f168201915b50505050508152505081526020016004820180546113d290611db0565b80601f01602080910402602001604051908101604052809291908181526020018280546113fe90611db0565b801561144b5780601f106114205761010080835404028352916020019161144b565b820191906000526020600020905b81548152906001019060200180831161142e57829003601f168201915b5050505050815260200160058201805461146490611db0565b80601f016020809104026020016040519081016040528092919081815260200182805461149090611db0565b80156114dd5780601f106114b2576101008083540402835291602001916114dd565b820191906000526020600020905b8154815290600101906020018083116114c057829003601f168201915b505050505081526020016006820180546114f690611db0565b80601f016020809104026020016040519081016040528092919081815260200182805461152290611db0565b801561156f5780601f106115445761010080835404028352916020019161156f565b820191906000526020600020905b81548152906001019060200180831161155257829003601f168201915b5050505050815260200160078201805461158890611db0565b80601f01602080910402602001604051908101604052809291908181526020018280546115b490611db0565b80156116015780601f106115d657610100808354040283529160200191611601565b820191906000526020600020905b8154815290600101906020018083116115e457829003601f168201915b5050505050815260200160088201805461062a90611db0565b6116456040518060800160405280606081526020016000815260200160008152602001606081525090565b6116706040518060800160405280606081526020016000815260200160008152602001606081525090565b9485525060208401929092526040830152606082015290565b6040518060c001604052806116bf6040518060800160405280606081526020016000815260200160008152602001606081525090565b815260200160608152602001606081526020016060815260200160608152602001606081525090565b8280546116f490611db0565b90600052602060002090601f016020900481019282611716576000855561175c565b82601f1061172f57805160ff191683800117855561175c565b8280016001018555821561175c579182015b8281111561175c578251825591602001919060010190611741565b506117689291506117b6565b5090565b6040518060600160405280600081526020016117a96040518060800160405280606081526020016000815260200160008152602001606081525090565b8152602001606081525090565b5b8082111561176857600081556001016117b7565b8035600160a060020a03811681146117e257600080fd5b919050565b600082601f8301126117f857600080fd5b813567ffffffffffffffff8082111561181357611813611e07565b604051601f8301601f19908116603f0116810190828211818310171561183b5761183b611e07565b8160405283815286602085880101111561185457600080fd5b836020870160208301376000602085830101528094505050505092915050565b60006020828403121561188657600080fd5b61188f826117cb565b9392505050565b600080604083850312156118a957600080fd5b6118b2836117cb565b946020939093013593505050565b6000806000806000806000806000806101408b8d0312156118e057600080fd5b6118e98b6117cb565b995060208b0135985060408b013567ffffffffffffffff8082111561190d57600080fd5b6119198e838f016117e7565b995060608d0135985060808d013591508082111561193657600080fd5b6119428e838f016117e7565b975060a08d013591508082111561195857600080fd5b6119648e838f016117e7565b965060c08d013591508082111561197a57600080fd5b6119868e838f016117e7565b955060e08d013591508082111561199c57600080fd5b6119a88e838f016117e7565b94506101008d01359150808211156119bf57600080fd5b6119cb8e838f016117e7565b93506101208d01359150808211156119e257600080fd5b506119ef8d828e016117e7565b9150509295989b9194979a5092959850565b600080600080600080600060e0888a031215611a1c57600080fd5b611a25886117cb565b965060208801359550604088013567ffffffffffffffff80821115611a4957600080fd5b611a558b838c016117e7565b965060608a0135955060808a0135945060a08a0135915080821115611a7957600080fd5b611a858b838c016117e7565b935060c08a0135915080821115611a9b57600080fd5b50611aa88a828b016117e7565b91505092959891949750929550565b600060208284031215611ac957600080fd5b8151801515811461188f57600080fd5b6000815180845260005b81811015611aff57602081850181015186830182015201611ae3565b81811115611b11576000602083870101525b50601f01601f19169290920160200192915050565b805182526000602082015160606020850152611b456060850182611bfd565b905060408301518482036040860152611b5e8282611ad9565b95945050505050565b6000815160c08452611b7c60c0850182611bfd565b905060208301518482036020860152611b958282611ad9565b91505060408301518482036040860152611baf8282611ad9565b91505060608301518482036060860152611bc98282611ad9565b91505060808301518482036080860152611be38282611ad9565b91505060a083015184820360a0860152611b5e8282611ad9565b6000815160808452611c126080850182611ad9565b9050602083015160208501526040830151604085015260608301518482036060860152611b5e8282611ad9565b600060208083018184528085518083526040860191506040848202870101925083870160005b82811015611c9357603f19888603018452611c81858351611b26565b94509285019290850190600101611c65565b5092979650505050505050565b600060208083018184528085518083526040860191506040848202870101925083870160005b82811015611c9357603f19888603018452611ce2858351611b67565b94509285019290850190600101611cc6565b60208082526016908201527f73656e646572206973206e6f7420616e2061646d696e00000000000000000000604082015260600190565b60208082526017908201527f73656e646572206973206e6f742061206d65646963616c000000000000000000604082015260600190565b60208152600061188f6020830184611b26565b60208152600061188f6020830184611b67565b600082821015611dab5760e060020a634e487b7102600052601160045260246000fd5b500390565b600281046001821680611dc457607f821691505b60208210811415611de85760e060020a634e487b7102600052602260045260246000fd5b50919050565b60e060020a634e487b7102600052603260045260246000fd5b60e060020a634e487b7102600052604160045260246000fdfea2646970667358221220ffe5fe9f56fa8a2ed7873ec0764fa58543241e0c0e4b58b0ebc1fad9275c73c664736f6c63430008070033",
  "immutableReferences": {},
  "source": "// SPDX-License-Identifier: GPL-3.0\r\npragma solidity ^0.8.7;\r\n\r\nimport \"./ProfileModifier.sol\";\r\n\r\nstruct PersonalInformation {\r\n    string name;\r\n    uint256 identificationNumber;\r\n    uint256 birthDate;\r\n    string gender;\r\n}\r\n\r\nstruct Patient {\r\n    PersonalInformation personalInformation;\r\n    string maritalStatus;\r\n    string occupation;\r\n    string direction;\r\n    string contactPerson;\r\n    string phone;\r\n}\r\n\r\nstruct Medical {\r\n    uint256 userId;\r\n    PersonalInformation personalInformation;\r\n    string speciality;\r\n}\r\n\r\n/**\r\n * @author Blockchain Clinic Records Team\r\n * @dev inherits from ProfileModifier to use modifiers\r\n * @title SessionContract\r\n * @notice Contract to mantain and manage Users, Roles and Sessions\r\n */\r\ncontract UsersInformation is ProfileModifier {\r\n    Patient[] patients;\r\n    Medical[] medicals;\r\n\r\n    //mapping from identification to patients index\r\n    //index saves the next value to avoid point to zero\r\n    mapping(uint256 => uint256) patientsMap;\r\n    //mapping from user id to medicals index\r\n    //index saves the next value to avoid point to zero\r\n    mapping(uint256 => uint256) medicalsMap;\r\n\r\n    constructor() {}\r\n\r\n    /**\r\n     * @notice internal function to create a PersonalInformation struct\r\n     * @param _name client name\r\n     * @param _identificationNumber identification of the client\r\n     * @param _birthDate birth date as uint value\r\n     * @param _gender client gender\r\n     * @return PersonalInformation PersonalInformation struct\r\n     */\r\n    function putPersonalInformation(\r\n        string memory _name,\r\n        uint256 _identificationNumber,\r\n        uint256 _birthDate,\r\n        string memory _gender\r\n    ) internal pure returns (PersonalInformation memory) {\r\n        PersonalInformation memory _personalInformation;\r\n        _personalInformation.name = _name;\r\n        _personalInformation.identificationNumber = _identificationNumber;\r\n        _personalInformation.birthDate = _birthDate;\r\n        _personalInformation.gender = _gender;\r\n\r\n        return _personalInformation;\r\n    }\r\n\r\n    /**\r\n     * @notice register a new patient with its identification data\r\n     * @dev msg.sender addres should be from a doctor or nurse role\r\n     * @param sessionContractAddress address of the deployed SessionContract instance\r\n     * @param _identificationNumber identification of the client\r\n     * @param _name patient name\r\n     * @param _birthDate patient birth date as uint\r\n     * @param _gender patient gender\r\n     * @param _maritalStatus patient marital status\r\n     * @param _occupation patient occupation\r\n     * @param _direction patient direction\r\n     * @param _contactPerson person to contact for patients eventuelities\r\n     * @param _phone contact phone\r\n     * @custom:modifier isMedical from ProfileModifier\r\n     */\r\n    function addPatient(\r\n        address sessionContractAddress,\r\n        uint256 _identificationNumber,\r\n        string memory _name,\r\n        uint256 _birthDate,\r\n        string memory _gender,\r\n        string memory _maritalStatus,\r\n        string memory _occupation,\r\n        string memory _direction,\r\n        string memory _contactPerson,\r\n        string memory _phone\r\n    ) external isMedical(msg.sender, sessionContractAddress) {\r\n        Patient memory _patient;\r\n        _patient.personalInformation = putPersonalInformation(\r\n            _name,\r\n            _identificationNumber,\r\n            _birthDate,\r\n            _gender\r\n        );\r\n        _patient.maritalStatus = _maritalStatus;\r\n        _patient.occupation = _occupation;\r\n        _patient.direction = _direction;\r\n        _patient.contactPerson = _contactPerson;\r\n        _patient.phone = _phone;\r\n\r\n        patients.push(_patient);\r\n        patientsMap[_identificationNumber] = patients.length;\r\n    }\r\n\r\n    /**\r\n     * @notice retrieves all patients\r\n     * @dev msg.sender addres should be from a doctor or nurse role\r\n     * @param sessionContractAddress address of the deployed SessionContract instance\r\n     * @custom:modifier isMedical from ProfileModifier\r\n     * @return Patient patients array\r\n     */\r\n    function getPatients(address sessionContractAddress)\r\n        external\r\n        view\r\n        isMedical(msg.sender, sessionContractAddress)\r\n        returns (Patient[] memory)\r\n    {\r\n        return patients;\r\n    }\r\n\r\n    /**\r\n     * @notice retrieves a patiens by a given user identification\r\n     * @dev msg.sender addres should be from a doctor or nurse role\r\n     * @param sessionContractAddress address of the deployed SessionContract instance\r\n     * @param userIdentification patients identification\r\n     * @custom:modifier isMedical from ProfileModifier\r\n     * @return Patient patient\r\n     */\r\n    function getPatient(\r\n        address sessionContractAddress,\r\n        uint256 userIdentification\r\n    )\r\n        external\r\n        view\r\n        isMedical(msg.sender, sessionContractAddress)\r\n        returns (Patient memory)\r\n    {\r\n        return patients[patientsMap[userIdentification] - 1];\r\n    }\r\n\r\n    /**\r\n     * @notice register a new medical with its identification data\r\n     * @dev msg.sender addres should be from an administrator role\r\n     * @param sessionContractAddress address of the deployed SessionContract instance\r\n     * @param userId id from the created user for the medical\r\n     * @param _identificationNumber identification of the medical\r\n     * @param _name medical name\r\n     * @param _birthDate medical birth date as uint\r\n     * @param _gender medical gender\r\n     * @param _speciality medical specialization\r\n     * @custom:modifier isAdmin from ProfileModifier\r\n     */\r\n    function addMedical(\r\n        address sessionContractAddress,\r\n        uint256 userId,\r\n        string memory _name,\r\n        uint256 _identificationNumber,\r\n        uint256 _birthDate,\r\n        string memory _gender,\r\n        string memory _speciality\r\n    ) external isAdmin(msg.sender, sessionContractAddress) {\r\n        Medical memory _medical;\r\n        _medical.userId = userId;\r\n        _medical.personalInformation = putPersonalInformation(\r\n            _name,\r\n            _identificationNumber,\r\n            _birthDate,\r\n            _gender\r\n        );\r\n        _medical.speciality = _speciality;\r\n\r\n        medicals.push(_medical);\r\n        medicalsMap[userId] = medicals.length;\r\n    }\r\n\r\n    /**\r\n     * @notice retrieves all medicals\r\n     * @dev msg.sender addres should be from an administrator role\r\n     * @param sessionContractAddress address of the deployed SessionContract instance\r\n     * @custom:modifier isAdmin from ProfileModifier\r\n     * @return Medical medical array\r\n     */\r\n    function getMedicals(address sessionContractAddress)\r\n        external\r\n        view\r\n        isAdmin(msg.sender, sessionContractAddress)\r\n        returns (Medical[] memory)\r\n    {\r\n        return medicals;\r\n    }\r\n\r\n    /**\r\n     * @notice retrieves a medical by a given userId\r\n     * @dev msg.sender addres should be from an administrator role\r\n     * @param sessionContractAddress address of the deployed SessionContract instance\r\n     * @param userId user id from SessionsContrtact Users\r\n     * @custom:modifier isAdmin from ProfileModifier\r\n     * @return Medical medical\r\n     */\r\n    function getMedical(address sessionContractAddress, uint256 userId)\r\n        external\r\n        view\r\n        isAdmin(msg.sender, sessionContractAddress)\r\n        returns (Medical memory)\r\n    {\r\n        return medicals[medicalsMap[userId] - 1];\r\n    }\r\n}\r\n",
  "sourcePath": "D:\\Documents\\React\\Tesis Historias Clinicas\\contracts\\UsersInformation.sol",
  "compiler": {
    "name": "solc",
    "version": "0.8.7+commit.e28d00a7.Emscripten.clang"
  },
  "schemaVersion": "3.4.10",
  "updatedAt": "2022-10-20T08:22:16.314Z",
  "networkType": "ethereum",
  "devdoc": {
    "author": "Blockchain Clinic Records Team",
    "details": "inherits from ProfileModifier to use modifiers",
    "kind": "dev",
    "methods": {
      "addMedical(address,uint256,string,uint256,uint256,string,string)": {
        "custom:modifier": "isAdmin from ProfileModifier",
        "details": "msg.sender addres should be from an administrator role",
        "params": {
          "_birthDate": "medical birth date as uint",
          "_gender": "medical gender",
          "_identificationNumber": "identification of the medical",
          "_name": "medical name",
          "_speciality": "medical specialization",
          "sessionContractAddress": "address of the deployed SessionContract instance",
          "userId": "id from the created user for the medical"
        }
      },
      "addPatient(address,uint256,string,uint256,string,string,string,string,string,string)": {
        "custom:modifier": "isMedical from ProfileModifier",
        "details": "msg.sender addres should be from a doctor or nurse role",
        "params": {
          "_birthDate": "patient birth date as uint",
          "_contactPerson": "person to contact for patients eventuelities",
          "_direction": "patient direction",
          "_gender": "patient gender",
          "_identificationNumber": "identification of the client",
          "_maritalStatus": "patient marital status",
          "_name": "patient name",
          "_occupation": "patient occupation",
          "_phone": "contact phone",
          "sessionContractAddress": "address of the deployed SessionContract instance"
        }
      },
      "getMedical(address,uint256)": {
        "custom:modifier": "isAdmin from ProfileModifier",
        "details": "msg.sender addres should be from an administrator role",
        "params": {
          "sessionContractAddress": "address of the deployed SessionContract instance",
          "userId": "user id from SessionsContrtact Users"
        },
        "returns": {
          "_0": "Medical medical"
        }
      },
      "getMedicals(address)": {
        "custom:modifier": "isAdmin from ProfileModifier",
        "details": "msg.sender addres should be from an administrator role",
        "params": {
          "sessionContractAddress": "address of the deployed SessionContract instance"
        },
        "returns": {
          "_0": "Medical medical array"
        }
      },
      "getPatient(address,uint256)": {
        "custom:modifier": "isMedical from ProfileModifier",
        "details": "msg.sender addres should be from a doctor or nurse role",
        "params": {
          "sessionContractAddress": "address of the deployed SessionContract instance",
          "userIdentification": "patients identification"
        },
        "returns": {
          "_0": "Patient patient"
        }
      },
      "getPatients(address)": {
        "custom:modifier": "isMedical from ProfileModifier",
        "details": "msg.sender addres should be from a doctor or nurse role",
        "params": {
          "sessionContractAddress": "address of the deployed SessionContract instance"
        },
        "returns": {
          "_0": "Patient patients array"
        }
      }
    },
    "title": "SessionContract",
    "version": 1
  },
  "userdoc": {
    "kind": "user",
    "methods": {
      "addMedical(address,uint256,string,uint256,uint256,string,string)": {
        "notice": "register a new medical with its identification data"
      },
      "addPatient(address,uint256,string,uint256,string,string,string,string,string,string)": {
        "notice": "register a new patient with its identification data"
      },
      "getMedical(address,uint256)": {
        "notice": "retrieves a medical by a given userId"
      },
      "getMedicals(address)": {
        "notice": "retrieves all medicals"
      },
      "getPatient(address,uint256)": {
        "notice": "retrieves a patiens by a given user identification"
      },
      "getPatients(address)": {
        "notice": "retrieves all patients"
      }
    },
    "notice": "Contract to mantain and manage Users, Roles and Sessions",
    "version": 1
  }
}