{
  "contractName": "CRBiologicFunctions",
  "abi": [
    {
      "inputs": [],
      "stateMutability": "nonpayable",
      "type": "constructor"
    },
    {
      "inputs": [
        {
          "internalType": "address",
          "name": "sessionContractAddress",
          "type": "address"
        },
        {
          "internalType": "uint256",
          "name": "_identification",
          "type": "uint256"
        }
      ],
      "name": "getBiologicFunctionsByIdentification",
      "outputs": [
        {
          "components": [
            {
              "internalType": "uint256",
              "name": "date",
              "type": "uint256"
            },
            {
              "internalType": "string",
              "name": "urination",
              "type": "string"
            },
            {
              "internalType": "string",
              "name": "stools",
              "type": "string"
            },
            {
              "internalType": "string",
              "name": "appetite",
              "type": "string"
            },
            {
              "internalType": "string",
              "name": "thirst",
              "type": "string"
            },
            {
              "internalType": "string",
              "name": "sleep",
              "type": "string"
            },
            {
              "internalType": "string",
              "name": "other",
              "type": "string"
            }
          ],
          "internalType": "struct BiologicFunctions[]",
          "name": "",
          "type": "tuple[]"
        }
      ],
      "stateMutability": "view",
      "type": "function",
      "constant": true
    },
    {
      "inputs": [
        {
          "internalType": "address",
          "name": "sessionContractAddress",
          "type": "address"
        },
        {
          "internalType": "uint256",
          "name": "_identification",
          "type": "uint256"
        },
        {
          "components": [
            {
              "internalType": "uint256",
              "name": "date",
              "type": "uint256"
            },
            {
              "internalType": "string",
              "name": "urination",
              "type": "string"
            },
            {
              "internalType": "string",
              "name": "stools",
              "type": "string"
            },
            {
              "internalType": "string",
              "name": "appetite",
              "type": "string"
            },
            {
              "internalType": "string",
              "name": "thirst",
              "type": "string"
            },
            {
              "internalType": "string",
              "name": "sleep",
              "type": "string"
            },
            {
              "internalType": "string",
              "name": "other",
              "type": "string"
            }
          ],
          "internalType": "struct BiologicFunctions",
          "name": "_biologicFunctions",
          "type": "tuple"
        }
      ],
      "name": "addBiologicFunctions",
      "outputs": [
        {
          "components": [
            {
              "internalType": "uint256",
              "name": "date",
              "type": "uint256"
            },
            {
              "internalType": "string",
              "name": "urination",
              "type": "string"
            },
            {
              "internalType": "string",
              "name": "stools",
              "type": "string"
            },
            {
              "internalType": "string",
              "name": "appetite",
              "type": "string"
            },
            {
              "internalType": "string",
              "name": "thirst",
              "type": "string"
            },
            {
              "internalType": "string",
              "name": "sleep",
              "type": "string"
            },
            {
              "internalType": "string",
              "name": "other",
              "type": "string"
            }
          ],
          "internalType": "struct BiologicFunctions[]",
          "name": "",
          "type": "tuple[]"
        }
      ],
      "stateMutability": "nonpayable",
      "type": "function"
    }
  ],
  "bytecode": "0x608060405234801561001057600080fd5b506111ad806100206000396000f3fe608060405234801561001057600080fd5b5060043610610052577c01000000000000000000000000000000000000000000000000000000006000350463270e7fb281146100575780636ee5f38914610080575b600080fd5b61006a610065366004610dd2565b610093565b6040516100779190610f8f565b60405180910390f35b61006a61008e366004610da8565b6106eb565b60405160e060020a63c9bae385028152336004820181905260026024830152606091859073ffffffffffffffffffffffffffffffffffffffff82169063c9bae3859060440160206040518083038186803b1580156100f057600080fd5b505afa158015610104573d6000803e3d6000fd5b505050506040513d601f19601f820116820180604052508101906101289190610f19565b806101be575060405160e060020a63c9bae38502815273ffffffffffffffffffffffffffffffffffffffff83811660048301526003602483015282169063c9bae3859060440160206040518083038186803b15801561018657600080fd5b505afa15801561019a573d6000803e3d6000fd5b505050506040513d601f19601f820116820180604052508101906101be9190610f19565b610229576040517f08c379a000000000000000000000000000000000000000000000000000000000815260206004820152601760248201527f73656e646572206973206e6f742061206d65646963616c00000000000000000060448201526064015b60405180910390fd5b6000858152602081815260408220805460018181018355918452928290208751600790940201928355868201518051889493610269938501920190610c59565b5060408201518051610285916002840191602090910190610c59565b50606082015180516102a1916003840191602090910190610c59565b50608082015180516102bd916004840191602090910190610c59565b5060a082015180516102d9916005840191602090910190610c59565b5060c082015180516102f5916006840191602090910190610c59565b5050600180549150600061030883611106565b909155505060008581526020818152604080832080548251818502810185019093528083529193909284015b828210156106dc57838290600052602060002090600702016040518060e001604052908160008201548152602001600182018054610371906110b2565b80601f016020809104026020016040519081016040528092919081815260200182805461039d906110b2565b80156103ea5780601f106103bf576101008083540402835291602001916103ea565b820191906000526020600020905b8154815290600101906020018083116103cd57829003601f168201915b50505050508152602001600282018054610403906110b2565b80601f016020809104026020016040519081016040528092919081815260200182805461042f906110b2565b801561047c5780601f106104515761010080835404028352916020019161047c565b820191906000526020600020905b81548152906001019060200180831161045f57829003601f168201915b50505050508152602001600382018054610495906110b2565b80601f01602080910402602001604051908101604052809291908181526020018280546104c1906110b2565b801561050e5780601f106104e35761010080835404028352916020019161050e565b820191906000526020600020905b8154815290600101906020018083116104f157829003601f168201915b50505050508152602001600482018054610527906110b2565b80601f0160208091040260200160405190810160405280929190818152602001828054610553906110b2565b80156105a05780601f10610575576101008083540402835291602001916105a0565b820191906000526020600020905b81548152906001019060200180831161058357829003601f168201915b505050505081526020016005820180546105b9906110b2565b80601f01602080910402602001604051908101604052809291908181526020018280546105e5906110b2565b80156106325780601f1061060757610100808354040283529160200191610632565b820191906000526020600020905b81548152906001019060200180831161061557829003601f168201915b5050505050815260200160068201805461064b906110b2565b80601f0160208091040260200160405190810160405280929190818152602001828054610677906110b2565b80156106c45780601f10610699576101008083540402835291602001916106c4565b820191906000526020600020905b8154815290600101906020018083116106a757829003601f168201915b50505050508152505081526020019060010190610334565b50505050925050509392505050565b60405160e060020a63c9bae385028152336004820181905260026024830152606091849073ffffffffffffffffffffffffffffffffffffffff82169063c9bae3859060440160206040518083038186803b15801561074857600080fd5b505afa15801561075c573d6000803e3d6000fd5b505050506040513d601f19601f820116820180604052508101906107809190610f19565b80610816575060405160e060020a63c9bae38502815273ffffffffffffffffffffffffffffffffffffffff83811660048301526003602483015282169063c9bae3859060440160206040518083038186803b1580156107de57600080fd5b505afa1580156107f2573d6000803e3d6000fd5b505050506040513d601f19601f820116820180604052508101906108169190610f19565b61087c576040517f08c379a000000000000000000000000000000000000000000000000000000000815260206004820152601760248201527f73656e646572206973206e6f742061206d65646963616c0000000000000000006044820152606401610220565b60008481526020818152604080832080548251818502810185019093528083529193909284015b82821015610c4b57838290600052602060002090600702016040518060e0016040529081600082015481526020016001820180546108e0906110b2565b80601f016020809104026020016040519081016040528092919081815260200182805461090c906110b2565b80156109595780601f1061092e57610100808354040283529160200191610959565b820191906000526020600020905b81548152906001019060200180831161093c57829003601f168201915b50505050508152602001600282018054610972906110b2565b80601f016020809104026020016040519081016040528092919081815260200182805461099e906110b2565b80156109eb5780601f106109c0576101008083540402835291602001916109eb565b820191906000526020600020905b8154815290600101906020018083116109ce57829003601f168201915b50505050508152602001600382018054610a04906110b2565b80601f0160208091040260200160405190810160405280929190818152602001828054610a30906110b2565b8015610a7d5780601f10610a5257610100808354040283529160200191610a7d565b820191906000526020600020905b815481529060010190602001808311610a6057829003601f168201915b50505050508152602001600482018054610a96906110b2565b80601f0160208091040260200160405190810160405280929190818152602001828054610ac2906110b2565b8015610b0f5780601f10610ae457610100808354040283529160200191610b0f565b820191906000526020600020905b815481529060010190602001808311610af257829003601f168201915b50505050508152602001600582018054610b28906110b2565b80601f0160208091040260200160405190810160405280929190818152602001828054610b54906110b2565b8015610ba15780601f10610b7657610100808354040283529160200191610ba1565b820191906000526020600020905b815481529060010190602001808311610b8457829003601f168201915b50505050508152602001600682018054610bba906110b2565b80601f0160208091040260200160405190810160405280929190818152602001828054610be6906110b2565b8015610c335780601f10610c0857610100808354040283529160200191610c33565b820191906000526020600020905b815481529060010190602001808311610c1657829003601f168201915b505050505081525050815260200190600101906108a3565b505050509250505092915050565b828054610c65906110b2565b90600052602060002090601f016020900481019282610c875760008555610ccd565b82601f10610ca057805160ff1916838001178555610ccd565b82800160010185558215610ccd579182015b82811115610ccd578251825591602001919060010190610cb2565b50610cd9929150610cdd565b5090565b5b80821115610cd95760008155600101610cde565b803573ffffffffffffffffffffffffffffffffffffffff81168114610d1657600080fd5b919050565b600082601f830112610d2c57600080fd5b813567ffffffffffffffff80821115610d4757610d47611148565b604051601f8301601f19908116603f01168101908282118183101715610d6f57610d6f611148565b81604052838152866020858801011115610d8857600080fd5b836020870160208301376000602085830101528094505050505092915050565b60008060408385031215610dbb57600080fd5b610dc483610cf2565b946020939093013593505050565b600080600060608486031215610de757600080fd5b610df084610cf2565b925060208401359150604084013567ffffffffffffffff80821115610e1457600080fd5b9085019060e08288031215610e2857600080fd5b610e30611089565b82358152602083013582811115610e4657600080fd5b610e5289828601610d1b565b602083015250604083013582811115610e6a57600080fd5b610e7689828601610d1b565b604083015250606083013582811115610e8e57600080fd5b610e9a89828601610d1b565b606083015250608083013582811115610eb257600080fd5b610ebe89828601610d1b565b60808301525060a083013582811115610ed657600080fd5b610ee289828601610d1b565b60a08301525060c083013582811115610efa57600080fd5b610f0689828601610d1b565b60c0830152508093505050509250925092565b600060208284031215610f2b57600080fd5b81518015158114610f3b57600080fd5b9392505050565b6000815180845260005b81811015610f6857602081850181015186830182015201610f4c565b81811115610f7a576000602083870101525b50601f01601f19169290920160200192915050565b60208082528251828201819052600091906040908185019080840286018301878501865b8381101561107b57603f19898403018552815160e08151855288820151818a870152610fe182870182610f42565b9150508782015185820389870152610ff98282610f42565b915050606080830151868303828801526110138382610f42565b925050506080808301518683038288015261102e8382610f42565b9250505060a080830151868303828801526110498382610f42565b9250505060c080830151925085820381870152506110678183610f42565b968901969450505090860190600101610fb3565b509098975050505050505050565b60405160e0810167ffffffffffffffff811182821017156110ac576110ac611148565b60405290565b6002810460018216806110c657607f821691505b60208210811415611100577f4e487b7100000000000000000000000000000000000000000000000000000000600052602260045260246000fd5b50919050565b6000600019821415611141577f4e487b7100000000000000000000000000000000000000000000000000000000600052601160045260246000fd5b5060010190565b7f4e487b7100000000000000000000000000000000000000000000000000000000600052604160045260246000fdfea26469706673582212202968fc5776afe3fb058420f7df88c0c3d08c2ca3d0c3d6133248931d4304b16764736f6c63430008070033",
  "immutableReferences": {},
  "source": "// SPDX-License-Identifier: GPL-3.0\r\npragma solidity ^0.8.7;\r\n\r\nimport \"./ProfileModifier.sol\";\r\n\r\nstruct BiologicFunctions {\r\n    uint256 date;\r\n    string urination;\r\n    string stools;\r\n    string appetite;\r\n    string thirst;\r\n    string sleep;\r\n    string other;\r\n}\r\n\r\n/**\r\n * @author Blockchain Clinic Records Team\r\n * @dev inherits from ProfileModifier to use modifiers\r\n * @title CRBiologicFunctions\r\n * @notice Contract to mantain and manage a Clinical Record's Biologic Functions of patients\r\n */\r\ncontract CRBiologicFunctions is ProfileModifier {\r\n    //maps from patient identifier to BiologicFunctions\r\n    mapping(uint256 => BiologicFunctions[]) crBiologicFunctionsMap;\r\n    uint256 crBiologicFunctionsMapLength;\r\n\r\n    constructor() {}\r\n\r\n    /**\r\n     * @notice retrieves the BiologicFunctions info by a given identification of patient\r\n     * @param sessionContractAddress address of the deployed SessionContract instance\r\n     * @param _identification identification of the patient\r\n     * @return BiologicFunctions BiologicFunctions array\r\n     */\r\n    function getBiologicFunctionsByIdentification(\r\n        address sessionContractAddress,\r\n        uint256 _identification\r\n    )\r\n        external\r\n        view\r\n        isMedical(msg.sender, sessionContractAddress)\r\n        returns (BiologicFunctions[] memory)\r\n    {\r\n        return crBiologicFunctionsMap[_identification];\r\n    }\r\n\r\n    /**\r\n     * @notice register a new BiologicFunctions info by a given identification of patient\r\n     * @param sessionContractAddress address of the deployed SessionContract instance\r\n     * @param _identification identification of the patient\r\n     * @param _biologicFunctions information value with BiologicFunctions struct\r\n     * @return BiologicFunctions BiologicFunctions array\r\n     */\r\n    function addBiologicFunctions(\r\n        address sessionContractAddress,\r\n        uint256 _identification,\r\n        BiologicFunctions memory _biologicFunctions\r\n    )\r\n        external\r\n        isMedical(msg.sender, sessionContractAddress)\r\n        returns (BiologicFunctions[] memory)\r\n    {\r\n        crBiologicFunctionsMap[_identification].push(_biologicFunctions);\r\n        crBiologicFunctionsMapLength++;\r\n        return crBiologicFunctionsMap[_identification];\r\n    }\r\n}\r\n",
  "sourcePath": "D:\\Documents\\React\\Tesis Historias Clinicas\\contracts\\CRBiologicFunctions.sol",
  "compiler": {
    "name": "solc",
    "version": "0.8.7+commit.e28d00a7.Emscripten.clang"
  },
  "schemaVersion": "3.4.10",
  "updatedAt": "2022-10-08T07:26:34.073Z",
  "networkType": "ethereum",
  "devdoc": {
    "author": "Blockchain Clinic Records Team",
    "details": "inherits from ProfileModifier to use modifiers",
    "kind": "dev",
    "methods": {
      "addBiologicFunctions(address,uint256,(uint256,string,string,string,string,string,string))": {
        "params": {
          "_biologicFunctions": "information value with BiologicFunctions struct",
          "_identification": "identification of the patient",
          "sessionContractAddress": "address of the deployed SessionContract instance"
        },
        "returns": {
          "_0": "BiologicFunctions BiologicFunctions array"
        }
      },
      "getBiologicFunctionsByIdentification(address,uint256)": {
        "params": {
          "_identification": "identification of the patient",
          "sessionContractAddress": "address of the deployed SessionContract instance"
        },
        "returns": {
          "_0": "BiologicFunctions BiologicFunctions array"
        }
      }
    },
    "title": "CRBiologicFunctions",
    "version": 1
  },
  "userdoc": {
    "kind": "user",
    "methods": {
      "addBiologicFunctions(address,uint256,(uint256,string,string,string,string,string,string))": {
        "notice": "register a new BiologicFunctions info by a given identification of patient"
      },
      "getBiologicFunctionsByIdentification(address,uint256)": {
        "notice": "retrieves the BiologicFunctions info by a given identification of patient"
      }
    },
    "notice": "Contract to mantain and manage a Clinical Record's Biologic Functions of patients",
    "version": 1
  }
}