{
  "contractName": "CRClinicalAssessment",
  "abi": [
    {
      "inputs": [],
      "stateMutability": "nonpayable",
      "type": "constructor"
    },
    {
      "inputs": [
        {
          "internalType": "address",
          "name": "sessionContractAddress",
          "type": "address"
        },
        {
          "internalType": "uint256",
          "name": "_identification",
          "type": "uint256"
        }
      ],
      "name": "getClinicalAssessmentByIdentification",
      "outputs": [
        {
          "components": [
            {
              "internalType": "uint256",
              "name": "date",
              "type": "uint256"
            },
            {
              "internalType": "bool",
              "name": "bath",
              "type": "bool"
            },
            {
              "internalType": "bool",
              "name": "dress",
              "type": "bool"
            },
            {
              "internalType": "bool",
              "name": "hygienicService",
              "type": "bool"
            },
            {
              "internalType": "bool",
              "name": "movilization",
              "type": "bool"
            },
            {
              "internalType": "bool",
              "name": "incontinence",
              "type": "bool"
            },
            {
              "internalType": "bool",
              "name": "feeding",
              "type": "bool"
            }
          ],
          "internalType": "struct ClinicalAssessment[]",
          "name": "",
          "type": "tuple[]"
        }
      ],
      "stateMutability": "view",
      "type": "function",
      "constant": true
    },
    {
      "inputs": [
        {
          "internalType": "address",
          "name": "sessionContractAddress",
          "type": "address"
        },
        {
          "internalType": "uint256",
          "name": "_identification",
          "type": "uint256"
        },
        {
          "components": [
            {
              "internalType": "uint256",
              "name": "date",
              "type": "uint256"
            },
            {
              "internalType": "bool",
              "name": "bath",
              "type": "bool"
            },
            {
              "internalType": "bool",
              "name": "dress",
              "type": "bool"
            },
            {
              "internalType": "bool",
              "name": "hygienicService",
              "type": "bool"
            },
            {
              "internalType": "bool",
              "name": "movilization",
              "type": "bool"
            },
            {
              "internalType": "bool",
              "name": "incontinence",
              "type": "bool"
            },
            {
              "internalType": "bool",
              "name": "feeding",
              "type": "bool"
            }
          ],
          "internalType": "struct ClinicalAssessment",
          "name": "_clinicalAssessment",
          "type": "tuple"
        }
      ],
      "name": "addClinicalAssessment",
      "outputs": [
        {
          "components": [
            {
              "internalType": "uint256",
              "name": "date",
              "type": "uint256"
            },
            {
              "internalType": "bool",
              "name": "bath",
              "type": "bool"
            },
            {
              "internalType": "bool",
              "name": "dress",
              "type": "bool"
            },
            {
              "internalType": "bool",
              "name": "hygienicService",
              "type": "bool"
            },
            {
              "internalType": "bool",
              "name": "movilization",
              "type": "bool"
            },
            {
              "internalType": "bool",
              "name": "incontinence",
              "type": "bool"
            },
            {
              "internalType": "bool",
              "name": "feeding",
              "type": "bool"
            }
          ],
          "internalType": "struct ClinicalAssessment[]",
          "name": "",
          "type": "tuple[]"
        }
      ],
      "stateMutability": "nonpayable",
      "type": "function"
    }
  ],
  "bytecode": "0x608060405234801561001057600080fd5b506108cd806100206000396000f3fe608060405234801561001057600080fd5b5060043610610052577c010000000000000000000000000000000000000000000000000000000060003504631638e15d811461005757806386cb14d814610080575b600080fd5b61006a610065366004610666565b610093565b60405161007791906107b6565b60405180910390f35b61006a61008e366004610690565b6102f7565b60405160e060020a63c9bae385028152336004820181905260026024830152606091849073ffffffffffffffffffffffffffffffffffffffff82169063c9bae3859060440160206040518083038186803b1580156100f057600080fd5b505afa158015610104573d6000803e3d6000fd5b505050506040513d601f19601f820116820180604052508101906101289190610792565b806101be575060405160e060020a63c9bae38502815273ffffffffffffffffffffffffffffffffffffffff83811660048301526003602483015282169063c9bae3859060440160206040518083038186803b15801561018657600080fd5b505afa15801561019a573d6000803e3d6000fd5b505050506040513d601f19601f820116820180604052508101906101be9190610792565b610229576040517f08c379a000000000000000000000000000000000000000000000000000000000815260206004820152601760248201527f73656e646572206973206e6f742061206d65646963616c00000000000000000060448201526064015b60405180910390fd5b60008481526020818152604080832080548251818502810185019093528083529193909284015b828210156102e95760008481526020908190206040805160e081018252600286029092018054835260019081015460ff808216151585870152610100820481161515938501939093526201000081048316151560608501526301000000810483161515608085015264010000000081048316151560a0850152650100000000009004909116151560c08301529083529092019101610250565b505050509250505092915050565b60405160e060020a63c9bae385028152336004820181905260026024830152606091859073ffffffffffffffffffffffffffffffffffffffff82169063c9bae3859060440160206040518083038186803b15801561035457600080fd5b505afa158015610368573d6000803e3d6000fd5b505050506040513d601f19601f8201168201806040525081019061038c9190610792565b80610422575060405160e060020a63c9bae38502815273ffffffffffffffffffffffffffffffffffffffff83811660048301526003602483015282169063c9bae3859060440160206040518083038186803b1580156103ea57600080fd5b505afa1580156103fe573d6000803e3d6000fd5b505050506040513d601f19601f820116820180604052508101906104229190610792565b610488576040517f08c379a000000000000000000000000000000000000000000000000000000000815260206004820152601760248201527f73656e646572206973206e6f742061206d65646963616c0000000000000000006044820152606401610220565b60008581526020818152604080832080546001808201835591855283852089516002909202019081559288015192810180549289015160608a015160808b015160a08c015160c08d015161ffff1990971697151561ff00191697909717610100931515939093029290921763ffff00001916620100009115159190910263ff0000001916176301000000911515919091021765ffff0000000019166401000000009415159490940265ff000000000019169390931765010000000000921515929092029190911790915580549161055e83610844565b909155505060008581526020818152604080832080548251818502810185019093528083529193909284015b828210156106235760008481526020908190206040805160e081018252600286029092018054835260019081015460ff808216151585870152610100820481161515938501939093526201000081048316151560608501526301000000810483161515608085015264010000000081048316151560a0850152650100000000009004909116151560c0830152908352909201910161058a565b50505050925050509392505050565b803573ffffffffffffffffffffffffffffffffffffffff8116811461065657600080fd5b919050565b803561065681610886565b6000806040838503121561067957600080fd5b61068283610632565b946020939093013593505050565b60008060008385036101208112156106a757600080fd5b6106b085610632565b93506020850135925060e0603f19820112156106cb57600080fd5b5060405160e0810181811067ffffffffffffffff82111715610716577f4e487b7100000000000000000000000000000000000000000000000000000000600052604160045260246000fd5b6040908152850135815261072c6060860161065b565b602082015261073d6080860161065b565b604082015261074e60a0860161065b565b606082015261075f60c0860161065b565b608082015261077060e0860161065b565b60a0820152610782610100860161065b565b60c0820152809150509250925092565b6000602082840312156107a457600080fd5b81516107af81610886565b9392505050565b602080825282518282018190526000919060409081850190868401855b8281101561083757815180518552868101511515878601528581015115158686015260608082015115159086015260808082015115159086015260a08082015115159086015260c09081015115159085015260e090930192908501906001016107d3565b5091979650505050505050565b600060001982141561087f577f4e487b7100000000000000000000000000000000000000000000000000000000600052601160045260246000fd5b5060010190565b801515811461089457600080fd5b5056fea26469706673582212208521c07bc045e38b5abddba01db2b2be6579cec5f2b7458f1cc53bc06940126464736f6c63430008070033",
  "immutableReferences": {},
  "source": "// SPDX-License-Identifier: GPL-3.0\r\npragma solidity ^0.8.7;\r\n\r\nimport \"./ProfileModifier.sol\";\r\n\r\nstruct ClinicalAssessment {\r\n    uint256 date;\r\n    bool bath;\r\n    bool dress;\r\n    bool hygienicService;\r\n    bool movilization;\r\n    bool incontinence;\r\n    bool feeding;\r\n}\r\n\r\n/**\r\n * @author Blockchain Clinic Records Team\r\n * @dev inherits from ProfileModifier to use modifiers\r\n * @title CRClinicalAssessment\r\n * @notice Contract to mantain and manage a Clinical Record's Clinical Assessments of patients\r\n */\r\ncontract CRClinicalAssessment is ProfileModifier {\r\n    //maps from patient identifier to ClinicalAssessment\r\n    mapping(uint256 => ClinicalAssessment[]) crClinicalAssessmentMap;\r\n    uint256 crClinicalAssessmentMapLength;\r\n\r\n    constructor() {}\r\n\r\n    /**\r\n     * @notice retrieves the ClinicalAssessment info by a given identification of patient\r\n     * @param sessionContractAddress address of the deployed SessionContract instance\r\n     * @param _identification identification of the patient\r\n     * @return ClinicalAssessment ClinicalAssessment array\r\n     */\r\n    function getClinicalAssessmentByIdentification(\r\n        address sessionContractAddress,\r\n        uint256 _identification\r\n    )\r\n        external\r\n        view\r\n        isMedical(msg.sender, sessionContractAddress)\r\n        returns (ClinicalAssessment[] memory)\r\n    {\r\n        return crClinicalAssessmentMap[_identification];\r\n    }\r\n\r\n    /**\r\n     * @notice register a new ClinicalAssessment info by a given identification of patient\r\n     * @param sessionContractAddress address of the deployed SessionContract instance\r\n     * @param _identification identification of the patient\r\n     * @param _clinicalAssessment information value with ClinicalAssessment struct\r\n     * @return ClinicalAssessment ClinicalAssessment array\r\n     */\r\n    function addClinicalAssessment(\r\n        address sessionContractAddress,\r\n        uint256 _identification,\r\n        ClinicalAssessment memory _clinicalAssessment\r\n    )\r\n        external\r\n        isMedical(msg.sender, sessionContractAddress)\r\n        returns (ClinicalAssessment[] memory)\r\n    {\r\n        crClinicalAssessmentMap[_identification].push(_clinicalAssessment);\r\n        crClinicalAssessmentMapLength++;\r\n        return crClinicalAssessmentMap[_identification];\r\n    }\r\n}\r\n",
  "sourcePath": "D:\\Documents\\React\\Tesis Historias Clinicas\\contracts\\CRClinicalAssessment.sol",
  "compiler": {
    "name": "solc",
    "version": "0.8.7+commit.e28d00a7.Emscripten.clang"
  },
  "schemaVersion": "3.4.10",
  "updatedAt": "2022-10-20T08:22:19.821Z",
  "networkType": "ethereum",
  "devdoc": {
    "author": "Blockchain Clinic Records Team",
    "details": "inherits from ProfileModifier to use modifiers",
    "kind": "dev",
    "methods": {
      "addClinicalAssessment(address,uint256,(uint256,bool,bool,bool,bool,bool,bool))": {
        "params": {
          "_clinicalAssessment": "information value with ClinicalAssessment struct",
          "_identification": "identification of the patient",
          "sessionContractAddress": "address of the deployed SessionContract instance"
        },
        "returns": {
          "_0": "ClinicalAssessment ClinicalAssessment array"
        }
      },
      "getClinicalAssessmentByIdentification(address,uint256)": {
        "params": {
          "_identification": "identification of the patient",
          "sessionContractAddress": "address of the deployed SessionContract instance"
        },
        "returns": {
          "_0": "ClinicalAssessment ClinicalAssessment array"
        }
      }
    },
    "title": "CRClinicalAssessment",
    "version": 1
  },
  "userdoc": {
    "kind": "user",
    "methods": {
      "addClinicalAssessment(address,uint256,(uint256,bool,bool,bool,bool,bool,bool))": {
        "notice": "register a new ClinicalAssessment info by a given identification of patient"
      },
      "getClinicalAssessmentByIdentification(address,uint256)": {
        "notice": "retrieves the ClinicalAssessment info by a given identification of patient"
      }
    },
    "notice": "Contract to mantain and manage a Clinical Record's Clinical Assessments of patients",
    "version": 1
  }
}