{
  "contractName": "CRPatologicalHistory",
  "abi": [
    {
      "inputs": [],
      "stateMutability": "nonpayable",
      "type": "constructor"
    },
    {
      "inputs": [
        {
          "internalType": "address",
          "name": "sessionContractAddress",
          "type": "address"
        },
        {
          "internalType": "uint256",
          "name": "_identification",
          "type": "uint256"
        }
      ],
      "name": "getPatologicalHistoryByIdentification",
      "outputs": [
        {
          "components": [
            {
              "internalType": "uint256",
              "name": "date",
              "type": "uint256"
            },
            {
              "internalType": "string",
              "name": "congenitalDiseases",
              "type": "string"
            },
            {
              "internalType": "string",
              "name": "childhoodDiseases",
              "type": "string"
            },
            {
              "internalType": "string",
              "name": "surgicals",
              "type": "string"
            },
            {
              "internalType": "string",
              "name": "transfusions",
              "type": "string"
            },
            {
              "internalType": "string",
              "name": "drugAllergy",
              "type": "string"
            },
            {
              "internalType": "string",
              "name": "harmfullHabits",
              "type": "string"
            },
            {
              "internalType": "string",
              "name": "hospitalizations",
              "type": "string"
            },
            {
              "internalType": "string",
              "name": "other",
              "type": "string"
            }
          ],
          "internalType": "struct PatologicalHistory[]",
          "name": "",
          "type": "tuple[]"
        }
      ],
      "stateMutability": "view",
      "type": "function",
      "constant": true
    },
    {
      "inputs": [
        {
          "internalType": "address",
          "name": "sessionContractAddress",
          "type": "address"
        },
        {
          "internalType": "uint256",
          "name": "_identification",
          "type": "uint256"
        },
        {
          "components": [
            {
              "internalType": "uint256",
              "name": "date",
              "type": "uint256"
            },
            {
              "internalType": "string",
              "name": "congenitalDiseases",
              "type": "string"
            },
            {
              "internalType": "string",
              "name": "childhoodDiseases",
              "type": "string"
            },
            {
              "internalType": "string",
              "name": "surgicals",
              "type": "string"
            },
            {
              "internalType": "string",
              "name": "transfusions",
              "type": "string"
            },
            {
              "internalType": "string",
              "name": "drugAllergy",
              "type": "string"
            },
            {
              "internalType": "string",
              "name": "harmfullHabits",
              "type": "string"
            },
            {
              "internalType": "string",
              "name": "hospitalizations",
              "type": "string"
            },
            {
              "internalType": "string",
              "name": "other",
              "type": "string"
            }
          ],
          "internalType": "struct PatologicalHistory",
          "name": "_patologicalHistory",
          "type": "tuple"
        }
      ],
      "name": "addPatologicalHistory",
      "outputs": [
        {
          "components": [
            {
              "internalType": "uint256",
              "name": "date",
              "type": "uint256"
            },
            {
              "internalType": "string",
              "name": "congenitalDiseases",
              "type": "string"
            },
            {
              "internalType": "string",
              "name": "childhoodDiseases",
              "type": "string"
            },
            {
              "internalType": "string",
              "name": "surgicals",
              "type": "string"
            },
            {
              "internalType": "string",
              "name": "transfusions",
              "type": "string"
            },
            {
              "internalType": "string",
              "name": "drugAllergy",
              "type": "string"
            },
            {
              "internalType": "string",
              "name": "harmfullHabits",
              "type": "string"
            },
            {
              "internalType": "string",
              "name": "hospitalizations",
              "type": "string"
            },
            {
              "internalType": "string",
              "name": "other",
              "type": "string"
            }
          ],
          "internalType": "struct PatologicalHistory[]",
          "name": "",
          "type": "tuple[]"
        }
      ],
      "stateMutability": "nonpayable",
      "type": "function"
    }
  ],
  "bytecode": "0x608060405234801561001057600080fd5b506114b4806100206000396000f3fe608060405234801561001057600080fd5b5060043610610052577c01000000000000000000000000000000000000000000000000000000006000350463727be97d8114610057578063caca3faa14610080575b600080fd5b61006a610065366004611055565b610093565b604051610077919061125d565b60405180910390f35b61006a61008e36600461102b565b610849565b60405160e060020a63c9bae385028152336004820181905260026024830152606091859073ffffffffffffffffffffffffffffffffffffffff82169063c9bae3859060440160206040518083038186803b1580156100f057600080fd5b505afa158015610104573d6000803e3d6000fd5b505050506040513d601f19601f8201168201806040525081019061012891906111e7565b806101be575060405160e060020a63c9bae38502815273ffffffffffffffffffffffffffffffffffffffff83811660048301526003602483015282169063c9bae3859060440160206040518083038186803b15801561018657600080fd5b505afa15801561019a573d6000803e3d6000fd5b505050506040513d601f19601f820116820180604052508101906101be91906111e7565b610229576040517f08c379a000000000000000000000000000000000000000000000000000000000815260206004820152601760248201527f73656e646572206973206e6f742061206d65646963616c00000000000000000060448201526064015b60405180910390fd5b6000858152602081815260408220805460018181018355918452928290208751600990940201928355868201518051889493610269938501920190610edc565b5060408201518051610285916002840191602090910190610edc565b50606082015180516102a1916003840191602090910190610edc565b50608082015180516102bd916004840191602090910190610edc565b5060a082015180516102d9916005840191602090910190610edc565b5060c082015180516102f5916006840191602090910190610edc565b5060e08201518051610311916007840191602090910190610edc565b50610100820151805161032e916008840191602090910190610edc565b505060018054915060006103418361140d565b909155505060008581526020818152604080832080548251818502810185019093528083529193909284015b8282101561083a578382906000526020600020906009020160405180610120016040529081600082015481526020016001820180546103ab906113b9565b80601f01602080910402602001604051908101604052809291908181526020018280546103d7906113b9565b80156104245780601f106103f957610100808354040283529160200191610424565b820191906000526020600020905b81548152906001019060200180831161040757829003601f168201915b5050505050815260200160028201805461043d906113b9565b80601f0160208091040260200160405190810160405280929190818152602001828054610469906113b9565b80156104b65780601f1061048b576101008083540402835291602001916104b6565b820191906000526020600020905b81548152906001019060200180831161049957829003601f168201915b505050505081526020016003820180546104cf906113b9565b80601f01602080910402602001604051908101604052809291908181526020018280546104fb906113b9565b80156105485780601f1061051d57610100808354040283529160200191610548565b820191906000526020600020905b81548152906001019060200180831161052b57829003601f168201915b50505050508152602001600482018054610561906113b9565b80601f016020809104026020016040519081016040528092919081815260200182805461058d906113b9565b80156105da5780601f106105af576101008083540402835291602001916105da565b820191906000526020600020905b8154815290600101906020018083116105bd57829003601f168201915b505050505081526020016005820180546105f3906113b9565b80601f016020809104026020016040519081016040528092919081815260200182805461061f906113b9565b801561066c5780601f106106415761010080835404028352916020019161066c565b820191906000526020600020905b81548152906001019060200180831161064f57829003601f168201915b50505050508152602001600682018054610685906113b9565b80601f01602080910402602001604051908101604052809291908181526020018280546106b1906113b9565b80156106fe5780601f106106d3576101008083540402835291602001916106fe565b820191906000526020600020905b8154815290600101906020018083116106e157829003601f168201915b50505050508152602001600782018054610717906113b9565b80601f0160208091040260200160405190810160405280929190818152602001828054610743906113b9565b80156107905780601f1061076557610100808354040283529160200191610790565b820191906000526020600020905b81548152906001019060200180831161077357829003601f168201915b505050505081526020016008820180546107a9906113b9565b80601f01602080910402602001604051908101604052809291908181526020018280546107d5906113b9565b80156108225780601f106107f757610100808354040283529160200191610822565b820191906000526020600020905b81548152906001019060200180831161080557829003601f168201915b5050505050815250508152602001906001019061036d565b50505050925050509392505050565b60405160e060020a63c9bae385028152336004820181905260026024830152606091849073ffffffffffffffffffffffffffffffffffffffff82169063c9bae3859060440160206040518083038186803b1580156108a657600080fd5b505afa1580156108ba573d6000803e3d6000fd5b505050506040513d601f19601f820116820180604052508101906108de91906111e7565b80610974575060405160e060020a63c9bae38502815273ffffffffffffffffffffffffffffffffffffffff83811660048301526003602483015282169063c9bae3859060440160206040518083038186803b15801561093c57600080fd5b505afa158015610950573d6000803e3d6000fd5b505050506040513d601f19601f8201168201806040525081019061097491906111e7565b6109da576040517f08c379a000000000000000000000000000000000000000000000000000000000815260206004820152601760248201527f73656e646572206973206e6f742061206d65646963616c0000000000000000006044820152606401610220565b60008481526020818152604080832080548251818502810185019093528083529193909284015b82821015610ece57838290600052602060002090600902016040518061012001604052908160008201548152602001600182018054610a3f906113b9565b80601f0160208091040260200160405190810160405280929190818152602001828054610a6b906113b9565b8015610ab85780601f10610a8d57610100808354040283529160200191610ab8565b820191906000526020600020905b815481529060010190602001808311610a9b57829003601f168201915b50505050508152602001600282018054610ad1906113b9565b80601f0160208091040260200160405190810160405280929190818152602001828054610afd906113b9565b8015610b4a5780601f10610b1f57610100808354040283529160200191610b4a565b820191906000526020600020905b815481529060010190602001808311610b2d57829003601f168201915b50505050508152602001600382018054610b63906113b9565b80601f0160208091040260200160405190810160405280929190818152602001828054610b8f906113b9565b8015610bdc5780601f10610bb157610100808354040283529160200191610bdc565b820191906000526020600020905b815481529060010190602001808311610bbf57829003601f168201915b50505050508152602001600482018054610bf5906113b9565b80601f0160208091040260200160405190810160405280929190818152602001828054610c21906113b9565b8015610c6e5780601f10610c4357610100808354040283529160200191610c6e565b820191906000526020600020905b815481529060010190602001808311610c5157829003601f168201915b50505050508152602001600582018054610c87906113b9565b80601f0160208091040260200160405190810160405280929190818152602001828054610cb3906113b9565b8015610d005780601f10610cd557610100808354040283529160200191610d00565b820191906000526020600020905b815481529060010190602001808311610ce357829003601f168201915b50505050508152602001600682018054610d19906113b9565b80601f0160208091040260200160405190810160405280929190818152602001828054610d45906113b9565b8015610d925780601f10610d6757610100808354040283529160200191610d92565b820191906000526020600020905b815481529060010190602001808311610d7557829003601f168201915b50505050508152602001600782018054610dab906113b9565b80601f0160208091040260200160405190810160405280929190818152602001828054610dd7906113b9565b8015610e245780601f10610df957610100808354040283529160200191610e24565b820191906000526020600020905b815481529060010190602001808311610e0757829003601f168201915b50505050508152602001600882018054610e3d906113b9565b80601f0160208091040260200160405190810160405280929190818152602001828054610e69906113b9565b8015610eb65780601f10610e8b57610100808354040283529160200191610eb6565b820191906000526020600020905b815481529060010190602001808311610e9957829003601f168201915b50505050508152505081526020019060010190610a01565b505050509250505092915050565b828054610ee8906113b9565b90600052602060002090601f016020900481019282610f0a5760008555610f50565b82601f10610f2357805160ff1916838001178555610f50565b82800160010185558215610f50579182015b82811115610f50578251825591602001919060010190610f35565b50610f5c929150610f60565b5090565b5b80821115610f5c5760008155600101610f61565b803573ffffffffffffffffffffffffffffffffffffffff81168114610f9957600080fd5b919050565b600082601f830112610faf57600080fd5b813567ffffffffffffffff80821115610fca57610fca61144f565b604051601f8301601f19908116603f01168101908282118183101715610ff257610ff261144f565b8160405283815286602085880101111561100b57600080fd5b836020870160208301376000602085830101528094505050505092915050565b6000806040838503121561103e57600080fd5b61104783610f75565b946020939093013593505050565b60008060006060848603121561106a57600080fd5b61107384610f75565b925060208401359150604084013567ffffffffffffffff8082111561109757600080fd5b9085019061012082880312156110ac57600080fd5b6110b461138f565b823581526020830135828111156110ca57600080fd5b6110d689828601610f9e565b6020830152506040830135828111156110ee57600080fd5b6110fa89828601610f9e565b60408301525060608301358281111561111257600080fd5b61111e89828601610f9e565b60608301525060808301358281111561113657600080fd5b61114289828601610f9e565b60808301525060a08301358281111561115a57600080fd5b61116689828601610f9e565b60a08301525060c08301358281111561117e57600080fd5b61118a89828601610f9e565b60c08301525060e0830135828111156111a257600080fd5b6111ae89828601610f9e565b60e08301525061010080840135838111156111c857600080fd5b6111d48a828701610f9e565b8284015250508093505050509250925092565b6000602082840312156111f957600080fd5b8151801515811461120957600080fd5b9392505050565b6000815180845260005b818110156112365760208185018101518683018201520161121a565b81811115611248576000602083870101525b50601f01601f19169290920160200192915050565b60208082528251828201819052600091906040908185019080840286018301878501865b8381101561138157603f1989840301855281516101208151855288820151818a8701526112b082870182611210565b91505087820151858203898701526112c88282611210565b915050606080830151868303828801526112e28382611210565b92505050608080830151868303828801526112fd8382611210565b9250505060a080830151868303828801526113188382611210565b9250505060c080830151868303828801526113338382611210565b9250505060e0808301518683038288015261134e8382611210565b92505050610100808301519250858203818701525061136d8183611210565b968901969450505090860190600101611281565b509098975050505050505050565b604051610120810167ffffffffffffffff811182821017156113b3576113b361144f565b60405290565b6002810460018216806113cd57607f821691505b60208210811415611407577f4e487b7100000000000000000000000000000000000000000000000000000000600052602260045260246000fd5b50919050565b6000600019821415611448577f4e487b7100000000000000000000000000000000000000000000000000000000600052601160045260246000fd5b5060010190565b7f4e487b7100000000000000000000000000000000000000000000000000000000600052604160045260246000fdfea2646970667358221220d30b3a807be20cdf3dd67d20c99dfc84d19542b721fc0e9ce782c3fc84f554e264736f6c63430008070033",
  "immutableReferences": {},
  "source": "// SPDX-License-Identifier: GPL-3.0\r\npragma solidity ^0.8.7;\r\n\r\nimport \"./ProfileModifier.sol\";\r\n\r\nstruct PatologicalHistory {\r\n    uint256 date;\r\n    string congenitalDiseases;\r\n    string childhoodDiseases;\r\n    string surgicals;\r\n    string transfusions;\r\n    string drugAllergy;\r\n    string harmfullHabits;\r\n    string hospitalizations;\r\n    string other;\r\n}\r\n\r\n/**\r\n * @author Blockchain Clinic Records Team\r\n * @dev inherits from ProfileModifier to use modifiers\r\n * @title CRPatologicalHistory\r\n * @notice Contract to mantain and manage a Clinical Record's Patologycal History of patients\r\n */\r\ncontract CRPatologicalHistory is ProfileModifier {\r\n    mapping(uint256 => PatologicalHistory[]) crPatologicalHistoryMap;\r\n    uint256 crPatologicalHistoryMapLength;\r\n\r\n    constructor() {}\r\n\r\n    /**\r\n     * @notice retrieves the PatologicalHistory info by a given identification of patient\r\n     * @param sessionContractAddress address of the deployed SessionContract instance\r\n     * @param _identification identification of the patient\r\n     * @return SyndromesGeriatricProblems PatologicalHistory array\r\n     */\r\n    function getPatologicalHistoryByIdentification(\r\n        address sessionContractAddress,\r\n        uint256 _identification\r\n    )\r\n        external\r\n        view\r\n        isMedical(msg.sender, sessionContractAddress)\r\n        returns (PatologicalHistory[] memory)\r\n    {\r\n        return crPatologicalHistoryMap[_identification];\r\n    }\r\n\r\n    /**\r\n     * @notice register a new PatologicalHistory info by a given identification of patient\r\n     * @param sessionContractAddress address of the deployed SessionContract instance\r\n     * @param _identification identification of the patient\r\n     * @param _patologicalHistory information value with PatologicalHistory struct\r\n     * @return PatologicalHistory PatologicalHistory array\r\n     */\r\n    function addPatologicalHistory(\r\n        address sessionContractAddress,\r\n        uint256 _identification,\r\n        PatologicalHistory memory _patologicalHistory\r\n    )\r\n        external\r\n        isMedical(msg.sender, sessionContractAddress)\r\n        returns (PatologicalHistory[] memory)\r\n    {\r\n        crPatologicalHistoryMap[_identification].push(_patologicalHistory);\r\n        crPatologicalHistoryMapLength++;\r\n        return crPatologicalHistoryMap[_identification];\r\n    }\r\n}\r\n",
  "sourcePath": "D:\\Documents\\React\\Tesis Historias Clinicas\\contracts\\CRPatologicalHistory.sol",
  "compiler": {
    "name": "solc",
    "version": "0.8.7+commit.e28d00a7.Emscripten.clang"
  },
  "schemaVersion": "3.4.10",
  "updatedAt": "2023-03-25T17:19:35.679Z",
  "networkType": "ethereum",
  "devdoc": {
    "author": "Blockchain Clinic Records Team",
    "details": "inherits from ProfileModifier to use modifiers",
    "kind": "dev",
    "methods": {
      "addPatologicalHistory(address,uint256,(uint256,string,string,string,string,string,string,string,string))": {
        "params": {
          "_identification": "identification of the patient",
          "_patologicalHistory": "information value with PatologicalHistory struct",
          "sessionContractAddress": "address of the deployed SessionContract instance"
        },
        "returns": {
          "_0": "PatologicalHistory PatologicalHistory array"
        }
      },
      "getPatologicalHistoryByIdentification(address,uint256)": {
        "params": {
          "_identification": "identification of the patient",
          "sessionContractAddress": "address of the deployed SessionContract instance"
        },
        "returns": {
          "_0": "SyndromesGeriatricProblems PatologicalHistory array"
        }
      }
    },
    "title": "CRPatologicalHistory",
    "version": 1
  },
  "userdoc": {
    "kind": "user",
    "methods": {
      "addPatologicalHistory(address,uint256,(uint256,string,string,string,string,string,string,string,string))": {
        "notice": "register a new PatologicalHistory info by a given identification of patient"
      },
      "getPatologicalHistoryByIdentification(address,uint256)": {
        "notice": "retrieves the PatologicalHistory info by a given identification of patient"
      }
    },
    "notice": "Contract to mantain and manage a Clinical Record's Patologycal History of patients",
    "version": 1
  }
}