{
  "contractName": "CRPhysicalExam",
  "abi": [
    {
      "inputs": [],
      "stateMutability": "nonpayable",
      "type": "constructor"
    },
    {
      "inputs": [
        {
          "internalType": "address",
          "name": "sessionContractAddress",
          "type": "address"
        },
        {
          "internalType": "uint256",
          "name": "_identification",
          "type": "uint256"
        }
      ],
      "name": "getPhysicalExamByIdentification",
      "outputs": [
        {
          "components": [
            {
              "internalType": "uint256",
              "name": "date",
              "type": "uint256"
            },
            {
              "internalType": "string",
              "name": "bloodPressure",
              "type": "string"
            },
            {
              "internalType": "string",
              "name": "heartRate",
              "type": "string"
            },
            {
              "internalType": "string",
              "name": "breathingFrequency",
              "type": "string"
            },
            {
              "internalType": "string",
              "name": "weight",
              "type": "string"
            },
            {
              "internalType": "string",
              "name": "size",
              "type": "string"
            },
            {
              "internalType": "string",
              "name": "imc",
              "type": "string"
            },
            {
              "internalType": "string",
              "name": "skin",
              "type": "string"
            },
            {
              "internalType": "string",
              "name": "headNeck",
              "type": "string"
            },
            {
              "internalType": "string",
              "name": "oral",
              "type": "string"
            },
            {
              "internalType": "string",
              "name": "chestLungs",
              "type": "string"
            },
            {
              "internalType": "string",
              "name": "cardiovascular",
              "type": "string"
            },
            {
              "internalType": "string",
              "name": "abdomen",
              "type": "string"
            },
            {
              "internalType": "string",
              "name": "genitourinary",
              "type": "string"
            },
            {
              "internalType": "string",
              "name": "rectalTract",
              "type": "string"
            },
            {
              "internalType": "string",
              "name": "nervousSystem",
              "type": "string"
            },
            {
              "internalType": "string",
              "name": "musculoskeletalSystem",
              "type": "string"
            },
            {
              "internalType": "string",
              "name": "temperature",
              "type": "string"
            }
          ],
          "internalType": "struct PhysicalExam[]",
          "name": "",
          "type": "tuple[]"
        }
      ],
      "stateMutability": "view",
      "type": "function",
      "constant": true
    },
    {
      "inputs": [
        {
          "internalType": "address",
          "name": "sessionContractAddress",
          "type": "address"
        },
        {
          "internalType": "uint256",
          "name": "_identification",
          "type": "uint256"
        },
        {
          "components": [
            {
              "internalType": "uint256",
              "name": "date",
              "type": "uint256"
            },
            {
              "internalType": "string",
              "name": "bloodPressure",
              "type": "string"
            },
            {
              "internalType": "string",
              "name": "heartRate",
              "type": "string"
            },
            {
              "internalType": "string",
              "name": "breathingFrequency",
              "type": "string"
            },
            {
              "internalType": "string",
              "name": "weight",
              "type": "string"
            },
            {
              "internalType": "string",
              "name": "size",
              "type": "string"
            },
            {
              "internalType": "string",
              "name": "imc",
              "type": "string"
            },
            {
              "internalType": "string",
              "name": "skin",
              "type": "string"
            },
            {
              "internalType": "string",
              "name": "headNeck",
              "type": "string"
            },
            {
              "internalType": "string",
              "name": "oral",
              "type": "string"
            },
            {
              "internalType": "string",
              "name": "chestLungs",
              "type": "string"
            },
            {
              "internalType": "string",
              "name": "cardiovascular",
              "type": "string"
            },
            {
              "internalType": "string",
              "name": "abdomen",
              "type": "string"
            },
            {
              "internalType": "string",
              "name": "genitourinary",
              "type": "string"
            },
            {
              "internalType": "string",
              "name": "rectalTract",
              "type": "string"
            },
            {
              "internalType": "string",
              "name": "nervousSystem",
              "type": "string"
            },
            {
              "internalType": "string",
              "name": "musculoskeletalSystem",
              "type": "string"
            },
            {
              "internalType": "string",
              "name": "temperature",
              "type": "string"
            }
          ],
          "internalType": "struct PhysicalExam",
          "name": "_physicalExam",
          "type": "tuple"
        }
      ],
      "name": "addPhysicalExam",
      "outputs": [
        {
          "components": [
            {
              "internalType": "uint256",
              "name": "date",
              "type": "uint256"
            },
            {
              "internalType": "string",
              "name": "bloodPressure",
              "type": "string"
            },
            {
              "internalType": "string",
              "name": "heartRate",
              "type": "string"
            },
            {
              "internalType": "string",
              "name": "breathingFrequency",
              "type": "string"
            },
            {
              "internalType": "string",
              "name": "weight",
              "type": "string"
            },
            {
              "internalType": "string",
              "name": "size",
              "type": "string"
            },
            {
              "internalType": "string",
              "name": "imc",
              "type": "string"
            },
            {
              "internalType": "string",
              "name": "skin",
              "type": "string"
            },
            {
              "internalType": "string",
              "name": "headNeck",
              "type": "string"
            },
            {
              "internalType": "string",
              "name": "oral",
              "type": "string"
            },
            {
              "internalType": "string",
              "name": "chestLungs",
              "type": "string"
            },
            {
              "internalType": "string",
              "name": "cardiovascular",
              "type": "string"
            },
            {
              "internalType": "string",
              "name": "abdomen",
              "type": "string"
            },
            {
              "internalType": "string",
              "name": "genitourinary",
              "type": "string"
            },
            {
              "internalType": "string",
              "name": "rectalTract",
              "type": "string"
            },
            {
              "internalType": "string",
              "name": "nervousSystem",
              "type": "string"
            },
            {
              "internalType": "string",
              "name": "musculoskeletalSystem",
              "type": "string"
            },
            {
              "internalType": "string",
              "name": "temperature",
              "type": "string"
            }
          ],
          "internalType": "struct PhysicalExam[]",
          "name": "",
          "type": "tuple[]"
        }
      ],
      "stateMutability": "nonpayable",
      "type": "function"
    }
  ],
  "bytecode": "0x608060405234801561001057600080fd5b5061224f806100206000396000f3fe608060405234801561001057600080fd5b5060043610610052577c01000000000000000000000000000000000000000000000000000000006000350463a4c7bcf58114610057578063de1b581414610080575b600080fd5b61006a610065366004611b74565b610093565b6040516100779190611efc565b60405180910390f35b61006a61008e366004611b9e565b610c4d565b60405160e060020a63c9bae385028152336004820181905260026024830152606091849073ffffffffffffffffffffffffffffffffffffffff82169063c9bae3859060440160206040518083038186803b1580156100f057600080fd5b505afa158015610104573d6000803e3d6000fd5b505050506040513d601f19601f820116820180604052508101906101289190611e86565b806101be575060405160e060020a63c9bae38502815273ffffffffffffffffffffffffffffffffffffffff83811660048301526003602483015282169063c9bae3859060440160206040518083038186803b15801561018657600080fd5b505afa15801561019a573d6000803e3d6000fd5b505050506040513d601f19601f820116820180604052508101906101be9190611e86565b610229576040517f08c379a000000000000000000000000000000000000000000000000000000000815260206004820152601760248201527f73656e646572206973206e6f742061206d65646963616c00000000000000000060448201526064015b60405180910390fd5b60008481526020818152604080832080548251818502810185019093528083529193909284015b82821015610c3f5783829060005260206000209060120201604051806102400160405290816000820154815260200160018201805461028e90612154565b80601f01602080910402602001604051908101604052809291908181526020018280546102ba90612154565b80156103075780601f106102dc57610100808354040283529160200191610307565b820191906000526020600020905b8154815290600101906020018083116102ea57829003601f168201915b5050505050815260200160028201805461032090612154565b80601f016020809104026020016040519081016040528092919081815260200182805461034c90612154565b80156103995780601f1061036e57610100808354040283529160200191610399565b820191906000526020600020905b81548152906001019060200180831161037c57829003601f168201915b505050505081526020016003820180546103b290612154565b80601f01602080910402602001604051908101604052809291908181526020018280546103de90612154565b801561042b5780601f106104005761010080835404028352916020019161042b565b820191906000526020600020905b81548152906001019060200180831161040e57829003601f168201915b5050505050815260200160048201805461044490612154565b80601f016020809104026020016040519081016040528092919081815260200182805461047090612154565b80156104bd5780601f10610492576101008083540402835291602001916104bd565b820191906000526020600020905b8154815290600101906020018083116104a057829003601f168201915b505050505081526020016005820180546104d690612154565b80601f016020809104026020016040519081016040528092919081815260200182805461050290612154565b801561054f5780601f106105245761010080835404028352916020019161054f565b820191906000526020600020905b81548152906001019060200180831161053257829003601f168201915b5050505050815260200160068201805461056890612154565b80601f016020809104026020016040519081016040528092919081815260200182805461059490612154565b80156105e15780601f106105b6576101008083540402835291602001916105e1565b820191906000526020600020905b8154815290600101906020018083116105c457829003601f168201915b505050505081526020016007820180546105fa90612154565b80601f016020809104026020016040519081016040528092919081815260200182805461062690612154565b80156106735780601f1061064857610100808354040283529160200191610673565b820191906000526020600020905b81548152906001019060200180831161065657829003601f168201915b5050505050815260200160088201805461068c90612154565b80601f01602080910402602001604051908101604052809291908181526020018280546106b890612154565b80156107055780601f106106da57610100808354040283529160200191610705565b820191906000526020600020905b8154815290600101906020018083116106e857829003601f168201915b5050505050815260200160098201805461071e90612154565b80601f016020809104026020016040519081016040528092919081815260200182805461074a90612154565b80156107975780601f1061076c57610100808354040283529160200191610797565b820191906000526020600020905b81548152906001019060200180831161077a57829003601f168201915b50505050508152602001600a820180546107b090612154565b80601f01602080910402602001604051908101604052809291908181526020018280546107dc90612154565b80156108295780601f106107fe57610100808354040283529160200191610829565b820191906000526020600020905b81548152906001019060200180831161080c57829003601f168201915b50505050508152602001600b8201805461084290612154565b80601f016020809104026020016040519081016040528092919081815260200182805461086e90612154565b80156108bb5780601f10610890576101008083540402835291602001916108bb565b820191906000526020600020905b81548152906001019060200180831161089e57829003601f168201915b50505050508152602001600c820180546108d490612154565b80601f016020809104026020016040519081016040528092919081815260200182805461090090612154565b801561094d5780601f106109225761010080835404028352916020019161094d565b820191906000526020600020905b81548152906001019060200180831161093057829003601f168201915b50505050508152602001600d8201805461096690612154565b80601f016020809104026020016040519081016040528092919081815260200182805461099290612154565b80156109df5780601f106109b4576101008083540402835291602001916109df565b820191906000526020600020905b8154815290600101906020018083116109c257829003601f168201915b50505050508152602001600e820180546109f890612154565b80601f0160208091040260200160405190810160405280929190818152602001828054610a2490612154565b8015610a715780601f10610a4657610100808354040283529160200191610a71565b820191906000526020600020905b815481529060010190602001808311610a5457829003601f168201915b50505050508152602001600f82018054610a8a90612154565b80601f0160208091040260200160405190810160405280929190818152602001828054610ab690612154565b8015610b035780601f10610ad857610100808354040283529160200191610b03565b820191906000526020600020905b815481529060010190602001808311610ae657829003601f168201915b50505050508152602001601082018054610b1c90612154565b80601f0160208091040260200160405190810160405280929190818152602001828054610b4890612154565b8015610b955780601f10610b6a57610100808354040283529160200191610b95565b820191906000526020600020905b815481529060010190602001808311610b7857829003601f168201915b50505050508152602001601182018054610bae90612154565b80601f0160208091040260200160405190810160405280929190818152602001828054610bda90612154565b8015610c275780601f10610bfc57610100808354040283529160200191610c27565b820191906000526020600020905b815481529060010190602001808311610c0a57829003601f168201915b50505050508152505081526020019060010190610250565b505050509250505092915050565b60405160e060020a63c9bae385028152336004820181905260026024830152606091859073ffffffffffffffffffffffffffffffffffffffff82169063c9bae3859060440160206040518083038186803b158015610caa57600080fd5b505afa158015610cbe573d6000803e3d6000fd5b505050506040513d601f19601f82011682018060405250810190610ce29190611e86565b80610d78575060405160e060020a63c9bae38502815273ffffffffffffffffffffffffffffffffffffffff83811660048301526003602483015282169063c9bae3859060440160206040518083038186803b158015610d4057600080fd5b505afa158015610d54573d6000803e3d6000fd5b505050506040513d601f19601f82011682018060405250810190610d789190611e86565b610dde576040517f08c379a000000000000000000000000000000000000000000000000000000000815260206004820152601760248201527f73656e646572206973206e6f742061206d65646963616c0000000000000000006044820152606401610220565b6000858152602081815260408220805460018181018355918452928290208751601290940201928355868201518051889493610e1e938501920190611a25565b5060408201518051610e3a916002840191602090910190611a25565b5060608201518051610e56916003840191602090910190611a25565b5060808201518051610e72916004840191602090910190611a25565b5060a08201518051610e8e916005840191602090910190611a25565b5060c08201518051610eaa916006840191602090910190611a25565b5060e08201518051610ec6916007840191602090910190611a25565b506101008201518051610ee3916008840191602090910190611a25565b506101208201518051610f00916009840191602090910190611a25565b506101408201518051610f1d91600a840191602090910190611a25565b506101608201518051610f3a91600b840191602090910190611a25565b506101808201518051610f5791600c840191602090910190611a25565b506101a08201518051610f7491600d840191602090910190611a25565b506101c08201518051610f9191600e840191602090910190611a25565b506101e08201518051610fae91600f840191602090910190611a25565b506102008201518051610fcb916010840191602090910190611a25565b506102208201518051610fe8916011840191602090910190611a25565b50506001805491506000610ffb836121a8565b909155505060008581526020818152604080832080548251818502810185019093528083529193909284015b82821015611a165783829060005260206000209060120201604051806102400160405290816000820154815260200160018201805461106590612154565b80601f016020809104026020016040519081016040528092919081815260200182805461109190612154565b80156110de5780601f106110b3576101008083540402835291602001916110de565b820191906000526020600020905b8154815290600101906020018083116110c157829003601f168201915b505050505081526020016002820180546110f790612154565b80601f016020809104026020016040519081016040528092919081815260200182805461112390612154565b80156111705780601f1061114557610100808354040283529160200191611170565b820191906000526020600020905b81548152906001019060200180831161115357829003601f168201915b5050505050815260200160038201805461118990612154565b80601f01602080910402602001604051908101604052809291908181526020018280546111b590612154565b80156112025780601f106111d757610100808354040283529160200191611202565b820191906000526020600020905b8154815290600101906020018083116111e557829003601f168201915b5050505050815260200160048201805461121b90612154565b80601f016020809104026020016040519081016040528092919081815260200182805461124790612154565b80156112945780601f1061126957610100808354040283529160200191611294565b820191906000526020600020905b81548152906001019060200180831161127757829003601f168201915b505050505081526020016005820180546112ad90612154565b80601f01602080910402602001604051908101604052809291908181526020018280546112d990612154565b80156113265780601f106112fb57610100808354040283529160200191611326565b820191906000526020600020905b81548152906001019060200180831161130957829003601f168201915b5050505050815260200160068201805461133f90612154565b80601f016020809104026020016040519081016040528092919081815260200182805461136b90612154565b80156113b85780601f1061138d576101008083540402835291602001916113b8565b820191906000526020600020905b81548152906001019060200180831161139b57829003601f168201915b505050505081526020016007820180546113d190612154565b80601f01602080910402602001604051908101604052809291908181526020018280546113fd90612154565b801561144a5780601f1061141f5761010080835404028352916020019161144a565b820191906000526020600020905b81548152906001019060200180831161142d57829003601f168201915b5050505050815260200160088201805461146390612154565b80601f016020809104026020016040519081016040528092919081815260200182805461148f90612154565b80156114dc5780601f106114b1576101008083540402835291602001916114dc565b820191906000526020600020905b8154815290600101906020018083116114bf57829003601f168201915b505050505081526020016009820180546114f590612154565b80601f016020809104026020016040519081016040528092919081815260200182805461152190612154565b801561156e5780601f106115435761010080835404028352916020019161156e565b820191906000526020600020905b81548152906001019060200180831161155157829003601f168201915b50505050508152602001600a8201805461158790612154565b80601f01602080910402602001604051908101604052809291908181526020018280546115b390612154565b80156116005780601f106115d557610100808354040283529160200191611600565b820191906000526020600020905b8154815290600101906020018083116115e357829003601f168201915b50505050508152602001600b8201805461161990612154565b80601f016020809104026020016040519081016040528092919081815260200182805461164590612154565b80156116925780601f1061166757610100808354040283529160200191611692565b820191906000526020600020905b81548152906001019060200180831161167557829003601f168201915b50505050508152602001600c820180546116ab90612154565b80601f01602080910402602001604051908101604052809291908181526020018280546116d790612154565b80156117245780601f106116f957610100808354040283529160200191611724565b820191906000526020600020905b81548152906001019060200180831161170757829003601f168201915b50505050508152602001600d8201805461173d90612154565b80601f016020809104026020016040519081016040528092919081815260200182805461176990612154565b80156117b65780601f1061178b576101008083540402835291602001916117b6565b820191906000526020600020905b81548152906001019060200180831161179957829003601f168201915b50505050508152602001600e820180546117cf90612154565b80601f01602080910402602001604051908101604052809291908181526020018280546117fb90612154565b80156118485780601f1061181d57610100808354040283529160200191611848565b820191906000526020600020905b81548152906001019060200180831161182b57829003601f168201915b50505050508152602001600f8201805461186190612154565b80601f016020809104026020016040519081016040528092919081815260200182805461188d90612154565b80156118da5780601f106118af576101008083540402835291602001916118da565b820191906000526020600020905b8154815290600101906020018083116118bd57829003601f168201915b505050505081526020016010820180546118f390612154565b80601f016020809104026020016040519081016040528092919081815260200182805461191f90612154565b801561196c5780601f106119415761010080835404028352916020019161196c565b820191906000526020600020905b81548152906001019060200180831161194f57829003601f168201915b5050505050815260200160118201805461198590612154565b80601f01602080910402602001604051908101604052809291908181526020018280546119b190612154565b80156119fe5780601f106119d3576101008083540402835291602001916119fe565b820191906000526020600020905b8154815290600101906020018083116119e157829003601f168201915b50505050508152505081526020019060010190611027565b50505050925050509392505050565b828054611a3190612154565b90600052602060002090601f016020900481019282611a535760008555611a99565b82601f10611a6c57805160ff1916838001178555611a99565b82800160010185558215611a99579182015b82811115611a99578251825591602001919060010190611a7e565b50611aa5929150611aa9565b5090565b5b80821115611aa55760008155600101611aaa565b803573ffffffffffffffffffffffffffffffffffffffff81168114611ae257600080fd5b919050565b600082601f830112611af857600080fd5b813567ffffffffffffffff80821115611b1357611b136121ea565b604051601f8301601f19908116603f01168101908282118183101715611b3b57611b3b6121ea565b81604052838152866020858801011115611b5457600080fd5b836020870160208301376000602085830101528094505050505092915050565b60008060408385031215611b8757600080fd5b611b9083611abe565b946020939093013593505050565b600080600060608486031215611bb357600080fd5b611bbc84611abe565b925060208401359150604084013567ffffffffffffffff80821115611be057600080fd5b908501906102408288031215611bf557600080fd5b611bfd61212a565b82358152602083013582811115611c1357600080fd5b611c1f89828601611ae7565b602083015250604083013582811115611c3757600080fd5b611c4389828601611ae7565b604083015250606083013582811115611c5b57600080fd5b611c6789828601611ae7565b606083015250608083013582811115611c7f57600080fd5b611c8b89828601611ae7565b60808301525060a083013582811115611ca357600080fd5b611caf89828601611ae7565b60a08301525060c083013582811115611cc757600080fd5b611cd389828601611ae7565b60c08301525060e083013582811115611ceb57600080fd5b611cf789828601611ae7565b60e0830152506101008084013583811115611d1157600080fd5b611d1d8a828701611ae7565b8284015250506101208084013583811115611d3757600080fd5b611d438a828701611ae7565b8284015250506101408084013583811115611d5d57600080fd5b611d698a828701611ae7565b8284015250506101608084013583811115611d8357600080fd5b611d8f8a828701611ae7565b8284015250506101808084013583811115611da957600080fd5b611db58a828701611ae7565b8284015250506101a08084013583811115611dcf57600080fd5b611ddb8a828701611ae7565b8284015250506101c08084013583811115611df557600080fd5b611e018a828701611ae7565b8284015250506101e08084013583811115611e1b57600080fd5b611e278a828701611ae7565b8284015250506102008084013583811115611e4157600080fd5b611e4d8a828701611ae7565b8284015250506102208084013583811115611e6757600080fd5b611e738a828701611ae7565b8284015250508093505050509250925092565b600060208284031215611e9857600080fd5b81518015158114611ea857600080fd5b9392505050565b6000815180845260005b81811015611ed557602081850181015186830182015201611eb9565b81811115611ee7576000602083870101525b50601f01601f19169290920160200192915050565b60208082528251828201819052600091906040908185019080840286018301878501865b8381101561211c57603f1989840301855281516102408151855288820151818a870152611f4f82870182611eaf565b9150508782015185820389870152611f678282611eaf565b91505060608083015186830382880152611f818382611eaf565b9250505060808083015186830382880152611f9c8382611eaf565b9250505060a08083015186830382880152611fb78382611eaf565b9250505060c08083015186830382880152611fd28382611eaf565b9250505060e08083015186830382880152611fed8382611eaf565b9250505061010080830151868303828801526120098382611eaf565b9250505061012080830151868303828801526120258382611eaf565b9250505061014080830151868303828801526120418382611eaf565b92505050610160808301518683038288015261205d8382611eaf565b9250505061018080830151868303828801526120798382611eaf565b925050506101a080830151868303828801526120958382611eaf565b925050506101c080830151868303828801526120b18382611eaf565b925050506101e080830151868303828801526120cd8382611eaf565b9250505061020080830151868303828801526120e98382611eaf565b9250505061022080830151925085820381870152506121088183611eaf565b968901969450505090860190600101611f20565b509098975050505050505050565b604051610240810167ffffffffffffffff8111828210171561214e5761214e6121ea565b60405290565b60028104600182168061216857607f821691505b602082108114156121a2577f4e487b7100000000000000000000000000000000000000000000000000000000600052602260045260246000fd5b50919050565b60006000198214156121e3577f4e487b7100000000000000000000000000000000000000000000000000000000600052601160045260246000fd5b5060010190565b7f4e487b7100000000000000000000000000000000000000000000000000000000600052604160045260246000fdfea2646970667358221220756c0d8a765a302135185f7db72501c9822534678fbf76849320edd31a42f20a64736f6c63430008070033",
  "immutableReferences": {},
  "source": "// SPDX-License-Identifier: GPL-3.0\r\npragma solidity ^0.8.7;\r\n\r\nimport \"./ProfileModifier.sol\";\r\n\r\nstruct PhysicalExam {\r\n    uint256 date;\r\n    string bloodPressure;\r\n    string heartRate;\r\n    string breathingFrequency;\r\n    string weight;\r\n    string size;\r\n    string imc;\r\n    string skin;\r\n    string headNeck;\r\n    string oral;\r\n    string chestLungs;\r\n    string cardiovascular;\r\n    string abdomen;\r\n    string genitourinary;\r\n    string rectalTract;\r\n    string nervousSystem;\r\n    string musculoskeletalSystem;\r\n    string temperature;\r\n}\r\n\r\n/**\r\n * @author Blockchain Clinic Records Team\r\n * @dev inherits from ProfileModifier to use modifiers\r\n * @title CRPhysicalExam\r\n * @notice Contract to mantain and manage a Clinical Record's Physical Exams of patients\r\n */\r\ncontract CRPhysicalExam is ProfileModifier {\r\n    //maps from patient identifier to PhysicalExam\r\n    mapping(uint256 => PhysicalExam[]) crPhysicalExamMap;\r\n    uint256 crPhysicalExamMapLength;\r\n\r\n    constructor() {}\r\n\r\n    /**\r\n     * @notice retrieves the PhysicalExam info by a given identification of patient\r\n     * @param sessionContractAddress address of the deployed SessionContract instance\r\n     * @param _identification identification of the patient\r\n     * @return PhysicalExam PhysicalExam array\r\n     */\r\n    function getPhysicalExamByIdentification(\r\n        address sessionContractAddress,\r\n        uint256 _identification\r\n    )\r\n        external\r\n        view\r\n        isMedical(msg.sender, sessionContractAddress)\r\n        returns (PhysicalExam[] memory)\r\n    {\r\n        return crPhysicalExamMap[_identification];\r\n    }\r\n\r\n    /**\r\n     * @notice register a new PhysicalExam info by a given identification of patient\r\n     * @param sessionContractAddress address of the deployed SessionContract instance\r\n     * @param _identification identification of the patient\r\n     * @param _physicalExam information value with PhysicalExam struct\r\n     * @return PhysicalExam PhysicalExam array\r\n     */\r\n    function addPhysicalExam(\r\n        address sessionContractAddress,\r\n        uint256 _identification,\r\n        PhysicalExam memory _physicalExam\r\n    )\r\n        external\r\n        isMedical(msg.sender, sessionContractAddress)\r\n        returns (PhysicalExam[] memory)\r\n    {\r\n        crPhysicalExamMap[_identification].push(_physicalExam);\r\n        crPhysicalExamMapLength++;\r\n        return crPhysicalExamMap[_identification];\r\n    }\r\n}\r\n",
  "sourcePath": "D:\\Documents\\React\\Tesis Historias Clinicas\\contracts\\CRPhysicalExam.sol",
  "compiler": {
    "name": "solc",
    "version": "0.8.7+commit.e28d00a7.Emscripten.clang"
  },
  "schemaVersion": "3.4.10",
  "updatedAt": "2022-10-08T07:26:40.060Z",
  "networkType": "ethereum",
  "devdoc": {
    "author": "Blockchain Clinic Records Team",
    "details": "inherits from ProfileModifier to use modifiers",
    "kind": "dev",
    "methods": {
      "addPhysicalExam(address,uint256,(uint256,string,string,string,string,string,string,string,string,string,string,string,string,string,string,string,string,string))": {
        "params": {
          "_identification": "identification of the patient",
          "_physicalExam": "information value with PhysicalExam struct",
          "sessionContractAddress": "address of the deployed SessionContract instance"
        },
        "returns": {
          "_0": "PhysicalExam PhysicalExam array"
        }
      },
      "getPhysicalExamByIdentification(address,uint256)": {
        "params": {
          "_identification": "identification of the patient",
          "sessionContractAddress": "address of the deployed SessionContract instance"
        },
        "returns": {
          "_0": "PhysicalExam PhysicalExam array"
        }
      }
    },
    "title": "CRPhysicalExam",
    "version": 1
  },
  "userdoc": {
    "kind": "user",
    "methods": {
      "addPhysicalExam(address,uint256,(uint256,string,string,string,string,string,string,string,string,string,string,string,string,string,string,string,string,string))": {
        "notice": "register a new PhysicalExam info by a given identification of patient"
      },
      "getPhysicalExamByIdentification(address,uint256)": {
        "notice": "retrieves the PhysicalExam info by a given identification of patient"
      }
    },
    "notice": "Contract to mantain and manage a Clinical Record's Physical Exams of patients",
    "version": 1
  }
}