{
  "contractName": "SessionContract",
  "abi": [
    {
      "inputs": [],
      "stateMutability": "nonpayable",
      "type": "constructor"
    },
    {
      "inputs": [
        {
          "internalType": "address",
          "name": "_sender",
          "type": "address"
        },
        {
          "internalType": "uint256",
          "name": "_roleType",
          "type": "uint256"
        }
      ],
      "name": "validateUser",
      "outputs": [
        {
          "internalType": "bool",
          "name": "",
          "type": "bool"
        }
      ],
      "stateMutability": "view",
      "type": "function",
      "constant": true
    },
    {
      "inputs": [
        {
          "internalType": "address",
          "name": "_userAddress",
          "type": "address"
        },
        {
          "internalType": "uint256",
          "name": "_id",
          "type": "uint256"
        },
        {
          "internalType": "string",
          "name": "_username",
          "type": "string"
        },
        {
          "internalType": "string",
          "name": "_password",
          "type": "string"
        },
        {
          "internalType": "uint256",
          "name": "_roleType",
          "type": "uint256"
        }
      ],
      "name": "addUser",
      "outputs": [],
      "stateMutability": "nonpayable",
      "type": "function"
    },
    {
      "inputs": [
        {
          "internalType": "address",
          "name": "_userAddress",
          "type": "address"
        }
      ],
      "name": "disableUser",
      "outputs": [],
      "stateMutability": "nonpayable",
      "type": "function"
    },
    {
      "inputs": [
        {
          "internalType": "address",
          "name": "_userAddress",
          "type": "address"
        }
      ],
      "name": "enableUser",
      "outputs": [],
      "stateMutability": "nonpayable",
      "type": "function"
    },
    {
      "inputs": [],
      "name": "getUsers",
      "outputs": [
        {
          "components": [
            {
              "internalType": "address",
              "name": "userAddress",
              "type": "address"
            },
            {
              "internalType": "uint256",
              "name": "id",
              "type": "uint256"
            },
            {
              "internalType": "string",
              "name": "username",
              "type": "string"
            },
            {
              "internalType": "bytes32",
              "name": "password",
              "type": "bytes32"
            },
            {
              "internalType": "bool",
              "name": "state",
              "type": "bool"
            }
          ],
          "internalType": "struct User[]",
          "name": "",
          "type": "tuple[]"
        }
      ],
      "stateMutability": "view",
      "type": "function",
      "constant": true
    },
    {
      "inputs": [],
      "name": "getSender",
      "outputs": [
        {
          "internalType": "address",
          "name": "",
          "type": "address"
        }
      ],
      "stateMutability": "view",
      "type": "function",
      "constant": true
    },
    {
      "inputs": [],
      "name": "getModules",
      "outputs": [
        {
          "components": [
            {
              "internalType": "uint256",
              "name": "id",
              "type": "uint256"
            },
            {
              "internalType": "string",
              "name": "name",
              "type": "string"
            }
          ],
          "internalType": "struct Module[]",
          "name": "",
          "type": "tuple[]"
        }
      ],
      "stateMutability": "view",
      "type": "function",
      "constant": true
    },
    {
      "inputs": [],
      "name": "getRoles",
      "outputs": [
        {
          "components": [
            {
              "internalType": "uint256",
              "name": "id",
              "type": "uint256"
            },
            {
              "internalType": "string",
              "name": "name",
              "type": "string"
            },
            {
              "internalType": "string",
              "name": "description",
              "type": "string"
            }
          ],
          "internalType": "struct Role[]",
          "name": "",
          "type": "tuple[]"
        }
      ],
      "stateMutability": "view",
      "type": "function",
      "constant": true
    },
    {
      "inputs": [],
      "name": "getUserRoles",
      "outputs": [
        {
          "components": [
            {
              "internalType": "uint256",
              "name": "userId",
              "type": "uint256"
            },
            {
              "internalType": "uint256",
              "name": "roleId",
              "type": "uint256"
            }
          ],
          "internalType": "struct UserRole[]",
          "name": "",
          "type": "tuple[]"
        }
      ],
      "stateMutability": "view",
      "type": "function",
      "constant": true
    },
    {
      "inputs": [],
      "name": "getRoleModules",
      "outputs": [
        {
          "components": [
            {
              "internalType": "uint256",
              "name": "roleId",
              "type": "uint256"
            },
            {
              "components": [
                {
                  "internalType": "uint256",
                  "name": "moduleId",
                  "type": "uint256"
                },
                {
                  "components": [
                    {
                      "internalType": "bool",
                      "name": "create",
                      "type": "bool"
                    },
                    {
                      "internalType": "bool",
                      "name": "modify",
                      "type": "bool"
                    },
                    {
                      "internalType": "bool",
                      "name": "visualize",
                      "type": "bool"
                    }
                  ],
                  "internalType": "struct Permisions",
                  "name": "permisions",
                  "type": "tuple"
                }
              ],
              "internalType": "struct ModulePermissions[]",
              "name": "modulePermissions",
              "type": "tuple[]"
            }
          ],
          "internalType": "struct RoleModules[]",
          "name": "",
          "type": "tuple[]"
        }
      ],
      "stateMutability": "view",
      "type": "function",
      "constant": true
    },
    {
      "inputs": [
        {
          "internalType": "string",
          "name": "_username",
          "type": "string"
        },
        {
          "internalType": "string",
          "name": "_password",
          "type": "string"
        }
      ],
      "name": "login",
      "outputs": [
        {
          "components": [
            {
              "internalType": "uint256",
              "name": "userId",
              "type": "uint256"
            },
            {
              "internalType": "string",
              "name": "username",
              "type": "string"
            },
            {
              "internalType": "bool",
              "name": "state",
              "type": "bool"
            },
            {
              "internalType": "uint256",
              "name": "roleId",
              "type": "uint256"
            }
          ],
          "internalType": "struct Session",
          "name": "",
          "type": "tuple"
        }
      ],
      "stateMutability": "view",
      "type": "function",
      "constant": true
    }
  ],
  "bytecode": "0x60806040523480156200001157600080fd5b50604080518082018252600181528151808301835260088082527f5573756172696f73000000000000000000000000000000000000000000000000602080840191909152808401929092528351808501855260028152845180860186528281527f446f63746f7265730000000000000000000000000000000000000000000000008185015281840152845180860186526003815285518087018752600a8082527f456e6665726d6572617300000000000000000000000000000000000000000000828701528286019190915286518088018852600481528751808901895260098082527f50616369656e746573000000000000000000000000000000000000000000000082890152828801919091528851808a018a52600581528951808b018b52601681527f496e666f726d6163696f6e206465204d656469636f7300000000000000000000818a0152818901528951808b018b52600681528a51808c018c52601581527f4578616d656e6573202d20526573756c7461646f730000000000000000000000818b0152818a01528a51808c018c52600781528b51808d018d52600c81527f456e6665726d6564616465730000000000000000000000000000000000000000818c0152818b01528b51808d018d529889528b51808d018d5260148082527f46756e63696f6e65732042696f6c6f6769636173000000000000000000000000828d01528a8c01919091528c51808e018e529485528c51808e018e529081527f486973746f7269616c205061746f6c6f6769636f000000000000000000000000818c0152848b01528b51808d018d529586528b51808d018d52600d81527f4578616d656e2046697369636f00000000000000000000000000000000000000818c0152998601999099528a51808c01909b52989995989497929690959293909260009080600b81526020016040518060600160405280602181526020016200348d602191399052604080518082018252600c815281518083018352601081527f526567697374726f20436c696e69636f00000000000000000000000000000000602082810191909152820152815180830190925291925060009080600d81526020016040518060400160405280600b81526020017f436f6d656e746172696f73000000000000000000000000000000000000000000815250815250905060008d9080600181540180825580915050600190039060005260206000209060020201600090919091909150600082015181600001556020820151816001019080519060200190620003c492919062001acf565b50505060008c90806001815401808255809150506001900390600052602060002090600202016000909190919091506000820151816000015560208201518160010190805190602001906200041b92919062001acf565b50505060008b90806001815401808255809150506001900390600052602060002090600202016000909190919091506000820151816000015560208201518160010190805190602001906200047292919062001acf565b5050600080546001810182559080528b5160029091026000805160206200342683398151915281019182556020808e015180518f9550620004ca93600080516020620034468339815191520192919091019062001acf565b5050600080546001810182559080528a5160029091026000805160206200342683398151915281019182556020808d015180518e95506200052293600080516020620034468339815191520192919091019062001acf565b505060008054600181018255908052895160029091026000805160206200342683398151915281019182556020808c015180518d95506200057a93600080516020620034468339815191520192919091019062001acf565b505060008054600181018255908052885160029091026000805160206200342683398151915281019182556020808b015180518c9550620005d293600080516020620034468339815191520192919091019062001acf565b505060008054600181018255908052875160029091026000805160206200342683398151915281019182556020808a015180518b95506200062a93600080516020620034468339815191520192919091019062001acf565b5050600080546001810182559080528651600290910260008051602062003426833981519152810191825560208089015180518a95506200068293600080516020620034468339815191520192919091019062001acf565b505060008054600181018255908052855160029091026000805160206200342683398151915281019182556020808801518051899550620006da93600080516020620034468339815191520192919091019062001acf565b5050600080546001810182559080528451600290910260008051602062003426833981519152810191825560208087015180518895506200073293600080516020620034468339815191520192919091019062001acf565b5050600080546001810182559080528351600290910260008051602062003426833981519152810191825560208086015180518795506200078a93600080516020620034468339815191520192919091019062001acf565b505060008054600181018255908052825160029091026000805160206200342683398151915281019182556020808501518051869550620007e293600080516020620034468339815191520192919091019062001acf565b505060408051606080820183526001825282518084018452600d81527f41646d696e6973747261646f720000000000000000000000000000000000000060208083019190915280840191909152835180850185528181527f5065726d69736f7320706172612067657374696f6e6172207573756172696f738183015283850152835180830185526002815284518086018652600681527f446f63746f7200000000000000000000000000000000000000000000000000008184015281830152845192830185526027808452939550600094909390840192916200346690830139905260408051606081018252600380825282518084018452600981527f456e6665726d657261000000000000000000000000000000000000000000000060208083019190915280840191909152835180850185528181527f5573756172696f20617369676e61646f207061726120656e6665726d65726173818301529383019390935260018054808201825560009190915286519102600080516020620034ae83398151915281019182558684015180519596509294879492936200099d93600080516020620034ce83398151915290930192019062001acf565b5060408201518051620009bb91600284019160209091019062001acf565b505060018054808201825560009190915283516003909102600080516020620034ae8339815191528101918255602080860151805187955062000a1593600080516020620034ce8339815191520192919091019062001acf565b506040820151805162000a3391600284019160209091019062001acf565b505060018054808201825560009190915282516003909102600080516020620034ae8339815191528101918255602080850151805186955062000a8d93600080516020620034ce8339815191520192919091019062001acf565b506040820151805162000aab91600284019160209091019062001acf565b50508351600090815260036020526040908190208151808301909252915080600181526040805160608101825260018082526020828101829052828401829052938401919091528454808201865560009586528386208551600292830290910190815594840151805195909201805483860151938501511515620100000262ff0000199415156101000261ff00199815159890981661ffff19909216919091179690961792909216949094179055865184526003909152918290208251808401909352919081908152604080516060810182526001808252602082810182905282840182905293840191909152845480820186556000958652838620855160029092020190815593830151805194909101805482850151928401511515620100000262ff0000199315156101000261ff00199715159790971661ffff1990921691909117959095179190911693909317909255855183526003908190529181902081518083019092529181908152604080516060810182526001808252602082810182905282840182905293840191909152845480820186556000958652838620855160029092020190815593830151805194909101805482850151928401511515620100000262ff0000199315156101000261ff00199715159790971661ffff19909216919091179590951791909116939093179092558551835260039052908190208151808301909252908060058152604080516060810182526001808252602082810182905282840182905293840191909152845480820186556000958652838620855160029092020190815593830151805194909101805482850151928401511515620100000262ff0000199315156101000261ff00199715159790971661ffff19909216919091179590951791909116939093179092558451835260039052908190208151808301909252908060048152604080516060810182526000808252600160208381018290528385018290529485019290925285548083018755958152838120855160029097020195865593830151805195909101805482850151928401511515620100000262ff0000199315156101000261ff00199815159890981661ffff199092169190911796909617919091169490941790935583518252600390528190208151808301909252908060048152604080516060810182526001808252602082810182905282840182905293840191909152845480820186556000958652838620855160029092020190815593830151805194909101805482850151928401511515620100000262ff0000199315156101000261ff00199715159790971661ffff19909216919091179590951791909116939093179092558451835260039052908190208151808301909252908060068152604080516060810182526001808252602082810182905282840182905293840191909152845480820186556000958652838620855160029092020190815593830151805194909101805482850151928401511515620100000262ff0000199315156101000261ff00199715159790971661ffff19909216919091179590951791909116939093179092558351835260039052908190208151808301909252908060068152604080516060810182526000808252602082810182905260018385018190529481019290925285548085018755958152818120855160029097020195865593810151805195909301805484830151948401511515620100000262ff0000199515156101000261ff00199815159890981661ffff19909216919091179690961793909316949094179091558451825260039092528190208151808301909252908060078152604080516060810182526001808252602082810182905282840182905293840191909152845480820186556000958652838620855160029092020190815593830151805194909101805482850151928401511515620100000262ff0000199315156101000261ff00199715159790971661ffff19909216919091179590951791909116939093179092558351835260039052908190208151808301909252908060078152604080516060810182526000808252602082810182905260018385018190529481019290925285548085018755958152818120855160029097020195865593810151805195909301805484830151948401511515620100000262ff0000199515156101000261ff00199815159890981661ffff19909216919091179690961793909316949094179091558451825260039092528190208151808301909252908060088152604080516060810182526000808252602082810182905260018385018190529481019290925285548085018755958152818120855160029097020195865593810151805195909301805484830151948401511515620100000262ff0000199515156101000261ff00199815159890981661ffff19909216919091179690961793909316949094179091558351825260039092528190208151808301909252908060088152604080516060810182526001808252602082810182905282840182905293840191909152845480820186556000958652838620855160029092020190815593830151805194909101805482850151928401511515620100000262ff0000199315156101000261ff00199715159790971661ffff19909216919091179590951791909116939093179092558451835260039052908190208151808301909252908060098152604080516060810182526001808252602082810182905282840182905293840191909152845480820186556000958652838620855160029092020190815593830151805194909101805482850151928401511515620100000262ff0000199315156101000261ff00199715159790971661ffff19909216919091179590951791909116939093179092558351835260039052908190208151808301909252908060098152604080516060810182526000808252602082810182905260018385018190529481019290925285548085018755958152818120855160029097020195865593810151805195909301805484830151948401511515620100000262ff0000199515156101000261ff00199815159890981661ffff199092169190911796909617939093169490941790915584518252600390925281902081518083019092529080600a8152604080516060810182526000808252602082810182905260018385018190529481019290925285548085018755958152818120855160029097020195865593810151805195909301805484830151948401511515620100000262ff0000199515156101000261ff00199815159890981661ffff199092169190911796909617939093169490941790915583518252600390925281902081518083019092529080600a8152604080516060810182526001808252602082810182905282840182905293840191909152845480820186556000958652838620855160029092020190815593830151805194909101805482850151928401511515620100000262ff0000199315156101000261ff00199715159790971661ffff199092169190911795909517919091169390931790925584518352600390529081902081518083019092529080600b8152604080516060810182526001808252602082810182905282840182905293840191909152845480820186556000958652838620855160029092020190815593830151805194909101805482850151928401511515620100000262ff0000199315156101000261ff00199715159790971661ffff199092169190911795909517919091169390931790925583518352600390529081902081518083019092529080600b8152604080516060810182526000808252602082810182905260018385018190529481019290925285548085018755958152818120855160029097020195865593810151805195909301805484830151948401511515620100000262ff0000199515156101000261ff00199815159890981661ffff199092169190911796909617939093169490941790915584518252600390925281902081518083019092529080600c8152604080516060810182526001808252602082810182905282840182905293840191909152845480820186556000958652838620855160029092020190815593830151805194909101805482850151928401511515620100000262ff0000199315156101000261ff00199715159790971661ffff199092169190911795909517919091169390931790925583518352600390529081902081518083019092529080600c8152604080516060810182526001808252602082810182905282840182905293840191909152845480820186556000958652838620855160029092020190815593830151805194909101805482850151928401511515620100000262ff0000199315156101000261ff00199715159790971661ffff199092169190911795909517919091169390931790925584518352600390529081902081518083019092529080600d8152604080516060810182526001808252602082810182905282840182905293840191909152845480820186556000958652838620855160029092020190815593830151805194909101805482850151928401511515620100000262ff0000199315156101000261ff00199715159790971661ffff199092169190911795909517919091169390931790925583518352600390529081902081518083019092529080600d815260408051606080820183526001808352602080840182905283850182905294850192909252855480830187556000968752848720865160029283029091019081559585015180519684018054828801519287015161ffff1990911698151561ff00191698909817610100921515929092029190911762ff00001916620100009715159790970296909617909555825160a081018452734ecbd9540f79a38f58d79336d16ec59a0da247e881528085018381528451808601865260058082527f61646d696e000000000000000000000000000000000000000000000000000000828901529583019081527ff23ec0bb4210edd5cba85afd05127efcd2fc6a781bfed49188da1081670b22d89383019390935260808201849052865493840187559590965285517f405787fa12a823e0f2b7631cc41b3ba8828b3321ca811111fa75cd3aa3bb5ace929093029182018054600160a060020a031916600160a060020a0390941693909317835593517f405787fa12a823e0f2b7631cc41b3ba8828b3321ca811111fa75cd3aa3bb5acf82015592518051919362001a0d937f405787fa12a823e0f2b7631cc41b3ba8828b3321ca811111fa75cd3aa3bb5ad09091019291019062001acf565b50606082015160038201556080909101516004918201805460ff1916911515919091179055734ecbd9540f79a38f58d79336d16ec59a0da247e8600090815260209190915260017fac6c476cf3a9286121cff1791a0219177d0c946300602faa23412088f4f7970e819055600280549192600592909190829062001a955762001a9562001bcb565b9060005260206000209060050201600101548152602001908152602001600020819055505050505050505050505050505050505062001bfa565b82805462001add9062001b75565b90600052602060002090601f01602090048101928262001b01576000855562001b4c565b82601f1062001b1c57805160ff191683800117855562001b4c565b8280016001018555821562001b4c579182015b8281111562001b4c57825182559160200191906001019062001b2f565b5062001b5a92915062001b5e565b5090565b5b8082111562001b5a576000815560010162001b5f565b60028104600182168062001b8a57607f821691505b6020821081141562001bc5577f4e487b7100000000000000000000000000000000000000000000000000000000600052602260045260246000fd5b50919050565b7f4e487b7100000000000000000000000000000000000000000000000000000000600052603260045260246000fd5b61181c8062001c0a6000396000f3fe608060405234801561001057600080fd5b50600436106100c5576000357c0100000000000000000000000000000000000000000000000000000000900480639caea4421161008e5780639caea44214610140578063b2494df314610155578063c9bae3851461016a578063e588e6bc1461018d578063ee6649a1146101a0578063fb494de3146101b357600080fd5b8062ce8e3e146100ca57806358467dbc146100e85780635e01eb5a146101085780636ac0be5214610116578063710613981461012b575b600080fd5b6100d26101c8565b6040516100df91906115f3565b60405180910390f35b6100fb6100f63660046112ab565b610328565b6040516100df91906116b9565b6040513381526020016100df565b61011e61077c565b6040516100df91906115a4565b6101336108d5565b6040516100df9190611524565b61015361014e366004611225565b610a59565b005b61015d610bd4565b6040516100df91906113f6565b61017d6101783660046111fb565b610cc6565b60405190151581526020016100df565b61015361019b3660046111d9565b610d8c565b6101536101ae3660046111d9565b610e10565b6101bb610e5e565b6040516100df9190611467565b60606101d2610fdd565b6101fa5760405160e560020a62461bcd0281526004016101f190611682565b60405180910390fd5b6002805480602002602001604051908101604052809291908181526020016000905b8282101561031f5760008481526020908190206040805160a081018252600586029092018054600160a060020a031683526001810154938301939093526002830180549293929184019161026f90611748565b80601f016020809104026020016040519081016040528092919081815260200182805461029b90611748565b80156102e85780601f106102bd576101008083540402835291602001916102e8565b820191906000526020600020905b8154815290600101906020018083116102cb57829003601f168201915b5050509183525050600382015460208083019190915260049092015460ff161515604090910152908252600192909201910161021c565b50505050905090565b61035560405180608001604052806000815260200160608152602001600015158152602001600081525090565b6000805b6002548110156106f65760028181548110610376576103766117b4565b90600052602060002090600502016002016040516020016103979190611357565b60405160208183030381529060405280519060200120856040516020016103be919061133b565b6040516020818303038152906040528051906020012014801561042a5750600281815481106103ef576103ef6117b4565b90600052602060002090600502016003015484604051602001610412919061133b565b60405160208183030381529060405280519060200120145b156106e45760019150600060028281548110610448576104486117b4565b90600052602060002090600502016040518060a00160405290816000820160009054906101000a9004600160a060020a0316600160a060020a0316600160a060020a03168152602001600182015481526020016002820180546104aa90611748565b80601f01602080910402602001604051908101604052809291908181526020018280546104d690611748565b80156105235780601f106104f857610100808354040283529160200191610523565b820191906000526020600020905b81548152906001019060200180831161050657829003601f168201915b50505091835250506003820154602082015260049091015460ff161515604090910152608081015190915061059d5760405160e560020a62461bcd02815260206004820152600d60248201527f44697361626c656420757365720000000000000000000000000000000000000060448201526064016101f1565b6000816020015190506040518060800160405280828152602001600285815481106105ca576105ca6117b4565b906000526020600020906005020160020180546105e690611748565b80601f016020809104026020016040519081016040528092919081815260200182805461061290611748565b801561065f5780601f106106345761010080835404028352916020019161065f565b820191906000526020600020905b81548152906001019060200180831161064257829003601f168201915b505050505081526020016002858154811061067c5761067c6117b4565b600091825260208083206005928302016004015460ff16151584528583529081526040909120549101906001906106b4908290611701565b815481106106c4576106c46117b4565b906000526020600020906003020160000154815250945050505050610776565b806106ee81611780565b915050610359565b50806107475760405160e560020a62461bcd02815260206004820152601c60248201527f496e76616c696420757365726e616d65206f722070617373776f72640000000060448201526064016101f1565b505060408051608081018252600080825282516020818101855282825283015291810182905260608101919091525b92915050565b6060610786610fdd565b6107a55760405160e560020a62461bcd0281526004016101f190611682565b60025460009067ffffffffffffffff8111156107c3576107c36117cd565b60405190808252806020026020018201604052801561080857816020015b60408051808201909152600080825260208201528152602001906001900390816107e15790505b50905060005b6002548110156108cf5760006002828154811061082d5761082d6117b4565b90600052602060002090600502016001015490506000604051806040016040528083815260200160018060056000878152602001908152602001600020546108759190611701565b81548110610885576108856117b4565b9060005260206000209060030201600001548152509050808484815181106108af576108af6117b4565b6020026020010181905250505080806108c790611780565b91505061080e565b50919050565b60606001805480602002602001604051908101604052809291908181526020016000905b8282101561031f57838290600052602060002090600302016040518060600160405290816000820154815260200160018201805461093690611748565b80601f016020809104026020016040519081016040528092919081815260200182805461096290611748565b80156109af5780601f10610984576101008083540402835291602001916109af565b820191906000526020600020905b81548152906001019060200180831161099257829003601f168201915b505050505081526020016002820180546109c890611748565b80601f01602080910402602001604051908101604052809291908181526020018280546109f490611748565b8015610a415780601f10610a1657610100808354040283529160200191610a41565b820191906000526020600020905b815481529060010190602001808311610a2457829003601f168201915b505050505081525050815260200190600101906108f9565b610a61610fdd565b610a805760405160e560020a62461bcd0281526004016101f190611682565b60026040518060a0016040528087600160a060020a0316815260200186815260200185815260200184604051602001610ab9919061133b565b60408051808303601f19018152918152815160209283012083526001928201839052845480840186556000958652948290208451600590960201805473ffffffffffffffffffffffffffffffffffffffff1916600160a060020a039096169590951785558382015192850192909255908201518051929392610b419260028501920190611097565b50606082015160038201556080909101516004918201805460ff191691151591909117905560028054600160a060020a03881660009081526020939093526040832081905583926005929091610b9990600190611701565b81548110610ba957610ba96117b4565b9060005260206000209060050201600101548152602001908152602001600020819055505050505050565b60606000805480602002602001604051908101604052809291908181526020016000905b8282101561031f578382906000526020600020906002020160405180604001604052908160008201548152602001600182018054610c3590611748565b80601f0160208091040260200160405190810160405280929190818152602001828054610c6190611748565b8015610cae5780601f10610c8357610100808354040283529160200191610cae565b820191906000526020600020905b815481529060010190602001808311610c9157829003601f168201915b50505050508152505081526020019060010190610bf8565b600160a060020a0382166000908152600460205260408120548015610d825760006002610cf4600184611701565b81548110610d0457610d046117b4565b906000526020600020906005020160010154905060006001806005600085815260200190815260200160002054610d3b9190611701565b81548110610d4b57610d4b6117b4565b9060005260206000209060030201600001549050600081118015610d6e57508481145b15610d7f5760019350505050610776565b50505b5060009392505050565b610d94610fdd565b610db35760405160e560020a62461bcd0281526004016101f190611682565b600160a060020a03811660009081526004602052604090205460016002610dda8284611701565b81548110610dea57610dea6117b4565b60009182526020909120600590910201600401805460ff19169115159190911790555050565b610e18610fdd565b610e375760405160e560020a62461bcd0281526004016101f190611682565b600160a060020a038116600090815260046020526040812054906002610dda600184611701565b60015460609060009067ffffffffffffffff811115610e7f57610e7f6117cd565b604051908082528060200260200182016040528015610ec557816020015b604080518082019091526000815260606020820152815260200190600190039081610e9d5790505b50905060005b6001548110156108cf57600060018281548110610eea57610eea6117b4565b600091825260208083206003928302015460408051808201825282815282865293835280852080548251818602810186019093528083529296508484019391929091869084015b82821015610fa15760008481526020908190206040805180820182526002860290920180548352815160608101835260019182015460ff80821615158352610100820481161515838801526201000090910416151592810192909252828401919091529083529092019101610f31565b50505050815250905080848481518110610fbd57610fbd6117b4565b602002602001018190525050508080610fd590611780565b915050610ecb565b33600090815260046020526040812054801561108f5760006002611002600184611701565b81548110611012576110126117b4565b9060005260206000209060050201600101549050600060018060056000858152602001908152602001600020546110499190611701565b81548110611059576110596117b4565b906000526020600020906003020160000154905060008111801561107d5750600181145b1561108c576001935050505090565b50505b600091505090565b8280546110a390611748565b90600052602060002090601f0160209004810192826110c5576000855561110b565b82601f106110de57805160ff191683800117855561110b565b8280016001018555821561110b579182015b8281111561110b5782518255916020019190600101906110f0565b5061111792915061111b565b5090565b5b80821115611117576000815560010161111c565b8035600160a060020a038116811461114757600080fd5b919050565b600082601f83011261115d57600080fd5b813567ffffffffffffffff80821115611178576111786117cd565b604051601f8301601f19908116603f011681019082821181831017156111a0576111a06117cd565b816040528381528660208588010111156111b957600080fd5b836020870160208301376000602085830101528094505050505092915050565b6000602082840312156111eb57600080fd5b6111f482611130565b9392505050565b6000806040838503121561120e57600080fd5b61121783611130565b946020939093013593505050565b600080600080600060a0868803121561123d57600080fd5b61124686611130565b945060208601359350604086013567ffffffffffffffff8082111561126a57600080fd5b61127689838a0161114c565b9450606088013591508082111561128c57600080fd5b506112998882890161114c565b95989497509295608001359392505050565b600080604083850312156112be57600080fd5b823567ffffffffffffffff808211156112d657600080fd5b6112e28683870161114c565b935060208501359150808211156112f857600080fd5b506113058582860161114c565b9150509250929050565b60008151808452611327816020860160208601611718565b601f01601f19169290920160200192915050565b6000825161134d818460208701611718565b9190910192915050565b815460009081906002810460018083168061137357607f831692505b60208084108214156113965760e060020a634e487b710286526022600452602486fd5b8180156113aa57600181146113bb576113e8565b60ff198616895284890196506113e8565b60008a81526020902060005b868110156113e05781548b8201529085019083016113c7565b505084890196505b509498975050505050505050565b60208082528251828201819052600091906040908185019080840286018301878501865b8381101561145957888303603f190185528151805184528701518784018790526114468785018261130f565b958801959350509086019060010161141a565b509098975050505050505050565b6020808252825182820181905260009190604090818501908084028601830187850186805b8481101561151557898403603f1901865282518051855288015188850188905280518886018190529089019060609081870190855b818110156114ff578451805184528d0151805115158e850152808e015115158d8501528c0151151584840152938c01936080909201916001016114c1565b5050978a0197955050509187019160010161148c565b50919998505050505050505050565b60208082528251828201819052600091906040908185019080840286018301878501865b8381101561145957603f19898403018552815160608151855288820151818a8701526115768287018261130f565b91505087820151915084810388860152611590818361130f565b968901969450505090860190600101611548565b602080825282518282018190526000919060409081850190868401855b828110156115e6578151805185528601518685015292840192908501906001016115c1565b5091979650505050505050565b60208082528251828201819052600091906040908185019080840286018301878501865b8381101561145957603f19898403018552815160a0600160a060020a03825116855288820151898601528782015181898701526116568287018261130f565b606084810151908801526080938401511515939096019290925250509386019390860190600101611617565b60208082526016908201527f73656e646572206973206e6f7420616e2061646d696e00000000000000000000604082015260600190565b602081528151602082015260006020830151608060408401526116df60a084018261130f565b9050604084015115156060840152606084015160808401528091505092915050565b6000828210156117135761171361179b565b500390565b60005b8381101561173357818101518382015260200161171b565b83811115611742576000848401525b50505050565b60028104600182168061175c57607f821691505b602082108114156108cf5760e060020a634e487b7102600052602260045260246000fd5b60006000198214156117945761179461179b565b5060010190565b60e060020a634e487b7102600052601160045260246000fd5b60e060020a634e487b7102600052603260045260246000fd5b60e060020a634e487b7102600052604160045260246000fdfea264697066735822122011c869ff2a21797199e3ec74310bb2543d8a53e225b867fdbbc979f9d627910664736f6c63430008070033290decd9548b62a8d60345a988386fc84ba6bc95484008f6362f93160ef3e563290decd9548b62a8d60345a988386fc84ba6bc95484008f6362f93160ef3e5645573756172696f2070617261206167726567617220686973746f7269617320636c696e6963617353696e64726f6d657320792070726f626c656d6173206765726961747269636f73b10e2d527612073b26eecdfd717e6a320cf44b4afac2b0732d9fcbe2b7fa0cf6b10e2d527612073b26eecdfd717e6a320cf44b4afac2b0732d9fcbe2b7fa0cf7",
  "immutableReferences": {},
  "source": "// SPDX-License-Identifier: GPL-3.0\r\npragma solidity ^0.8.7;\r\n\r\nimport \"./RoleTypes.sol\";\r\n\r\nstruct Permisions {\r\n    bool create;\r\n    bool modify;\r\n    bool visualize;\r\n}\r\nstruct Module {\r\n    uint256 id;\r\n    string name;\r\n}\r\nstruct Role {\r\n    uint256 id;\r\n    string name;\r\n    string description;\r\n}\r\nstruct User {\r\n    address userAddress;\r\n    uint256 id;\r\n    string username;\r\n    bytes32 password;\r\n    bool state;\r\n}\r\n\r\nstruct UserRole {\r\n    uint256 userId;\r\n    uint256 roleId;\r\n}\r\n\r\nstruct ModulePermissions {\r\n    uint256 moduleId;\r\n    Permisions permisions;\r\n}\r\n\r\nstruct RoleModules {\r\n    uint256 roleId;\r\n    ModulePermissions[] modulePermissions;\r\n}\r\n\r\n//interface for returning a session value\r\nstruct Session {\r\n    uint256 userId;\r\n    string username;\r\n    bool state;\r\n    uint256 roleId;\r\n}\r\n\r\n// Describe identificators for all modules as uint values\r\nenum ModuleIdentificator {\r\n    NONE,\r\n    USERS_MANAGE,\r\n    DOCTORS_MANAGE,\r\n    NURSE_MANAGE,\r\n    PATIENTS_INFO,\r\n    MEDICALS_INFO,\r\n    CR_EXAM_RESULT,\r\n    CR_SICKNESS,\r\n    CR_BIOLOGIC_FUNCTIONS,\r\n    CR_PATOLOGICAL_HISTORY,\r\n    CR_PHYSYCAL_EXAM,\r\n    CR_SYNDROMES_GERIATRIC,\r\n    CR_CLINICAL_ASSESSMENT,\r\n    CR_COMMENTARY\r\n}\r\n\r\n/**\r\n * @author Blockchain Clinic Records Team\r\n * @title SessionContract\r\n * @notice Contract to mantain and manage Users, Roles and Sessions\r\n */\r\ncontract SessionContract {\r\n    Module[] modules;\r\n    Role[] roles;\r\n    User[] users;\r\n\r\n    //mapping Role id to module id list\r\n    mapping(uint256 => ModulePermissions[]) roleModulesMap;\r\n\r\n    //map user address to User index\r\n    //index saves the next value to avoid point to zero\r\n    mapping(address => uint256) usersMap;\r\n\r\n    //map user id to RoleIndex\r\n    //index saves the next value to avoid point to zero\r\n    mapping(uint256 => uint256) userRoleMap;\r\n\r\n    //initialUser first user address\r\n    address constant initialUser =\r\n        address(0x4ECbd9540F79A38f58d79336D16eC59a0dA247E8);\r\n\r\n    /**\r\n     * @dev initialize the Modules, Roles and a first Administrator User\r\n     * @dev first user initializes with the param address and uses admin as a encrypted password, to change it please modify @initialUser values\r\n     */\r\n    constructor() {\r\n        //modulos\r\n        Module memory usersModule = Module(\r\n            uint256(ModuleIdentificator.USERS_MANAGE),\r\n            \"Usuarios\"\r\n        );\r\n        Module memory doctorsModule = Module(\r\n            uint256(ModuleIdentificator.DOCTORS_MANAGE),\r\n            \"Doctores\"\r\n        );\r\n        Module memory nurseModule = Module(\r\n            uint256(ModuleIdentificator.NURSE_MANAGE),\r\n            \"Enfermeras\"\r\n        );\r\n        Module memory patientsModule = Module(\r\n            uint256(ModuleIdentificator.PATIENTS_INFO),\r\n            \"Pacientes\"\r\n        );\r\n        Module memory medicalsModule = Module(\r\n            uint256(ModuleIdentificator.MEDICALS_INFO),\r\n            \"Informacion de Medicos\"\r\n        );\r\n        Module memory examResultModule = Module(\r\n            uint256(ModuleIdentificator.CR_EXAM_RESULT),\r\n            \"Examenes - Resultados\"\r\n        );\r\n        Module memory sicknessResultModule = Module(\r\n            uint256(ModuleIdentificator.CR_SICKNESS),\r\n            \"Enfermedades\"\r\n        );\r\n        Module memory biologicResultModule = Module(\r\n            uint256(ModuleIdentificator.CR_BIOLOGIC_FUNCTIONS),\r\n            \"Funciones Biologicas\"\r\n        );\r\n        Module memory patologicResultModule = Module(\r\n            uint256(ModuleIdentificator.CR_PATOLOGICAL_HISTORY),\r\n            \"Historial Patologico\"\r\n        );\r\n        Module memory physicalResultModule = Module(\r\n            uint256(ModuleIdentificator.CR_PHYSYCAL_EXAM),\r\n            \"Examen Fisico\"\r\n        );\r\n        Module memory syndromeResultModule = Module(\r\n            uint256(ModuleIdentificator.CR_SYNDROMES_GERIATRIC),\r\n            \"Sindromes y problemas geriatricos\"\r\n        );\r\n        Module memory clinicalResultModule = Module(\r\n            uint256(ModuleIdentificator.CR_CLINICAL_ASSESSMENT),\r\n            \"Registro Clinico\"\r\n        );\r\n        Module memory commentaryResultModule = Module(\r\n            uint256(ModuleIdentificator.CR_COMMENTARY),\r\n            \"Comentarios\"\r\n        );\r\n\r\n        modules.push(usersModule);\r\n        modules.push(doctorsModule);\r\n        modules.push(nurseModule);\r\n        modules.push(patientsModule);\r\n        modules.push(medicalsModule);\r\n        modules.push(examResultModule);\r\n        modules.push(sicknessResultModule);\r\n        modules.push(biologicResultModule);\r\n        modules.push(patologicResultModule);\r\n        modules.push(physicalResultModule);\r\n        modules.push(syndromeResultModule);\r\n        modules.push(clinicalResultModule);\r\n        modules.push(commentaryResultModule);\r\n\r\n        //roles (mantener ese orden)\r\n        Role memory adminRole = Role(\r\n            uint256(RoleTypes.ADMIN),\r\n            \"Administrador\",\r\n            \"Permisos para gestionar usuarios\"\r\n        );\r\n        Role memory doctorRole = Role(\r\n            uint256(RoleTypes.DOCTOR),\r\n            \"Doctor\",\r\n            \"Usuario para agregar historias clinicas\"\r\n        );\r\n        Role memory nurseRole = Role(\r\n            uint256(RoleTypes.NURSE),\r\n            \"Enfermera\",\r\n            \"Usuario asignado para enfermeras\"\r\n        );\r\n\r\n        roles.push(adminRole);\r\n        roles.push(doctorRole);\r\n        roles.push(nurseRole);\r\n        roleModulesMap[adminRole.id].push(\r\n            ModulePermissions(\r\n                uint256(ModuleIdentificator.USERS_MANAGE),\r\n                Permisions(true, true, true)\r\n            )\r\n        );\r\n        roleModulesMap[adminRole.id].push(\r\n            ModulePermissions(\r\n                uint256(ModuleIdentificator.DOCTORS_MANAGE),\r\n                Permisions(true, true, true)\r\n            )\r\n        );\r\n        roleModulesMap[adminRole.id].push(\r\n            ModulePermissions(\r\n                uint256(ModuleIdentificator.NURSE_MANAGE),\r\n                Permisions(true, true, true)\r\n            )\r\n        );\r\n        roleModulesMap[adminRole.id].push(\r\n            ModulePermissions(\r\n                uint256(ModuleIdentificator.MEDICALS_INFO),\r\n                Permisions(true, true, true)\r\n            )\r\n        );\r\n\r\n        roleModulesMap[doctorRole.id].push(\r\n            ModulePermissions(\r\n                uint256(ModuleIdentificator.PATIENTS_INFO),\r\n                Permisions(false, true, true)\r\n            )\r\n        );\r\n        roleModulesMap[nurseRole.id].push(\r\n            ModulePermissions(\r\n                uint256(ModuleIdentificator.PATIENTS_INFO),\r\n                Permisions(true, true, true)\r\n            )\r\n        );\r\n\r\n        roleModulesMap[doctorRole.id].push(\r\n            ModulePermissions(\r\n                uint256(ModuleIdentificator.CR_EXAM_RESULT),\r\n                Permisions(true, true, true)\r\n            )\r\n        );\r\n        roleModulesMap[nurseRole.id].push(\r\n            ModulePermissions(\r\n                uint256(ModuleIdentificator.CR_EXAM_RESULT),\r\n                Permisions(false, false, true)\r\n            )\r\n        );\r\n\r\n        roleModulesMap[doctorRole.id].push(\r\n            ModulePermissions(\r\n                uint256(ModuleIdentificator.CR_SICKNESS),\r\n                Permisions(true, true, true)\r\n            )\r\n        );\r\n        roleModulesMap[nurseRole.id].push(\r\n            ModulePermissions(\r\n                uint256(ModuleIdentificator.CR_SICKNESS),\r\n                Permisions(false, false, true)\r\n            )\r\n        );\r\n\r\n        roleModulesMap[doctorRole.id].push(\r\n            ModulePermissions(\r\n                uint256(ModuleIdentificator.CR_BIOLOGIC_FUNCTIONS),\r\n                Permisions(false, false, true)\r\n            )\r\n        );\r\n        roleModulesMap[nurseRole.id].push(\r\n            ModulePermissions(\r\n                uint256(ModuleIdentificator.CR_BIOLOGIC_FUNCTIONS),\r\n                Permisions(true, true, true)\r\n            )\r\n        );\r\n\r\n        roleModulesMap[doctorRole.id].push(\r\n            ModulePermissions(\r\n                uint256(ModuleIdentificator.CR_PATOLOGICAL_HISTORY),\r\n                Permisions(true, true, true)\r\n            )\r\n        );\r\n        roleModulesMap[nurseRole.id].push(\r\n            ModulePermissions(\r\n                uint256(ModuleIdentificator.CR_PATOLOGICAL_HISTORY),\r\n                Permisions(false, false, true)\r\n            )\r\n        );\r\n\r\n        roleModulesMap[doctorRole.id].push(\r\n            ModulePermissions(\r\n                uint256(ModuleIdentificator.CR_PHYSYCAL_EXAM),\r\n                Permisions(false, false, true)\r\n            )\r\n        );\r\n        roleModulesMap[nurseRole.id].push(\r\n            ModulePermissions(\r\n                uint256(ModuleIdentificator.CR_PHYSYCAL_EXAM),\r\n                Permisions(true, true, true)\r\n            )\r\n        );\r\n\r\n        roleModulesMap[doctorRole.id].push(\r\n            ModulePermissions(\r\n                uint256(ModuleIdentificator.CR_SYNDROMES_GERIATRIC),\r\n                Permisions(true, true, true)\r\n            )\r\n        );\r\n        roleModulesMap[nurseRole.id].push(\r\n            ModulePermissions(\r\n                uint256(ModuleIdentificator.CR_SYNDROMES_GERIATRIC),\r\n                Permisions(false, false, true)\r\n            )\r\n        );\r\n\r\n        roleModulesMap[doctorRole.id].push(\r\n            ModulePermissions(\r\n                uint256(ModuleIdentificator.CR_CLINICAL_ASSESSMENT),\r\n                Permisions(true, true, true)\r\n            )\r\n        );\r\n        roleModulesMap[nurseRole.id].push(\r\n            ModulePermissions(\r\n                uint256(ModuleIdentificator.CR_CLINICAL_ASSESSMENT),\r\n                Permisions(true, true, true)\r\n            )\r\n        );\r\n\r\n        roleModulesMap[doctorRole.id].push(\r\n            ModulePermissions(\r\n                uint256(ModuleIdentificator.CR_COMMENTARY),\r\n                Permisions(true, true, true)\r\n            )\r\n        );\r\n        roleModulesMap[nurseRole.id].push(\r\n            ModulePermissions(\r\n                uint256(ModuleIdentificator.CR_COMMENTARY),\r\n                Permisions(true, true, true)\r\n            )\r\n        );\r\n\r\n        //@initialUser\r\n        users.push(\r\n            User(\r\n                initialUser,\r\n                1,\r\n                \"admin\",\r\n                0xf23ec0bb4210edd5cba85afd05127efcd2fc6a781bfed49188da1081670b22d8, //password admin\r\n                true\r\n            )\r\n        );\r\n        usersMap[initialUser] = 1;\r\n        userRoleMap[users[0].id] = 1;\r\n    }\r\n\r\n    /**\r\n     * @notice validates if a user has a determined role\r\n     * @param _sender user address\r\n     * @param _roleType role given by RoleTypes enum order\r\n     * @return bool true if user has the role\r\n     */\r\n    function validateUser(address _sender, uint256 _roleType)\r\n        external\r\n        view\r\n        returns (bool)\r\n    {\r\n        uint256 userIndex = usersMap[_sender];\r\n        if (userIndex > 0) {\r\n            uint256 userId = users[userIndex - 1].id;\r\n            uint256 roleId = roles[userRoleMap[userId] - 1].id;\r\n            if (roleId > 0 && roleId == uint256(_roleType)) {\r\n                return true;\r\n            }\r\n        }\r\n\r\n        return false;\r\n    }\r\n\r\n    /**\r\n     * @notice validates if a user has a determined administrator role\r\n     * @dev the msg.sender address determines the user to validate\r\n     * @return bool true if user has the role\r\n     */\r\n    function isAdmin() internal view returns (bool) {\r\n        uint256 userIndex = usersMap[msg.sender];\r\n        if (userIndex > 0) {\r\n            uint256 userId = users[userIndex - 1].id;\r\n            uint256 roleId = roles[userRoleMap[userId] - 1].id;\r\n            if (roleId > 0 && roleId == uint256(RoleTypes.ADMIN)) {\r\n                return true;\r\n            }\r\n        }\r\n\r\n        return false;\r\n    }\r\n\r\n    /**\r\n     * @notice add a new user with an specific role\r\n     * @param _userAddress user eoa\r\n     * @param _id identificator for the user\r\n     * @param _username username\r\n     * @param _password password\r\n     * @param _roleType role given by RoleTypes enum order\r\n     * @dev the msg.sender address should be an administrator user\r\n     */\r\n    function addUser(\r\n        address _userAddress,\r\n        uint256 _id,\r\n        string memory _username,\r\n        string memory _password,\r\n        uint256 _roleType\r\n    ) external {\r\n        require(isAdmin(), \"sender is not an admin\");\r\n        users.push(\r\n            User(\r\n                _userAddress,\r\n                _id,\r\n                _username,\r\n                keccak256(abi.encodePacked(_password)),\r\n                true\r\n            )\r\n        );\r\n        usersMap[_userAddress] = users.length;\r\n        userRoleMap[users[users.length - 1].id] = _roleType;\r\n    }\r\n\r\n    /**\r\n     * @notice disables user changing the state\r\n     * @param _userAddress user eoa\r\n     * @dev the msg.sender address should be an administrator user\r\n     */\r\n    function disableUser(address _userAddress) external {\r\n        require(isAdmin(), \"sender is not an admin\");\r\n        uint256 userIndex = usersMap[_userAddress];\r\n        users[userIndex - 1].state = false;\r\n    }\r\n\r\n    /**\r\n     * @notice enables user changing the state\r\n     * @param _userAddress user eoa\r\n     * @dev the msg.sender address should be an administrator user\r\n     */\r\n    function enableUser(address _userAddress) external {\r\n        require(isAdmin(), \"sender is not an admin\");\r\n        uint256 userIndex = usersMap[_userAddress];\r\n        users[userIndex - 1].state = true;\r\n    }\r\n\r\n    /**\r\n     * @notice retrieves all the users\r\n     * @dev the msg.sender address should be an administrator user\r\n     * @return User user array\r\n     */\r\n    function getUsers() external view returns (User[] memory) {\r\n        require(isAdmin(), \"sender is not an admin\");\r\n        return users;\r\n    }\r\n\r\n    function getSender() external view returns (address) {\r\n        return msg.sender;\r\n    }\r\n\r\n    /**\r\n     * @notice retrieves all the modules\r\n     * @return Module module array\r\n     */\r\n    function getModules() external view returns (Module[] memory) {\r\n        return modules;\r\n    }\r\n\r\n    /**\r\n     * @notice retrieves all the roles\r\n     * @return Role role array\r\n     */\r\n    function getRoles() external view returns (Role[] memory) {\r\n        return roles;\r\n    }\r\n\r\n    /**\r\n     * @notice retrieves all the users roles\r\n     * @dev the msg.sender address should be an administrator user\r\n     * @return UserRole array given by the UserRole struct\r\n     */\r\n    function getUserRoles() external view returns (UserRole[] memory) {\r\n        require(isAdmin(), \"sender is not an admin\");\r\n        UserRole[] memory _userRoleList = new UserRole[](users.length);\r\n        for (uint256 i = 0; i < users.length; i++) {\r\n            uint256 _userId = users[i].id;\r\n            UserRole memory _userRole = UserRole(\r\n                _userId,\r\n                roles[userRoleMap[_userId] - 1].id\r\n            );\r\n            _userRoleList[i] = _userRole;\r\n        }\r\n        return _userRoleList;\r\n    }\r\n\r\n    /**\r\n     * @notice retrieves all the role modules\r\n     * @dev the msg.sender address should be an administrator user\r\n     * @return RoleModules array given by the RoleModules struct\r\n     */\r\n    function getRoleModules() external view returns (RoleModules[] memory) {\r\n        RoleModules[] memory _roleModulesList = new RoleModules[](roles.length);\r\n        for (uint256 i = 0; i < roles.length; i++) {\r\n            uint256 _roleId = roles[i].id;\r\n            RoleModules memory _roleModules = RoleModules(\r\n                _roleId,\r\n                roleModulesMap[_roleId]\r\n            );\r\n            _roleModulesList[i] = _roleModules;\r\n        }\r\n        return _roleModulesList;\r\n    }\r\n\r\n    /**\r\n     * @notice retrieves a session data if credentials exists\r\n     * @dev the sent user should be valid and enabled\r\n     * @return Session the session value given by the Session struct\r\n     */\r\n    function login(string memory _username, string memory _password)\r\n        external\r\n        view\r\n        returns (Session memory)\r\n    {\r\n        bool usernamePasswordValid = false;\r\n        for (uint256 i = 0; i < users.length; i++) {\r\n            if (\r\n                keccak256(abi.encodePacked(_username)) ==\r\n                keccak256(abi.encodePacked(users[i].username)) &&\r\n                keccak256(abi.encodePacked(_password)) == users[i].password\r\n            ) {\r\n                usernamePasswordValid = true;\r\n                User memory userSession = users[i];\r\n                require(userSession.state, \"Disabled user\");\r\n                uint256 userId = userSession.id;\r\n                return\r\n                    Session(\r\n                        userId,\r\n                        users[i].username,\r\n                        users[i].state,\r\n                        roles[userRoleMap[userId] - 1].id\r\n                    );\r\n            }\r\n        }\r\n        require(usernamePasswordValid, \"Invalid username or password\");\r\n        return Session(0, \"\", false, 0);\r\n    }\r\n}\r\n",
  "sourcePath": "D:\\Documents\\React\\Tesis Historias Clinicas\\contracts\\SessionContract.sol",
  "compiler": {
    "name": "solc",
    "version": "0.8.7+commit.e28d00a7.Emscripten.clang"
  },
  "schemaVersion": "3.4.10",
  "updatedAt": "2022-10-20T08:22:14.843Z",
  "networkType": "ethereum",
  "devdoc": {
    "author": "Blockchain Clinic Records Team",
    "kind": "dev",
    "methods": {
      "addUser(address,uint256,string,string,uint256)": {
        "details": "the msg.sender address should be an administrator user",
        "params": {
          "_id": "identificator for the user",
          "_password": "password",
          "_roleType": "role given by RoleTypes enum order",
          "_userAddress": "user eoa",
          "_username": "username"
        }
      },
      "constructor": {
        "details": "initialize the Modules, Roles and a first Administrator Userfirst user initializes with the param address and uses admin as a encrypted password, to change it please modify @initialUser values"
      },
      "disableUser(address)": {
        "details": "the msg.sender address should be an administrator user",
        "params": {
          "_userAddress": "user eoa"
        }
      },
      "enableUser(address)": {
        "details": "the msg.sender address should be an administrator user",
        "params": {
          "_userAddress": "user eoa"
        }
      },
      "getModules()": {
        "returns": {
          "_0": "Module module array"
        }
      },
      "getRoleModules()": {
        "details": "the msg.sender address should be an administrator user",
        "returns": {
          "_0": "RoleModules array given by the RoleModules struct"
        }
      },
      "getRoles()": {
        "returns": {
          "_0": "Role role array"
        }
      },
      "getUserRoles()": {
        "details": "the msg.sender address should be an administrator user",
        "returns": {
          "_0": "UserRole array given by the UserRole struct"
        }
      },
      "getUsers()": {
        "details": "the msg.sender address should be an administrator user",
        "returns": {
          "_0": "User user array"
        }
      },
      "login(string,string)": {
        "details": "the sent user should be valid and enabled",
        "returns": {
          "_0": "Session the session value given by the Session struct"
        }
      },
      "validateUser(address,uint256)": {
        "params": {
          "_roleType": "role given by RoleTypes enum order",
          "_sender": "user address"
        },
        "returns": {
          "_0": "bool true if user has the role"
        }
      }
    },
    "title": "SessionContract",
    "version": 1
  },
  "userdoc": {
    "kind": "user",
    "methods": {
      "addUser(address,uint256,string,string,uint256)": {
        "notice": "add a new user with an specific role"
      },
      "disableUser(address)": {
        "notice": "disables user changing the state"
      },
      "enableUser(address)": {
        "notice": "enables user changing the state"
      },
      "getModules()": {
        "notice": "retrieves all the modules"
      },
      "getRoleModules()": {
        "notice": "retrieves all the role modules"
      },
      "getRoles()": {
        "notice": "retrieves all the roles"
      },
      "getUserRoles()": {
        "notice": "retrieves all the users roles"
      },
      "getUsers()": {
        "notice": "retrieves all the users"
      },
      "login(string,string)": {
        "notice": "retrieves a session data if credentials exists"
      },
      "validateUser(address,uint256)": {
        "notice": "validates if a user has a determined role"
      }
    },
    "notice": "Contract to mantain and manage Users, Roles and Sessions",
    "version": 1
  }
}