{
  "contractName": "UsersInformation",
  "abi": [
    {
      "inputs": [],
      "stateMutability": "nonpayable",
      "type": "constructor"
    },
    {
      "inputs": [
        {
          "internalType": "address",
          "name": "sessionContractAddress",
          "type": "address"
        },
        {
          "internalType": "uint256",
          "name": "_identificationNumber",
          "type": "uint256"
        },
        {
          "internalType": "string",
          "name": "_name",
          "type": "string"
        },
        {
          "internalType": "uint256",
          "name": "_birthDate",
          "type": "uint256"
        },
        {
          "internalType": "string",
          "name": "_gender",
          "type": "string"
        },
        {
          "internalType": "string",
          "name": "_maritalStatus",
          "type": "string"
        },
        {
          "internalType": "string",
          "name": "_occupation",
          "type": "string"
        },
        {
          "internalType": "string",
          "name": "_direction",
          "type": "string"
        },
        {
          "internalType": "string",
          "name": "_contactPerson",
          "type": "string"
        },
        {
          "internalType": "string",
          "name": "_phone",
          "type": "string"
        }
      ],
      "name": "addPatient",
      "outputs": [],
      "stateMutability": "nonpayable",
      "type": "function"
    },
    {
      "inputs": [
        {
          "internalType": "address",
          "name": "sessionContractAddress",
          "type": "address"
        }
      ],
      "name": "getPatients",
      "outputs": [
        {
          "components": [
            {
              "components": [
                {
                  "internalType": "string",
                  "name": "name",
                  "type": "string"
                },
                {
                  "internalType": "uint256",
                  "name": "identificationNumber",
                  "type": "uint256"
                },
                {
                  "internalType": "uint256",
                  "name": "birthDate",
                  "type": "uint256"
                },
                {
                  "internalType": "string",
                  "name": "gender",
                  "type": "string"
                }
              ],
              "internalType": "struct PersonalInformation",
              "name": "personalInformation",
              "type": "tuple"
            },
            {
              "internalType": "string",
              "name": "maritalStatus",
              "type": "string"
            },
            {
              "internalType": "string",
              "name": "occupation",
              "type": "string"
            },
            {
              "internalType": "string",
              "name": "direction",
              "type": "string"
            },
            {
              "internalType": "string",
              "name": "contactPerson",
              "type": "string"
            },
            {
              "internalType": "string",
              "name": "phone",
              "type": "string"
            }
          ],
          "internalType": "struct Patient[]",
          "name": "",
          "type": "tuple[]"
        }
      ],
      "stateMutability": "view",
      "type": "function",
      "constant": true
    },
    {
      "inputs": [
        {
          "internalType": "address",
          "name": "sessionContractAddress",
          "type": "address"
        },
        {
          "internalType": "uint256",
          "name": "userIdentification",
          "type": "uint256"
        }
      ],
      "name": "getPatient",
      "outputs": [
        {
          "components": [
            {
              "components": [
                {
                  "internalType": "string",
                  "name": "name",
                  "type": "string"
                },
                {
                  "internalType": "uint256",
                  "name": "identificationNumber",
                  "type": "uint256"
                },
                {
                  "internalType": "uint256",
                  "name": "birthDate",
                  "type": "uint256"
                },
                {
                  "internalType": "string",
                  "name": "gender",
                  "type": "string"
                }
              ],
              "internalType": "struct PersonalInformation",
              "name": "personalInformation",
              "type": "tuple"
            },
            {
              "internalType": "string",
              "name": "maritalStatus",
              "type": "string"
            },
            {
              "internalType": "string",
              "name": "occupation",
              "type": "string"
            },
            {
              "internalType": "string",
              "name": "direction",
              "type": "string"
            },
            {
              "internalType": "string",
              "name": "contactPerson",
              "type": "string"
            },
            {
              "internalType": "string",
              "name": "phone",
              "type": "string"
            }
          ],
          "internalType": "struct Patient",
          "name": "",
          "type": "tuple"
        }
      ],
      "stateMutability": "view",
      "type": "function",
      "constant": true
    },
    {
      "inputs": [
        {
          "internalType": "address",
          "name": "sessionContractAddress",
          "type": "address"
        },
        {
          "internalType": "uint256",
          "name": "userId",
          "type": "uint256"
        },
        {
          "internalType": "string",
          "name": "_name",
          "type": "string"
        },
        {
          "internalType": "uint256",
          "name": "_identificationNumber",
          "type": "uint256"
        },
        {
          "internalType": "uint256",
          "name": "_birthDate",
          "type": "uint256"
        },
        {
          "internalType": "string",
          "name": "_gender",
          "type": "string"
        },
        {
          "internalType": "string",
          "name": "_speciality",
          "type": "string"
        }
      ],
      "name": "addMedical",
      "outputs": [],
      "stateMutability": "nonpayable",
      "type": "function"
    },
    {
      "inputs": [
        {
          "internalType": "address",
          "name": "sessionContractAddress",
          "type": "address"
        }
      ],
      "name": "getMedicals",
      "outputs": [
        {
          "components": [
            {
              "components": [
                {
                  "internalType": "string",
                  "name": "name",
                  "type": "string"
                },
                {
                  "internalType": "uint256",
                  "name": "identificationNumber",
                  "type": "uint256"
                },
                {
                  "internalType": "uint256",
                  "name": "birthDate",
                  "type": "uint256"
                },
                {
                  "internalType": "string",
                  "name": "gender",
                  "type": "string"
                }
              ],
              "internalType": "struct PersonalInformation",
              "name": "personalInformation",
              "type": "tuple"
            },
            {
              "internalType": "string",
              "name": "speciality",
              "type": "string"
            }
          ],
          "internalType": "struct Medical[]",
          "name": "",
          "type": "tuple[]"
        }
      ],
      "stateMutability": "view",
      "type": "function",
      "constant": true
    },
    {
      "inputs": [
        {
          "internalType": "address",
          "name": "sessionContractAddress",
          "type": "address"
        },
        {
          "internalType": "uint256",
          "name": "userId",
          "type": "uint256"
        }
      ],
      "name": "getMedical",
      "outputs": [
        {
          "components": [
            {
              "components": [
                {
                  "internalType": "string",
                  "name": "name",
                  "type": "string"
                },
                {
                  "internalType": "uint256",
                  "name": "identificationNumber",
                  "type": "uint256"
                },
                {
                  "internalType": "uint256",
                  "name": "birthDate",
                  "type": "uint256"
                },
                {
                  "internalType": "string",
                  "name": "gender",
                  "type": "string"
                }
              ],
              "internalType": "struct PersonalInformation",
              "name": "personalInformation",
              "type": "tuple"
            },
            {
              "internalType": "string",
              "name": "speciality",
              "type": "string"
            }
          ],
          "internalType": "struct Medical",
          "name": "",
          "type": "tuple"
        }
      ],
      "stateMutability": "view",
      "type": "function",
      "constant": true
    }
  ],
  "bytecode": "0x608060405234801561001057600080fd5b50611df6806100206000396000f3fe608060405234801561001057600080fd5b506004361061007e577c0100000000000000000000000000000000000000000000000000000000600035046317f2e6b7811461008357806350e9d87f146100985780635e43b7f4146100c15780636274f731146100e15780638e07c1a2146100f4578063d0ea5f6214610114575b600080fd5b61009661009136600461186a565b610134565b005b6100ab6100a6366004611840565b6103d1565b6040516100b89190611d02565b60405180910390f35b6100d46100cf36600461181e565b6106ac565b6040516100b89190611c40565b6100966100ef3660046119ab565b610c5c565b61010761010236600461181e565b610ddc565b6040516100b89190611bdf565b610127610122366004611840565b6110ad565b6040516100b89190611d15565b60405160e060020a63c9bae385028152336004820181905260026024830152908b90600160a060020a0382169063c9bae3859060440160206040518083038186803b15801561018257600080fd5b505afa158015610196573d6000803e3d6000fd5b505050506040513d601f19601f820116820180604052508101906101ba9190611a61565b80610243575060405160e060020a63c9bae385028152600160a060020a0383811660048301526003602483015282169063c9bae3859060440160206040518083038186803b15801561020b57600080fd5b505afa15801561021f573d6000803e3d6000fd5b505050506040513d601f19601f820116820180604052508101906102439190611a61565b61026b5760405160e560020a62461bcd02815260040161026290611ccb565b60405180910390fd5b61027361163a565b61027f8b8d8c8c6115cb565b8152602080820189905260408201889052606082018790526080820186905260a0820185905260008054600181018255908052825180518051859460099094027f290decd9548b62a8d60345a988386fc84ba6bc95484008f6362f93160ef3e563019384926102f49284929190910190611699565b50602082810151600183015560408301516002830155606083015180516103219260038501920190611699565b505050602082810151805161033c9260048501920190611699565b5060408201518051610358916005840191602090910190611699565b5060608201518051610374916006840191602090910190611699565b5060808201518051610390916007840191602090910190611699565b5060a082015180516103ac916008840191602090910190611699565b5050600080549d81526002602052604090209c909c5550505050505050505050505050565b6103d961171d565b60405160e060020a63c9bae385028152336004820181905260016024830152908490600160a060020a0382169063c9bae3859060440160206040518083038186803b15801561042757600080fd5b505afa15801561043b573d6000803e3d6000fd5b505050506040513d601f19601f8201168201806040525081019061045f9190611a61565b61047e5760405160e560020a62461bcd02815260040161026290611c94565b60008481526003602052604090205460019061049b908290611d28565b815481106104ab576104ab611d8e565b9060005260206000209060050201604051806040016040529081600082016040518060800160405290816000820180546104e490611d50565b80601f016020809104026020016040519081016040528092919081815260200182805461051090611d50565b801561055d5780601f106105325761010080835404028352916020019161055d565b820191906000526020600020905b81548152906001019060200180831161054057829003601f168201915b50505050508152602001600182015481526020016002820154815260200160038201805461058a90611d50565b80601f01602080910402602001604051908101604052809291908181526020018280546105b690611d50565b80156106035780601f106105d857610100808354040283529160200191610603565b820191906000526020600020905b8154815290600101906020018083116105e657829003601f168201915b505050505081525050815260200160048201805461062090611d50565b80601f016020809104026020016040519081016040528092919081815260200182805461064c90611d50565b80156106995780601f1061066e57610100808354040283529160200191610699565b820191906000526020600020905b81548152906001019060200180831161067c57829003601f168201915b5050505050815250509250505092915050565b60405160e060020a63c9bae3850281523360048201819052600260248301526060918390600160a060020a0382169063c9bae3859060440160206040518083038186803b1580156106fc57600080fd5b505afa158015610710573d6000803e3d6000fd5b505050506040513d601f19601f820116820180604052508101906107349190611a61565b806107bd575060405160e060020a63c9bae385028152600160a060020a0383811660048301526003602483015282169063c9bae3859060440160206040518083038186803b15801561078557600080fd5b505afa158015610799573d6000803e3d6000fd5b505050506040513d601f19601f820116820180604052508101906107bd9190611a61565b6107dc5760405160e560020a62461bcd02815260040161026290611ccb565b6000805480602002602001604051908101604052809291908181526020016000905b82821015610c4f57600084815260209020604080516101408101909152600984029091018054829060c082019083908290829061083a90611d50565b80601f016020809104026020016040519081016040528092919081815260200182805461086690611d50565b80156108b35780601f10610888576101008083540402835291602001916108b3565b820191906000526020600020905b81548152906001019060200180831161089657829003601f168201915b5050505050815260200160018201548152602001600282015481526020016003820180546108e090611d50565b80601f016020809104026020016040519081016040528092919081815260200182805461090c90611d50565b80156109595780601f1061092e57610100808354040283529160200191610959565b820191906000526020600020905b81548152906001019060200180831161093c57829003601f168201915b505050505081525050815260200160048201805461097690611d50565b80601f01602080910402602001604051908101604052809291908181526020018280546109a290611d50565b80156109ef5780601f106109c4576101008083540402835291602001916109ef565b820191906000526020600020905b8154815290600101906020018083116109d257829003601f168201915b50505050508152602001600582018054610a0890611d50565b80601f0160208091040260200160405190810160405280929190818152602001828054610a3490611d50565b8015610a815780601f10610a5657610100808354040283529160200191610a81565b820191906000526020600020905b815481529060010190602001808311610a6457829003601f168201915b50505050508152602001600682018054610a9a90611d50565b80601f0160208091040260200160405190810160405280929190818152602001828054610ac690611d50565b8015610b135780601f10610ae857610100808354040283529160200191610b13565b820191906000526020600020905b815481529060010190602001808311610af657829003601f168201915b50505050508152602001600782018054610b2c90611d50565b80601f0160208091040260200160405190810160405280929190818152602001828054610b5890611d50565b8015610ba55780601f10610b7a57610100808354040283529160200191610ba5565b820191906000526020600020905b815481529060010190602001808311610b8857829003601f168201915b50505050508152602001600882018054610bbe90611d50565b80601f0160208091040260200160405190810160405280929190818152602001828054610bea90611d50565b8015610c375780601f10610c0c57610100808354040283529160200191610c37565b820191906000526020600020905b815481529060010190602001808311610c1a57829003601f168201915b505050505081525050815260200190600101906107fe565b5050505092505050919050565b60405160e060020a63c9bae385028152336004820181905260016024830152908890600160a060020a0382169063c9bae3859060440160206040518083038186803b158015610caa57600080fd5b505afa158015610cbe573d6000803e3d6000fd5b505050506040513d601f19601f82011682018060405250810190610ce29190611a61565b610d015760405160e560020a62461bcd02815260040161026290611c94565b610d0961171d565b610d15888888886115cb565b81526020808201859052600180548082018255600091909152825180518051859460059094027fb10e2d527612073b26eecdfd717e6a320cf44b4afac2b0732d9fcbe2b7fa0cf601938492610d709284929190910190611699565b5060208281015160018301556040830151600283015560608301518051610d9d9260038501920190611699565b5050506020828101518051610db89260048501920190611699565b505060015460009a8b5260036020526040909a209990995550505050505050505050565b60405160e060020a63c9bae3850281523360048201819052600160248301526060918390600160a060020a0382169063c9bae3859060440160206040518083038186803b158015610e2c57600080fd5b505afa158015610e40573d6000803e3d6000fd5b505050506040513d601f19601f82011682018060405250810190610e649190611a61565b610e835760405160e560020a62461bcd02815260040161026290611c94565b6001805480602002602001604051908101604052809291908181526020016000905b82821015610c4f576000848152602090206040805160c0810182526005850290920180549091839190820190839082908290610ee090611d50565b80601f0160208091040260200160405190810160405280929190818152602001828054610f0c90611d50565b8015610f595780601f10610f2e57610100808354040283529160200191610f59565b820191906000526020600020905b815481529060010190602001808311610f3c57829003601f168201915b505050505081526020016001820154815260200160028201548152602001600382018054610f8690611d50565b80601f0160208091040260200160405190810160405280929190818152602001828054610fb290611d50565b8015610fff5780601f10610fd457610100808354040283529160200191610fff565b820191906000526020600020905b815481529060010190602001808311610fe257829003601f168201915b505050505081525050815260200160048201805461101c90611d50565b80601f016020809104026020016040519081016040528092919081815260200182805461104890611d50565b80156110955780601f1061106a57610100808354040283529160200191611095565b820191906000526020600020905b81548152906001019060200180831161107857829003601f168201915b50505050508152505081526020019060010190610ea5565b6110b561163a565b60405160e060020a63c9bae385028152336004820181905260026024830152908490600160a060020a0382169063c9bae3859060440160206040518083038186803b15801561110357600080fd5b505afa158015611117573d6000803e3d6000fd5b505050506040513d601f19601f8201168201806040525081019061113b9190611a61565b806111c4575060405160e060020a63c9bae385028152600160a060020a0383811660048301526003602483015282169063c9bae3859060440160206040518083038186803b15801561118c57600080fd5b505afa1580156111a0573d6000803e3d6000fd5b505050506040513d601f19601f820116820180604052508101906111c49190611a61565b6111e35760405160e560020a62461bcd02815260040161026290611ccb565b6000848152600260205260408120546111fe90600190611d28565b8154811061120e5761120e611d8e565b90600052602060002090600902016040518060c00160405290816000820160405180608001604052908160008201805461124790611d50565b80601f016020809104026020016040519081016040528092919081815260200182805461127390611d50565b80156112c05780601f10611295576101008083540402835291602001916112c0565b820191906000526020600020905b8154815290600101906020018083116112a357829003601f168201915b5050505050815260200160018201548152602001600282015481526020016003820180546112ed90611d50565b80601f016020809104026020016040519081016040528092919081815260200182805461131990611d50565b80156113665780601f1061133b57610100808354040283529160200191611366565b820191906000526020600020905b81548152906001019060200180831161134957829003601f168201915b505050505081525050815260200160048201805461138390611d50565b80601f01602080910402602001604051908101604052809291908181526020018280546113af90611d50565b80156113fc5780601f106113d1576101008083540402835291602001916113fc565b820191906000526020600020905b8154815290600101906020018083116113df57829003601f168201915b5050505050815260200160058201805461141590611d50565b80601f016020809104026020016040519081016040528092919081815260200182805461144190611d50565b801561148e5780601f106114635761010080835404028352916020019161148e565b820191906000526020600020905b81548152906001019060200180831161147157829003601f168201915b505050505081526020016006820180546114a790611d50565b80601f01602080910402602001604051908101604052809291908181526020018280546114d390611d50565b80156115205780601f106114f557610100808354040283529160200191611520565b820191906000526020600020905b81548152906001019060200180831161150357829003601f168201915b5050505050815260200160078201805461153990611d50565b80601f016020809104026020016040519081016040528092919081815260200182805461156590611d50565b80156115b25780601f10611587576101008083540402835291602001916115b2565b820191906000526020600020905b81548152906001019060200180831161159557829003601f168201915b5050505050815260200160088201805461062090611d50565b6115f66040518060800160405280606081526020016000815260200160008152602001606081525090565b6116216040518060800160405280606081526020016000815260200160008152602001606081525090565b9485525060208401929092526040830152606082015290565b6040518060c001604052806116706040518060800160405280606081526020016000815260200160008152602001606081525090565b815260200160608152602001606081526020016060815260200160608152602001606081525090565b8280546116a590611d50565b90600052602060002090601f0160209004810192826116c7576000855561170d565b82601f106116e057805160ff191683800117855561170d565b8280016001018555821561170d579182015b8281111561170d5782518255916020019190600101906116f2565b50611719929150611760565b5090565b60405180604001604052806117536040518060800160405280606081526020016000815260200160008152602001606081525090565b8152602001606081525090565b5b808211156117195760008155600101611761565b8035600160a060020a038116811461178c57600080fd5b919050565b600082601f8301126117a257600080fd5b813567ffffffffffffffff808211156117bd576117bd611da7565b604051601f8301601f19908116603f011681019082821181831017156117e5576117e5611da7565b816040528381528660208588010111156117fe57600080fd5b836020870160208301376000602085830101528094505050505092915050565b60006020828403121561183057600080fd5b61183982611775565b9392505050565b6000806040838503121561185357600080fd5b61185c83611775565b946020939093013593505050565b6000806000806000806000806000806101408b8d03121561188a57600080fd5b6118938b611775565b995060208b0135985060408b013567ffffffffffffffff808211156118b757600080fd5b6118c38e838f01611791565b995060608d0135985060808d01359150808211156118e057600080fd5b6118ec8e838f01611791565b975060a08d013591508082111561190257600080fd5b61190e8e838f01611791565b965060c08d013591508082111561192457600080fd5b6119308e838f01611791565b955060e08d013591508082111561194657600080fd5b6119528e838f01611791565b94506101008d013591508082111561196957600080fd5b6119758e838f01611791565b93506101208d013591508082111561198c57600080fd5b506119998d828e01611791565b9150509295989b9194979a5092959850565b600080600080600080600060e0888a0312156119c657600080fd5b6119cf88611775565b965060208801359550604088013567ffffffffffffffff808211156119f357600080fd5b6119ff8b838c01611791565b965060608a0135955060808a0135945060a08a0135915080821115611a2357600080fd5b611a2f8b838c01611791565b935060c08a0135915080821115611a4557600080fd5b50611a528a828b01611791565b91505092959891949750929550565b600060208284031215611a7357600080fd5b8151801515811461183957600080fd5b6000815180845260005b81811015611aa957602081850181015186830182015201611a8d565b81811115611abb576000602083870101525b50601f01601f19169290920160200192915050565b6000815160408452611ae56040850182611b9d565b905060208301518482036020860152611afe8282611a83565b95945050505050565b6000815160c08452611b1c60c0850182611b9d565b905060208301518482036020860152611b358282611a83565b91505060408301518482036040860152611b4f8282611a83565b91505060608301518482036060860152611b698282611a83565b91505060808301518482036080860152611b838282611a83565b91505060a083015184820360a0860152611afe8282611a83565b6000815160808452611bb26080850182611a83565b9050602083015160208501526040830151604085015260608301518482036060860152611afe8282611a83565b600060208083018184528085518083526040860191506040848202870101925083870160005b82811015611c3357603f19888603018452611c21858351611ad0565b94509285019290850190600101611c05565b5092979650505050505050565b600060208083018184528085518083526040860191506040848202870101925083870160005b82811015611c3357603f19888603018452611c82858351611b07565b94509285019290850190600101611c66565b60208082526016908201527f73656e646572206973206e6f7420616e2061646d696e00000000000000000000604082015260600190565b60208082526017908201527f73656e646572206973206e6f742061206d65646963616c000000000000000000604082015260600190565b6020815260006118396020830184611ad0565b6020815260006118396020830184611b07565b600082821015611d4b5760e060020a634e487b7102600052601160045260246000fd5b500390565b600281046001821680611d6457607f821691505b60208210811415611d885760e060020a634e487b7102600052602260045260246000fd5b50919050565b60e060020a634e487b7102600052603260045260246000fd5b60e060020a634e487b7102600052604160045260246000fdfea2646970667358221220fe6207ebc64c735eacfc42c0e991195d8d8c96720d5bbdfa810b996b683c5e5064736f6c63430008070033",
  "immutableReferences": {},
  "source": "// SPDX-License-Identifier: GPL-3.0\r\npragma solidity ^0.8.7;\r\n\r\nimport \"./ProfileModifier.sol\";\r\n\r\nstruct PersonalInformation {\r\n    string name;\r\n    uint256 identificationNumber;\r\n    uint256 birthDate;\r\n    string gender;\r\n}\r\n\r\nstruct Patient {\r\n    PersonalInformation personalInformation;\r\n    string maritalStatus;\r\n    string occupation;\r\n    string direction;\r\n    string contactPerson;\r\n    string phone;\r\n}\r\n\r\nstruct Medical {\r\n    PersonalInformation personalInformation;\r\n    string speciality;\r\n}\r\n\r\n/**\r\n * @author Blockchain Clinic Records Team\r\n * @dev inherits from ProfileModifier to use modifiers\r\n * @title SessionContract\r\n * @notice Contract to mantain and manage Users, Roles and Sessions\r\n */\r\ncontract UsersInformation is ProfileModifier {\r\n    Patient[] patients;\r\n    Medical[] medicals;\r\n\r\n    //mapping from identification to patients index\r\n    //index saves the next value to avoid point to zero\r\n    mapping(uint256 => uint256) patientsMap;\r\n    //mapping from user id to medicals index\r\n    //index saves the next value to avoid point to zero\r\n    mapping(uint256 => uint256) medicalsMap;\r\n\r\n    constructor() {}\r\n\r\n    /**\r\n     * @notice internal function to create a PersonalInformation struct\r\n     * @param _name client name\r\n     * @param _identificationNumber identification of the client\r\n     * @param _birthDate birth date as uint value\r\n     * @param _gender client gender\r\n     * @return PersonalInformation PersonalInformation struct\r\n     */\r\n    function putPersonalInformation(\r\n        string memory _name,\r\n        uint256 _identificationNumber,\r\n        uint256 _birthDate,\r\n        string memory _gender\r\n    ) internal pure returns (PersonalInformation memory) {\r\n        PersonalInformation memory _personalInformation;\r\n        _personalInformation.name = _name;\r\n        _personalInformation.identificationNumber = _identificationNumber;\r\n        _personalInformation.birthDate = _birthDate;\r\n        _personalInformation.gender = _gender;\r\n\r\n        return _personalInformation;\r\n    }\r\n\r\n    /**\r\n     * @notice register a new patient with its identification data\r\n     * @dev msg.sender addres should be from a doctor or nurse role\r\n     * @param sessionContractAddress address of the deployed SessionContract instance\r\n     * @param _identificationNumber identification of the client\r\n     * @param _name patient name\r\n     * @param _birthDate patient birth date as uint\r\n     * @param _gender patient gender\r\n     * @param _maritalStatus patient marital status\r\n     * @param _occupation patient occupation\r\n     * @param _direction patient direction\r\n     * @param _contactPerson person to contact for patients eventuelities\r\n     * @param _phone contact phone\r\n     * @custom:modifier isMedical from ProfileModifier\r\n     */\r\n    function addPatient(\r\n        address sessionContractAddress,\r\n        uint256 _identificationNumber,\r\n        string memory _name,\r\n        uint256 _birthDate,\r\n        string memory _gender,\r\n        string memory _maritalStatus,\r\n        string memory _occupation,\r\n        string memory _direction,\r\n        string memory _contactPerson,\r\n        string memory _phone\r\n    ) external isMedical(msg.sender, sessionContractAddress) {\r\n        Patient memory _patient;\r\n        _patient.personalInformation = putPersonalInformation(\r\n            _name,\r\n            _identificationNumber,\r\n            _birthDate,\r\n            _gender\r\n        );\r\n        _patient.maritalStatus = _maritalStatus;\r\n        _patient.occupation = _occupation;\r\n        _patient.direction = _direction;\r\n        _patient.contactPerson = _contactPerson;\r\n        _patient.phone = _phone;\r\n\r\n        patients.push(_patient);\r\n        patientsMap[_identificationNumber] = patients.length;\r\n    }\r\n\r\n    /**\r\n     * @notice retrieves all patients\r\n     * @dev msg.sender addres should be from a doctor or nurse role\r\n     * @param sessionContractAddress address of the deployed SessionContract instance\r\n     * @custom:modifier isMedical from ProfileModifier\r\n     * @return Patient patients array\r\n     */\r\n    function getPatients(address sessionContractAddress)\r\n        external\r\n        view\r\n        isMedical(msg.sender, sessionContractAddress)\r\n        returns (Patient[] memory)\r\n    {\r\n        return patients;\r\n    }\r\n\r\n    /**\r\n     * @notice retrieves a patiens by a given user identification\r\n     * @dev msg.sender addres should be from a doctor or nurse role\r\n     * @param sessionContractAddress address of the deployed SessionContract instance\r\n     * @param userIdentification patients identification\r\n     * @custom:modifier isMedical from ProfileModifier\r\n     * @return Patient patient\r\n     */\r\n    function getPatient(\r\n        address sessionContractAddress,\r\n        uint256 userIdentification\r\n    )\r\n        external\r\n        view\r\n        isMedical(msg.sender, sessionContractAddress)\r\n        returns (Patient memory)\r\n    {\r\n        return patients[patientsMap[userIdentification] - 1];\r\n    }\r\n\r\n    /**\r\n     * @notice register a new medical with its identification data\r\n     * @dev msg.sender addres should be from an administrator role\r\n     * @param sessionContractAddress address of the deployed SessionContract instance\r\n     * @param userId id from the created user for the medical\r\n     * @param _identificationNumber identification of the medical\r\n     * @param _name medical name\r\n     * @param _birthDate medical birth date as uint\r\n     * @param _gender medical gender\r\n     * @param _speciality medical specialization\r\n     * @custom:modifier isAdmin from ProfileModifier\r\n     */\r\n    function addMedical(\r\n        address sessionContractAddress,\r\n        uint256 userId,\r\n        string memory _name,\r\n        uint256 _identificationNumber,\r\n        uint256 _birthDate,\r\n        string memory _gender,\r\n        string memory _speciality\r\n    ) external isAdmin(msg.sender, sessionContractAddress) {\r\n        Medical memory _medical;\r\n        _medical.personalInformation = putPersonalInformation(\r\n            _name,\r\n            _identificationNumber,\r\n            _birthDate,\r\n            _gender\r\n        );\r\n        _medical.speciality = _speciality;\r\n\r\n        medicals.push(_medical);\r\n        medicalsMap[userId] = medicals.length;\r\n    }\r\n\r\n    /**\r\n     * @notice retrieves all medicals\r\n     * @dev msg.sender addres should be from an administrator role\r\n     * @param sessionContractAddress address of the deployed SessionContract instance\r\n     * @custom:modifier isAdmin from ProfileModifier\r\n     * @return Medical medical array\r\n     */\r\n    function getMedicals(address sessionContractAddress)\r\n        external\r\n        view\r\n        isAdmin(msg.sender, sessionContractAddress)\r\n        returns (Medical[] memory)\r\n    {\r\n        return medicals;\r\n    }\r\n\r\n    /**\r\n     * @notice retrieves a medical by a given userId\r\n     * @dev msg.sender addres should be from an administrator role\r\n     * @param sessionContractAddress address of the deployed SessionContract instance\r\n     * @param userId user id from SessionsContrtact Users\r\n     * @custom:modifier isAdmin from ProfileModifier\r\n     * @return Medical medical\r\n     */\r\n    function getMedical(address sessionContractAddress, uint256 userId)\r\n        external\r\n        view\r\n        isAdmin(msg.sender, sessionContractAddress)\r\n        returns (Medical memory)\r\n    {\r\n        return medicals[medicalsMap[userId] - 1];\r\n    }\r\n}\r\n",
  "sourcePath": "D:\\Documents\\React\\Tesis Historias Clinicas\\contracts\\UsersInformation.sol",
  "compiler": {
    "name": "solc",
    "version": "0.8.7+commit.e28d00a7.Emscripten.clang"
  },
  "schemaVersion": "3.4.10",
  "updatedAt": "2022-10-08T07:26:32.694Z",
  "networkType": "ethereum",
  "devdoc": {
    "author": "Blockchain Clinic Records Team",
    "details": "inherits from ProfileModifier to use modifiers",
    "kind": "dev",
    "methods": {
      "addMedical(address,uint256,string,uint256,uint256,string,string)": {
        "custom:modifier": "isAdmin from ProfileModifier",
        "details": "msg.sender addres should be from an administrator role",
        "params": {
          "_birthDate": "medical birth date as uint",
          "_gender": "medical gender",
          "_identificationNumber": "identification of the medical",
          "_name": "medical name",
          "_speciality": "medical specialization",
          "sessionContractAddress": "address of the deployed SessionContract instance",
          "userId": "id from the created user for the medical"
        }
      },
      "addPatient(address,uint256,string,uint256,string,string,string,string,string,string)": {
        "custom:modifier": "isMedical from ProfileModifier",
        "details": "msg.sender addres should be from a doctor or nurse role",
        "params": {
          "_birthDate": "patient birth date as uint",
          "_contactPerson": "person to contact for patients eventuelities",
          "_direction": "patient direction",
          "_gender": "patient gender",
          "_identificationNumber": "identification of the client",
          "_maritalStatus": "patient marital status",
          "_name": "patient name",
          "_occupation": "patient occupation",
          "_phone": "contact phone",
          "sessionContractAddress": "address of the deployed SessionContract instance"
        }
      },
      "getMedical(address,uint256)": {
        "custom:modifier": "isAdmin from ProfileModifier",
        "details": "msg.sender addres should be from an administrator role",
        "params": {
          "sessionContractAddress": "address of the deployed SessionContract instance",
          "userId": "user id from SessionsContrtact Users"
        },
        "returns": {
          "_0": "Medical medical"
        }
      },
      "getMedicals(address)": {
        "custom:modifier": "isAdmin from ProfileModifier",
        "details": "msg.sender addres should be from an administrator role",
        "params": {
          "sessionContractAddress": "address of the deployed SessionContract instance"
        },
        "returns": {
          "_0": "Medical medical array"
        }
      },
      "getPatient(address,uint256)": {
        "custom:modifier": "isMedical from ProfileModifier",
        "details": "msg.sender addres should be from a doctor or nurse role",
        "params": {
          "sessionContractAddress": "address of the deployed SessionContract instance",
          "userIdentification": "patients identification"
        },
        "returns": {
          "_0": "Patient patient"
        }
      },
      "getPatients(address)": {
        "custom:modifier": "isMedical from ProfileModifier",
        "details": "msg.sender addres should be from a doctor or nurse role",
        "params": {
          "sessionContractAddress": "address of the deployed SessionContract instance"
        },
        "returns": {
          "_0": "Patient patients array"
        }
      }
    },
    "title": "SessionContract",
    "version": 1
  },
  "userdoc": {
    "kind": "user",
    "methods": {
      "addMedical(address,uint256,string,uint256,uint256,string,string)": {
        "notice": "register a new medical with its identification data"
      },
      "addPatient(address,uint256,string,uint256,string,string,string,string,string,string)": {
        "notice": "register a new patient with its identification data"
      },
      "getMedical(address,uint256)": {
        "notice": "retrieves a medical by a given userId"
      },
      "getMedicals(address)": {
        "notice": "retrieves all medicals"
      },
      "getPatient(address,uint256)": {
        "notice": "retrieves a patiens by a given user identification"
      },
      "getPatients(address)": {
        "notice": "retrieves all patients"
      }
    },
    "notice": "Contract to mantain and manage Users, Roles and Sessions",
    "version": 1
  }
}